:1000000084463DE000000000000000000000000009
:1000100000000000000000000000000000000000E0
:100020004D4B52544F532E201C1600002048000008
:10003000204C0000000400000004000058430000B1
:10004000004600000000000000000000000000006A
:1000500000000000000000000000000000000000A0
:100060000000000000000000000000000000000090
:100070000000000000000000000000000000000080
:100080000021AFF2840222F0010216481044164B00
:10009000134403E0425849F80120043142189A42BF
:1000A000F8D34FF023300F49104AA2EB01024A4423
:1000B0000F4BA3EB01034B4401E042F8040B9A42BF
:1000C000FBD3604611B44846AFF2CC0121F00101E8
:1000D00003F054FBBDE80110AFF2DC0103F076F849
:1000E000FEE70000584300007C440000204C000064
:1000F00020500000BC46024F00DF674670470000FA
:1001000005000F0070BC00BF10F5805F00D300E059
:10011000F746C0F100012DE9024002F01DFABDE8EA
:10012000024001606FF00000704700BF4FF0000315
:1001300000F048BCEC462DE970009CE8700080B5EA
:10014000DFF8787E80DFBDE88040FFF7DBBF00BFCF
:1001500080B5DFF86C7E80DFBDE88040FFF7D4BF5C
:1001600080B5DFF8607E80DFBDE88040FFF7CCBF60
:1001700080B5DFF8547E80DFBDE88040FFF7C4BF64
:1001800080B5DFF8487E80DFBDE88040FFF7BCBF68
:1001900080B5DFF83C7E80DFBDE88040FFF7B4BF6C
:1001A00080B5DFF8307E80DFBDE88040FFF7ACBF70
:1001B00080B5DFF8247E80DFBDE88040FFF7A4BF74
:1001C00080B5DFF8187E80DFBDE88040FFF79CBF78
:1001D00080B5DFF80C7E80DFBDE88040FFF794BF7C
:1001E00080B5DFF8007E80DFBDE88040FFF78CBF80
:1001F00080B5DFF8F47D80DFBDE88040FFF784BF85
:1002000080B5DFF8E87D80DFBDE88040FFF77CBF88
:1002100080B5DFF8DC7D80DFBDE88040FFF774BF8C
:1002200080B5DFF8D07D80DFBDE88040FFF76CBF90
:1002300080B5DFF8C47D80DFBDE88040FFF764BF94
:1002400080B5DFF8B87D80DFBDE88040FFF75CBF98
:1002500080B5DFF8AC7D80DFBDE88040FFF754BF9C
:1002600080B5DFF8A07D80DFBDE88040FFF74CBFA0
:1002700080B5DFF8947D80DFBDE88040FFF744BFA4
:1002800080B5DFF8887D80DFBDE88040FFF73CBFA8
:1002900080B5DFF87C7D80DFBDE88040FFF734BFAC
:1002A00080B5DFF8707D80DFBDE88040FFF72CBFB0
:1002B00080B5DFF8647D80DFBDE88040FFF724BFB4
:1002C00080B5DFF8587D80DFBDE88040FFF71CBFB8
:1002D00080B5DFF84C7D80DFBDE88040FFF714BFBC
:1002E00080B5DFF8407D80DFBDE88040FFF70CBFC0
:1002F00080B5DFF8347D80DFBDE88040FFF704BFC4
:1003000080B5DFF8287D80DFBDE88040FFF7FCBEC8
:1003100080B5DFF81C7D80DFBDE88040FFF7F4BECC
:1003200080B5DFF8107D80DFBDE88040FFF7ECBED0
:1003300080B5DFF8047D80DFBDE88040FFF7E4BED4
:1003400080B5DFF8F87C80DFBDE88040FFF7DCBED9
:1003500080B5DFF8EC7C80DFBDE88040FFF7D4BEDD
:1003600080B5DFF8E07C80DFBDE88040FFF7CCBEE1
:1003700080B5DFF8D47C80DFBDE88040FFF7C4BEE5
:1003800080B5DFF8C87C80DFBDE88040FFF7BCBEE9
:1003900080B5DFF8BC7C80DFBDE88040FFF7B4BEED
:1003A00080B5DFF8B07C80DFBDE88040FFF7ACBEF1
:1003B00080B5DFF8A47C80DFBDE88040FFF7A4BEF5
:1003C00080B5DFF8987C80DFBDE88040FFF79CBEF9
:1003D00080B5DFF88C7C80DFBDE88040FFF794BEFD
:1003E00080B5DFF8807C80DFBDE88040FFF78CBE01
:1003F00080B5DFF8747C80DFBDE88040FFF784BE05
:1004000080B5DFF8687C80DFBDE88040FFF77CBE08
:1004100080B5DFF85C7C80DFBDE88040FFF774BE0C
:1004200080B5DFF8507C80DFBDE88040FFF76CBE10
:1004300080B5DFF8447C80DFBDE88040FFF764BE14
:1004400080B5DFF8387C80DFBDE88040FFF75CBE18
:1004500080B5DFF82C7C80DFBDE88040FFF754BE1C
:10046000EC462DE970009CE8700080B5DFF8147C44
:1004700080DFBDE88040FFF745BE00BF80B5DFF8F4
:10048000087C80DFBDE88040FFF73EBE80B5DFF826
:10049000FC7B80DFBDE88040FFF736BE80B5DFF82B
:1004A000F07B80DFBDE88040FFF72EBE80B5DFF82F
:1004B000E47B80DFBDE88040FFF726BE80B5DFF833
:1004C000D87B80DFBDE88040FFF71EBE80B5DFF837
:1004D000CC7B80DFBDE88040FFF716BE80B5DFF83B
:1004E000C07B80DFBDE88040FFF70EBEEC462DE903
:1004F00070009CE8700080B5DFF8A87B80DFBDE865
:100500008040FFF7FFBD00BFEC462DE970009CE87E
:10051000700080B5DFF8907B80DFBDE88040FFF79A
:10052000F1BD00BF80B5DFF8847B80DFBDE880408F
:10053000FFF7EABD80B5DFF8787B80DFBDE880405B
:10054000FFF7E2BD80B5DFF86C7B80DFBDE880405F
:10055000FFF7DABD80B5DFF8607B80DFBDE8804063
:10056000FFF7D2BD80B5DFF8547B80DFBDE8804067
:10057000FFF7CABD80B5DFF8487B80DFBDE880406B
:10058000FFF7C2BD80B5DFF83C7B80DFBDE880406F
:10059000FFF7BABD80B5DFF8307B80DFBDE8804073
:1005A000FFF7B2BD80B5DFF8247B80DFBDE8804077
:1005B000FFF7AABD80B5DFF8187B80DFBDE880407B
:1005C000FFF7A2BD80B5DFF80C7B80DFBDE880407F
:1005D000FFF79ABD80B5DFF8007B80DFBDE8804083
:1005E000FFF792BD80B5DFF8F47A80DFBDE8804088
:1005F000FFF78ABD80B5DFF8E87A80DFBDE880408C
:10060000FFF782BD80B5DFF8DC7A80DFBDE880408F
:10061000FFF77ABD80B5DFF8D07A80DFBDE8804093
:10062000FFF772BD80B5DFF8C47A80DFBDE8804097
:10063000FFF76ABD80B5DFF8B87A80DFBDE880409B
:10064000FFF762BD80B5DFF8AC7A80DFBDE880409F
:10065000FFF75ABD80B5DFF8A07A80DFBDE88040A3
:10066000FFF752BD80B5DFF8947A80DFBDE88040A7
:10067000FFF74ABD80B5DFF8887A80DFBDE88040AB
:10068000FFF742BD80B5DFF87C7A80DFBDE88040AF
:10069000FFF73ABD80B5DFF8707A80DFBDE88040B3
:1006A000FFF732BD80B5DFF8647A80DFBDE88040B7
:1006B000FFF72ABD80B5DFF8587A80DFBDE88040BB
:1006C000FFF722BD80B5DFF84C7A80DFBDE88040BF
:1006D000FFF71ABD80B5DFF8407A80DFBDE88040C3
:1006E000FFF712BD80B5DFF8347A80DFBDE88040C7
:1006F000FFF70ABD80B5DFF8287A80DFBDE88040CB
:10070000FFF702BD80B5DFF81C7A80DFBDE88040CE
:10071000FFF7FABC80B5DFF8107A80DFBDE88040D3
:10072000FFF7F2BC80B5DFF8047A80DFBDE88040D7
:10073000FFF7EABC80B5DFF8F87980DFBDE88040DC
:10074000FFF7E2BC80B5DFF8EC7980DFBDE88040E0
:10075000FFF7DABC80B5DFF8E07980DFBDE88040E4
:10076000FFF7D2BC80B5DFF8D47980DFBDE88040E8
:10077000FFF7CABC80B5DFF8C87980DFBDE88040EC
:10078000FFF7C2BC80B5DFF8BC7980DFBDE88040F0
:10079000FFF7BABC80B5DFF8B07980DFBDE88040F4
:1007A000FFF7B2BC80B5DFF8A47980DFBDE88040F8
:1007B000FFF7AABC80B5DFF8987980DFBDE88040FC
:1007C000FFF7A2BC80B5DFF88C7980DFBDE8804000
:1007D000FFF79ABC80B5DFF8807980DFBDE8804004
:1007E000FFF792BC80B5DFF8747980DFBDE8804008
:1007F000FFF78ABC80B5DFF8687980DFBDE880400C
:10080000FFF782BC80B5DFF85C7980DFBDE880400F
:10081000FFF77ABC80B5DFF8507980DFBDE8804013
:10082000FFF772BC80B5DFF8447980DFBDE8804017
:10083000FFF76ABC80B5DFF8387980DFBDE880401B
:10084000FFF762BC80B5DFF82C7980DFBDE880401F
:10085000FFF75ABC80B5DFF8207980DFBDE8804023
:10086000FFF752BC80B5DFF8147980DFBDE8804027
:10087000FFF74ABC80B5DFF8087980DFBDE880402B
:10088000FFF742BC80B5DFF8FC7880DFBDE8804030
:10089000FFF73ABC80B5DFF8F07880DFBDE8804034
:1008A000FFF732BC80B5DFF8E47880DFBDE8804038
:1008B000FFF72ABC80B5DFF8D87880DFBDE880403C
:1008C000FFF722BC80B5DFF8CC7880DFBDE8804040
:1008D000FFF71ABC80B5DFF8C07880DFBDE8804044
:1008E000FFF712BC80B5DFF8B47880DFBDE8804048
:1008F000FFF70ABC80B5DFF8A87880DFBDE880404C
:10090000FFF702BC80B5DFF89C7880DFBDE880404F
:10091000FFF7FABB80B5DFF8907880DFBDE8804054
:10092000FFF7F2BB80B5DFF8847880DFBDE8804058
:10093000FFF7EABB80B5DFF8787880DFBDE880405C
:10094000FFF7E2BB80B5DFF86C7880DFBDE8804060
:10095000FFF7DABB80B5DFF8607880DFBDE8804064
:10096000FFF7D2BB80B5DFF8547880DFBDE8804068
:10097000FFF7CABB80B5DFF8487880DFBDE880406C
:10098000FFF7C2BB80B5DFF83C7880DFBDE8804070
:10099000FFF7BABB80B5DFF8307880DFBDE8804074
:1009A000FFF7B2BB80B5DFF8247880DFBDE8804078
:1009B000FFF7AABB80B5DFF8187880DFBDE880407C
:1009C000FFF7A2BB80B5DFF80C7880DFBDE8804080
:1009D000FFF79ABB80B5DFF8007880DFBDE8804084
:1009E000FFF792BB80B5DFF8F47780DFBDE8804089
:1009F000FFF78ABB80B5DFF8E87780DFBDE880408D
:100A0000FFF782BB80B5DFF8DC7780DFBDE8804090
:100A1000FFF77ABB80B5DFF8D07780DFBDE8804094
:100A2000FFF772BB80B5DFF8C47780DFBDE8804098
:100A3000FFF76ABB80B5DFF8B87780DFBDE880409C
:100A4000FFF762BB80B5DFF8AC7780DFBDE88040A0
:100A5000FFF75ABB80B5DFF8A07780DFBDE88040A4
:100A6000FFF752BB80B5DFF8947780DFBDE88040A8
:100A7000FFF74ABB80B5DFF8887780DFBDE88040AC
:100A8000FFF742BB80B5DFF87C7780DFBDE88040B0
:100A9000FFF73ABB80B5DFF8707780DFBDE88040B4
:100AA000FFF732BB80B5DFF8647780DFBDE88040B8
:100AB000FFF72ABB80B5DFF8587780DFBDE88040BC
:100AC000FFF722BB80B5DFF84C7780DFBDE88040C0
:100AD000FFF71ABB80B5DFF8407780DFBDE88040C4
:100AE000FFF712BB80B5DFF8347780DFBDE88040C8
:100AF000FFF70ABB80B5DFF8287780DFBDE88040CC
:100B0000FFF702BB80B5DFF81C7780DFBDE88040CF
:100B1000FFF7FABA80B5DFF8107780DFBDE88040D4
:100B2000FFF7F2BA80B5DFF8047780DFBDE88040D8
:100B3000FFF7EABA80B5DFF8F87680DFBDE88040DD
:100B4000FFF7E2BA80B5DFF8EC7680DFBDE88040E1
:100B5000FFF7DABA80B5DFF8E07680DFBDE88040E5
:100B6000FFF7D2BA80B5DFF8D47680DFBDE88040E9
:100B7000FFF7CABA80B5DFF8C87680DFBDE88040ED
:100B8000FFF7C2BA80B5DFF8BC7680DFBDE88040F1
:100B9000FFF7BABA80B5DFF8B07680DFBDE88040F5
:100BA000FFF7B2BA80B5DFF8A47680DFBDE88040F9
:100BB000FFF7AABA80B5DFF8987680DFBDE88040FD
:100BC000FFF7A2BA80B5DFF88C7680DFBDE8804001
:100BD000FFF79ABA80B5DFF8807680DFBDE8804005
:100BE000FFF792BA80B5DFF8747680DFBDE8804009
:100BF000FFF78ABA80B5DFF8687680DFBDE880400D
:100C0000FFF782BA80B5DFF85C7680DFBDE8804010
:100C1000FFF77ABA80B5DFF8507680DFBDE8804014
:100C2000FFF772BA80B5DFF8447680DFBDE8804018
:100C3000FFF76ABA80B5DFF8387680DFBDE880401C
:100C4000FFF762BA80B5DFF82C7680DFBDE8804020
:100C5000FFF75ABA80B5DFF8207680DFBDE8804024
:100C6000FFF752BAEC462DE970009CE8700080B5A1
:100C7000DFF8087680DFBDE88040FFF743BA00BFA9
:100C800080B5DFF8FC7580DFBDE88040FFF73CBA37
:100C900080B5DFF8F07580DFBDE88040FFF734BA3B
:100CA00080B5DFF8E47580DFBDE88040FFF72CBA3F
:100CB00080B5DFF8D87580DFBDE88040FFF724BA43
:100CC00080B5DFF8CC7580DFBDE88040FFF71CBA47
:100CD00080B5DFF8C07580DFBDE88040FFF714BA4B
:100CE00080B5DFF8B47580DFBDE88040FFF70CBA4F
:100CF000EC462DE970009CE8700080B5DFF89C752B
:100D000080DFBDE88040FFF7FDB900BF80B5DFF8A8
:100D1000907580DFBDE88040FFF7F6B980B5DFF859
:100D2000847580DFBDE88040FFF7EEB980B5DFF85D
:100D3000787580DFBDE88040FFF7E6B980B5DFF861
:100D40006C7580DFBDE88040FFF7DEB980B5DFF865
:100D5000607580DFBDE88040FFF7D6B980B5DFF869
:100D6000547580DFBDE88040FFF7CEB9EC462DE931
:100D700070009CE8700080B5DFF83C7580DFBDE84E
:100D80008040FFF7BFB900BFEC462DE970009CE83A
:100D9000700080B5DFF8247580DFBDE88040FFF784
:100DA000B1B900BF80B5DFF8187580DFBDE88040BD
:100DB000FFF7AAB980B5DFF80C7580DFBDE8804089
:100DC000FFF7A2B9EC462DE970009CE8700080B5F1
:100DD000DFF8F47480DFBDE88040FFF793B900BF0F
:100DE00080B5DFF8E87480DFBDE88040FFF78CB99C
:100DF000EC462DE970009CE8700080B5DFF8D074F7
:100E000080DFBDE88040FFF77DB900BF80B5DFF827
:100E1000C47480DFBDE88040FFF776B980B5DFF8A5
:100E2000B87480DFBDE88040FFF76EB980B5DFF8A9
:100E3000AC7480DFBDE88040FFF766B980B5DFF8AD
:100E4000A07480DFBDE88040FFF75EB980B5DFF8B1
:100E5000947480DFBDE88040FFF756B980B5DFF8B5
:100E6000887480DFBDE88040FFF74EB980B5DFF8B9
:100E70007C7480DFBDE88040FFF746B980B5DFF8BD
:100E8000707480DFBDE88040FFF73EB9EC462DE985
:100E900070009CE8700080B5DFF8587480DFBDE812
:100EA0008040FFF72FB900BFEC462DE970009CE8A9
:100EB000700080B5DFF8407480DFBDE88040FFF748
:100EC00021B900BFEC462DE970009CE8700080B5A8
:100ED000DFF8287480DFBDE88040FFF713B900BF5A
:100EE00080B5DFF81C7480DFBDE88040FFF70CB9E7
:100EF00080B5DFF8107480DFBDE88040FFF704B9EB
:100F000080B5DFF8047480DFBDE88040FFF7FCB8EF
:100F100080B5FE4F80DFBDE88040FFF7F5B800BF29
:100F200080B5FB4F80DFBDE88040FFF7EDB800BF24
:100F300080B5F84F80DFBDE88040FFF7E5B800BF1F
:100F400080B5F54F80DFBDE88040FFF7DDB800BF1A
:100F500080B5F24F80DFBDE88040FFF7D5B800BF15
:100F600080B5EF4F80DFBDE88040FFF7CDB800BF10
:100F700001DF78468EEA0E00874600BF80B5E94F54
:100F800080DFBDE88040FFF7BFB800BF844608009F
:100F900008BF0120BCE8F00F5CF8042B95465CF814
:100FA00004FB00BF4FF000016A46A0E8F00FA0E884
:100FB0000440A0F1280001F0C7BC00008E00000032
:100FC000B4000000B500000058000000210000003F
:100FD0007C0000002D0000000C0000000F0000004D
:100FE000B60000003D0000000600000029000000DF
:100FF0003F0000000B000000850000005E000000C4
:101000005F000000370000008F00000002000000B9
:101010006C000000C50000006400000076000000C5
:101020005D000000B70000008D000000D900000046
:1010300032000000310000002F00000050000000CE
:10104000690000008400000014000000400000005F
:1010500060000000AB000000A5000000BF00000021
:101060004D000000930000004E0000004F00000003
:1010700018000000360000002500000010000000ED
:10108000090000008C000000130000006B0000004D
:10109000C4000000270000000E00000096000000C1
:1010A00098000000C0000000150000007D00000056
:1010B000A3000000990000005B0000004300000056
:1010C000490000007E00000048000000A20000006F
:1010D000050000001D000000880000002A0000003C
:1010E000A800000080000000810000000300000054
:1010F00055000000910000002600000028000000BC
:10110000AE000000B0000000AF000000B200000020
:10111000B3000000B1000000F2000000F100000088
:101120009F000000A00000009B0000009D00000048
:10113000A10000009A0000009C0000009E0000003A
:10114000BB000000EF000000790000008B000000F1
:101150008A0000002E000000510000004A0000003C
:101160006800000039000000610000004700000036
:10117000AA000000A4000000460000004B00000090
:101180004200000017000000BA0000006A000000E2
:10119000C30000006300000073000000570000005F
:1011A00053000000240000009500000074000000BF
:1011B00067000000870000002B0000005C000000BA
:1011C0003C000000340000007A0000000A0000002B
:1011D0006F00000072000000040000009200000098
:1011E00090000000B8000000B9000000D40000002A
:1011F000CF000000CA000000C9000000C8000000C5
:10120000CD000000D3000000C7000000C6000000B1
:10121000D8000000D7000000D6000000CC0000007D
:10122000D2000000CB000000D50000001A00000032
:10123000C2000000C10000003E000000FA000000F3
:10124000FB000000FC000000DD00000001010000C8
:10125000020100000301000004010000050100007C
:10126000060100000701000008010000090100005C
:101270001701000016010000120100001501000016
:1012800014010000130100000A0100000B0100001E
:10129000EE0000000C010000000100004101000010
:1012A000AD000000E0000000FD000000E1000000D3
:1012B00083000000DB0000003F010000400100004F
:1012C000F000000039010000360100003701000085
:1012D00035010000F6000000F3000000F5000000FA
:1012E000F4000000F70000003E0100003C01000097
:1012F0003D010000E2000000E3000000E400000007
:10130000EB000000EC000000ED000000E800000031
:10131000E9000000EA000000E5000000E60000002F
:10132000E7000000780000004FF0000B009801A9D2
:10133000DFF81CC001EB800202F10402CCF80020AF
:1013400001F032FE01F06AF84FF0010780DF00BFC4
:101350000000000080B500AF002000F001F880BD63
:1013600090B585B000AF78607B68002B1CD100F091
:1013700097FA00F06DFA0023FB60324B59F8033006
:101380001B68BB600BE0B868FFF7EAFF0346002B61
:1013900002D04FF0FF33FB60BB689B69BB60BB684A
:1013A000002BF0D1FB6849E07B685B6803F0040325
:1013B000002B1ED07B68DA687B689B68D31A1C46BA
:1013C000002C0ED0002C05D07B6893F82130002B28
:1013D00000D0013C7B681B68184621460122FFF7BC
:1013E0004DF87B680022DA607B68DA687B689A6077
:1013F0001FE07B68DB68002B18D07B6819687B686E
:101400005A697B68DB68084611461A46FFF7E2FA1C
:1014100002467B68DB689A4208D07B685B6843F0D1
:1014200001027B685A604FF0FF3307E07B680022BF
:10143000DA607B68002283F82120002318461437E5
:10144000BD4690BDA400000080B584B000AF7860B8
:101450003960204B59F803301B68002B0CBF012367
:101460000023DBB2002B0BD01A4B59F803301A467D
:1014700001231360184B59F80330184600F0A2FFFF
:101480007B685B6803F004023B689A4214BF012347
:101490000023DBB2002B0DD07868FFF761FFF86006
:1014A0007B685B6823F004023B681A437B685A60E0
:1014B000FB680BE07B681B68002B06D100F0D6F9B7
:1014C0000346002B01D000F0EBF90023184610373B
:1014D000BD4680BDA00000007800000080B582B04D
:1014E00000AF786039600A4B59F803301B687868A0
:1014F00001213A6800F07AF802463B689A420CBF34
:1015000001230023DBB218460837BD4680BD00BF6B
:101510005800000080B582B000AF786039603B6849
:101520005B6803F48073002B06D038680021FFF756
:101530008BFF0346002B08D03B685B6843F0010239
:101540003B685A604FF0FF334CE03B68DA683B6819
:101550001B69013B9A422CBF01230023DBB2002B05
:1015600006D03868FFF7FCFE0346002B00D0E3E707
:101570003B685B6803F01003002B0ED03B681A68D1
:101580003B1D104619460122FFF724FA0346012BA2
:1015900000D0D1E77B68DBB224E03B685A693B6846
:1015A000DB6813447A68D2B21A703B68DB685A1C55
:1015B0003B68DA603B685B6803F00803002B02D0ED
:1015C0007B680A2B05D03B685B6803F01003002B97
:1015D00006D03868FFF7C4FE0346002B00D0ABE707
:1015E0007B68DBB218460837BD4680BD80B58AB03F
:1015F00000AFF860B9607A603B60BB687A6802FB54
:1016000003F33B623B685B6803F48073002B06D0F6
:1016100038680021FFF718FF0346002B07D03B680E
:101620005B6843F001023B685A600023F7E07B6887
:10163000002B06D03A6A7B68B2FBF3F2BB689A4291
:1016400001D00023EBE03B681A693B6A9A4234BF41
:1016500001230023DBB2002B0AD13B685B6803F057
:101660001003002B14BF01230023DBB2002B1AD080
:101670003868FFF775FE0346002B01D00023CEE04B
:101680003B681B681846F9683A6AFFF7A3F9786265
:101690007B6AB3F1FF3F05D100F05EFF03461B6894
:1016A000042BEDD0A6E03B681A693B68DB68D31ACF
:1016B0007B617A693B6A9A4201D93B6A7B617B69AB
:1016C000002B78D03B685B6803F00803002B41D007
:1016D0003B685B6803F40073002B14BF01230023F5
:1016E000DBB2002B14D03B685B6823F400723B68CC
:1016F0005A603B681B68184600F0A6FF0346002BA3
:1017000006D13B685B6823F008023B685A6021E021
:101710000023FB6119E03B685A693B68DB68581C91
:101720003968C8601344F968FA690A4412781A7073
:101730001B780A2B06D13868FFF712FE0346002BF0
:1017400000D06CE7FB690133FB61FA697B699A425F
:10175000E1D32DE03B685A693B68DB6813441846C7
:10176000F9687A6900F0E2FF3B68DA687B691A443D
:101770003B68DA603B68DA683B681B699A4215D1BE
:101780003868FFF7EDFD0346002B01D0002346E04B
:101790003A6A7B69D31A3B623B6A002B01D17B68B2
:1017A0003DE0FA687B691344FB607CE77B6836E0C8
:1017B0007B69BB6101E00023BB61BB69FB6113E096
:1017C000FA68FB6913441B7818463968FFF7A2FED4
:1017D0000346B3F1FF3F04D13A6AFB69D31A7B6237
:1017E00013E0FB690133FB61FA693B6A9A42E7D374
:1017F0003B6A7B627B6A002B07DA3B685B6843F0DD
:1018000001023B685A60002309E0BB68002B04D04A
:101810007A6ABB68B2FBF3F300E0002300BF18460E
:101820002837BD4680BD00BF0FB480B582B000AF81
:1018300007F114033B603869396800F03FF87860BD
:101840007B6818460837BD46BDE8804004B0704745
:1018500080B500AF044B59F803301B681846FFF7FA
:101860007FFD0346184680BD9000000080B500AFA4
:101870000A4B59F803301B68002B08D1002000F0F8
:10188000E3FE03460133054A59F802201360034B77
:1018900059F803301B68013B184680BD000000006A
:1018A00080B500AF044B59F803301B681846FFF7AA
:1018B00057FD0346184680BD5800000080B584B02F
:1018C00000AF786039600023BB60084B59F80330E3
:1018D000FB6007F10803184679683A6800F0E6F8FB
:1018E000034618461037BD4680BD00BF9800000073
:1018F00080B586B000AFF860B9607A603B600023C5
:101900003B61BB68013BBB60FA68BB6813440022C3
:101910001A70FA68BB6813447B613B68002B02D0E5
:101920003B68242B01D90A233B6000233B617B6881
:10193000002B07D17B69013B7B617B6930221A70E8
:1019400001233B6127E07B69013B7B617B683A684F
:10195000B3FBF2F2396801FB02F29B1ADBB23033BF
:10196000DAB27B691A707B691B78392B0BD97B69DA
:101970001A783B6A002B01D0072300E02723134489
:10198000DAB27B691A707A683B68B2FBF3F37B606A
:101990003B6901333B617A69FB689A4202D97B68F3
:1019A000002BD0D13B690133F86879691A4600F001
:1019B00037FF3B6918461837BD4680BD80B485B0F7
:1019C00000AF78600023FB6002E0FB680133FB603E
:1019D0007A68FB6813441B78002B05D07A68FB6893
:1019E00013441B78252BF0D1FB6818461437BD46ED
:1019F0005DF8047B704700BF80B586B000AFF8602B
:101A0000B9607A603B6000237B617B68002B01DC5E
:101A1000002345E0FB681A687B681A447B689A4299
:101A200002D24FF0FF333BE017E0BB685B683A68D7
:101A3000302A0CBF01220022D2B212011A4959F8F1
:101A400001101144BA6812680846102198477B6853
:101A5000103B7B607B6910337B617B680F2BE4D884
:101A60007B68002B15D0BB685B683A68302A0CBFD6
:101A700001220022D2B212010B4959F8011011447F
:101A8000BA6812680846796898477A697B6813448F
:101A90007B61FB681A687B691A44FB681A60002343
:101AA00018461837BD4680BD0400000080B5B8B0A8
:101AB00002AFF860B9607A600023C7F89C3000F08C
:101AC00073BCB868FFF77AFFC7F8D400D7F8D430F2
:101AD000002B25D0D7F8D430002B08DBD7F89C207A
:101AE000D7F8D4301A44D7F89C309A4203D24FF03A
:101AF000FF3300F060BCFB685B68FA681268B86886
:101B0000D7F8D410984700BFD7F89C20D7F8D43026
:101B10001344C7F89C30BA68D7F8D4301344BB607C
:101B2000BB681B78252B40F03F84202387F8D330F7
:101B3000202387F8D230002387F8D130002387F89C
:101B4000D030002387F8CF30002387F8CE30002331
:101B500087F8CD30002387F8CC30002387F8CB30CE
:101B6000002387F8CA300023C7F8C0300023C7F825
:101B7000BC300023C7F8B830BB680133BB60BB681A
:101B80005A1CBA601B7887F8973097F897307A2BF1
:101B900000F2098402A252F823301A44104700BF11
:101BA000ED0100000708000007080000070800001A
:101BB00007080000070800000708000007080000E9
:101BC00007080000070800000708000007080000D9
:101BD00007080000070800000708000007080000C9
:101BE00007080000070800000708000007080000B9
:101BF00007080000070800000708000007080000A9
:101C00000708000007080000070800000708000098
:101C10000708000007080000070800000708000088
:101C2000290200000708000007080000F301000077
:101C3000070800003B030000070800000708000039
:101C400007080000070800008B02000031020000B6
:101C50000708000021020000C90200000708000078
:101C60003902000039020000390200003902000088
:101C70003902000039020000390200003902000078
:101C800039020000390200000708000007080000C0
:101C90000708000007080000070800000708000008
:101CA00007080000070800000708000007080000F8
:101CB00007080000070800000708000007080000E8
:101CC00007080000070800000708000007080000D8
:101CD00007020000070800000708000007080000CE
:101CE00007080000070800000708000007080000B8
:101CF00007080000070800000708000007080000A8
:101D00001F06000007080000070800000708000081
:101D10000708000007080000070800000708000087
:101D20000708000007080000FF0500002D03000061
:101D300073060000070800000708000007080000FD
:101D4000F901000073060000070200000708000008
:101D500013020000070800000708000087060000C3
:101D60000D06000007020000070800006F030000D6
:101D700007080000790600000708000007080000B7
:101D80003106000007080000130200004FF0FF3387
:101D900011E3FF2387F8CF3097F8CA30013BDBB25D
:101DA00087F8CA30EBE697F8CA300133DBB287F820
:101DB000CA3097F8CA300133DBB287F8CA30DEE6A2
:101DC000012387F8CE30DAE6012387F8CD30D6E656
:101DD000012387F8CC30D2E697F8CB30002B02D025
:101DE0004FF0FF33E7E2BB685A1E07F19803104635
:101DF00019460A2200F006FFC7F8C000D7F8C03025
:101E0000B3F5205F02D94FF0FF33D4E297F8973053
:101E1000302B06D197F8CE30002B02D1302387F833
:101E2000D330D7F89830BB60A9E67B681A1D7A607A
:101E30001B68C7F8B430D7F8B430002B07DA012399
:101E400087F8CE30D7F8B4305B42C7F8B430D7F853
:101E5000B430C7F8C030D7F8C030B3F5205F02D92E
:101E60004FF0FF33A7E28AE6012387F8CB30BB6847
:101E70001B782A2B0FD17B681A1D7A601B68C7F864
:101E8000AC30D7F8AC3023EAE373C7F8BC30BB689A
:101E90000133BB6011E007F19803B86819460A22C4
:101EA00000F04CFEC7F8A800D7F8A83023EAE37387
:101EB000C7F8BC30D7F89830BB60D7F8BC30B3F562
:101EC000205F02D94FF0FF3375E258E67B681A1D98
:101ED0007A601B68DBB287F89730D7F89C305A1CC1
:101EE000D7F89C309A4202D24FF0FF3363E2FB688E
:101EF0005B68FA68126807F1970108460121984764
:101F000000BFD7F89C300133C7F89C304CE27B68A7
:101F10001A1D7A601B68C7F89830D7F89830002BE4
:101F200005D1DFF89C3459F80330C7F89830D7F85A
:101F30009830184600F056FDC7F8D40097F8CB301B
:101F4000002B09D0D7F8D420D7F8BC309A4203D957
:101F5000D7F8BC30C7F8D4300023C7F8BC30002312
:101F600087F8CB30202387F8D23097F8D23087F823
:101F7000D330D7F89830C7F8A0300023C7F8B03076
:101F8000D7F8C030002B26D1D7F8BC30002B22D197
:101F9000D7F8D430002B08DBD7F89C20D7F8D43002
:101FA0001A44D7F89C309A4202D24FF0FF3302E233
:101FB000FB685B68D7F89810FA6812680846D7F88B
:101FC000D410984700BFD7F89C20D7F8D4301344DA
:101FD000C7F89C30E8E197F8D130002B02D00123FC
:101FE000C7F8B03097F8CF30002B03D097F8CF3038
:101FF000C7F8B030D7F8B030002B14D0D7F89820FD
:10200000D7F8B0301344C7F89830D7F8B030D7F8C5
:10201000D420D31AC7F8D430D7F8B030D7F8C020BE
:10202000D31AC7F8C03097F8CB30002B07D0D7F8B9
:10203000C030002B03D1D7F8BC30C7F8C03097F8B8
:10204000CB30002B03D1D7F8D430C7F8BC3097F889
:10205000CE30002B16D197F8D330202B12D1D7F8E1
:10206000C020D7F8BC30D21A97F8D33007F19C01C2
:102070000846F968FFF7C0FC0346002B02D04FF07A
:10208000FF3398E1D7F8B030002B20D0D7F8B0302C
:10209000002B08DBD7F89C20D7F8B0301A44D7F8CB
:1020A0009C309A4202D24FF0FF3384E1FB685B68B8
:1020B000D7F8B010FA681268D7F8A000984700BFA8
:1020C000D7F89C20D7F8B0301344C7F89C3097F865
:1020D000CE30002B16D197F8D330202B12D0D7F862
:1020E000C020D7F8BC30D21A97F8D33007F19C0142
:1020F0000846F968FFF780FC0346002B02D04FF03A
:10210000FF3358E1D7F8BC20D7F8D430D21A97F86B
:10211000D23007F19C010846F968FFF76DFC0346D1
:10212000002B02D04FF0FF3345E1D7F8D430002B1D
:1021300008DBD7F89C20D7F8D4301A44D7F89C3065
:102140009A4202D24FF0FF3335E1FB685B68D7F863
:102150009810FA6812680846D7F8D410984700BF5C
:10216000D7F89C20D7F8D4301344C7F89C3097F8A0
:10217000CE30002B12D0D7F8C020D7F8BC30D21AFE
:1021800097F8D33007F19C010846F968FFF734FC53
:102190000346002B02D04FF0FF330CE104E1022391
:1021A000C7F8C4300023C7F8D43050E0022387F8C2
:1021B000CF30012387F8CA30782387F8973097F813
:1021C0009730582B0CBF01230023DBB287F8D030A7
:1021D0001023C7F8C4300023C7F8D43097F8CF30A5
:1021E000002B0AD030237B7597F89730BB750223FC
:1021F00087F8CF300223C7F8D430D7F8BC20D7F8FF
:10220000C0309A4204D9D7F8BC30C7F8C0301EE0BD
:102210001DE0012387F8D1300A23C7F8C43000231A
:10222000C7F8D43013E00823C7F8C4300023C7F838
:10223000D43097F8CF30002B09D030237B750123A1
:1022400087F8CF30D7F8D4300133C7F8D43007F14E
:1022500014030133C7F8983097F9CA30002B06DD14
:102260007B681A1D7A601B68C7F8B83005E07B6888
:102270001A1D7A601B68C7F8B83097F8D130002B68
:102280000BD0D7F8B830002B07DAD7F8B8305B425C
:10229000C7F8B830022387F8D13097F9CA30002B3D
:1022A00004DAD7F8B8309BB2C7F8B83097F9CA301B
:1022B000B3F1FF3F04DAD7F8B830DBB2C7F8B83073
:1022C000D7F89820D7F8D430D118D7F8B82097F895
:1022D000D030009308467B21D7F8C430FFF708FBC5
:1022E000C7F8A40097F8CB30002B1AD0D7F8A43049
:1022F000012B16D1D7F89820D7F8D43013441B7887
:10230000302B0ED1D7F8BC30002B03D097F8CF304C
:10231000002B02D00023C7F8D430002387F8CF3039
:1023200006E0D7F8A430D7F8D4201344C7F8D43047
:1023300097F8D130022B0ED1D7F89830013BC7F86F
:102340009830D7F898302D221A70D7F8D43001334E
:10235000C7F8D43023E097F8D130002B1CD097F881
:10236000CC30002B03D197F8CD30002B14D0D7F808
:102370009830013BC7F89830D7F8983097F8CC20C0
:10238000002A01D02B2200E020221A70D7F8D43086
:102390000133C7F8D43002E0002387F8D13030236E
:1023A00087F8D230E5E500BFBB681B78002B7FF4CF
:1023B00088ABD7F89C301846D837BD4680BD00BFE3
:1023C0000800000080B483B000AF7860114B59F86A
:1023D00003301B681F2B15DC0E4B59F803301B68AC
:1023E0000D4A59F8022011467A6841F82320094B1A
:1023F00059F803301B680133064A59F8022013606C
:10240000002301E04FF0FF3318460C37BD465DF85E
:10241000047B7047100000000C00000090B583B0F2
:1024200000AF7860094B59F803301C687868FDF7F5
:102430007BFE06E0013C064B59F8033053F824308C
:102440009847002CF6D17868FEF77EFF1000000058
:102450000C00000080B485B000AF78600023FB6002
:102460000023BB6002E07B6801337B607B681B78E4
:10247000202BF8D07B681B78093B042BF3D97B68B1
:102480001B782B2B04D02D2B05D14FF0FF33BB60D5
:102490007B6801337B600DE0FA6813469B001344B0
:1024A0005B001A467B681B781344303BFB607B68FB
:1024B00001337B607B681B78303B092BECD9BB6810
:1024C000002B02D0FB685B4200E0FB681846143723
:1024D000BD465DF8047B704780B582B000AF786080
:1024E00039603B6823F4805323F00F03002B10D096
:1024F0003B68B3F5805F04D93B6841F20402934224
:1025000007D900F029F80246162313604FF0FF3375
:102510001EE03B68002B06D17B681B6843F000423D
:102520007B681A6013E07B681B6823F000427B68BD
:102530001A607B689B6823F4805323F00F037A684A
:1025400093607B689A683B681A437B689A600023B3
:1025500018460837BD4680BD80B400AF034B59F81C
:1025600003301846BD465DF8047B704764000000E8
:1025700080B584B000AF7860264B59F803301B68F3
:10258000002B02D07B68002B01D100233DE078684E
:1025900000F028FAB8600023FB602BE01D4B59F8CF
:1025A00003301A68FB689B0013441B68184679685F
:1025B000BA6800F097F80346002B18D1154B59F86C
:1025C00003301A68FB689B0013441A68BB68134405
:1025D0001B783D2B0BD10F4B59F803301A68FB6861
:1025E0009B0013441A68BB68013313440DE0FB6879
:1025F0000133FB60074B59F803301A68FB689B00F6
:1026000013441B68002BC9D1002318461037BD4660
:1026100080BD00BF8000000080B483B000AF786050
:102620007B6843F02003613B192B03D97B68303B67
:10263000092B01D8012300E0002318460C37BD46C2
:102640005DF8047B704700BF80B58EB000AF786046
:10265000FFF782FF03461B687B6307F10C03786872
:1026600045F201411A46FDF7DBFE0346002B0CBF85
:1026700001230023DBB23B63FFF76EFF02467B6B57
:1026800013603B6B18463837BD4680BD80B483B0BD
:1026900000AF78607B68093B042B02D97B68202B54
:1026A00001D1012300E0002318460C37BD465DF838
:1026B000047B704780B483B000AF78607B68303BA8
:1026C000092B05D97B6843F02003613B052B01D81A
:1026D000012300E0002318460C37BD465DF8047B5B
:1026E000704700BFF0B484B000AFF860B9607A60A2
:1026F000FC68BD687B6801337B600AE023781A467A
:102700002B78D61A3346002B01D0334608E001342B
:1027100001357B68013B7B607B68002BEED1002399
:1027200018461037BD46F0BC704700BF80B48BB070
:1027300000AFF860B9607A60FB683B610023BB6161
:1027400000237B61FA68BB68534003F00303002B4E
:1027500040D17B68042B3DD9FB68033323F003028F
:10276000FB68D31AFB61FB69002B20D0FB687B62FE
:10277000BB683B6207E07B6A5A1C7A623A6A511C6A
:10278000396212781A70FB695A1EFA61002B04D064
:102790007B685A1E7A60002BEDD17B68B3F1FF3F56
:1027A00001D13B6936E07B6AFB603B6ABB60FB683A
:1027B000BB61BB687B610AE0BB691A1DBA617A69BB
:1027C000111D796112681A607B68043B7B607B682D
:1027D000032BF1D87B68002B1BD0BB69002B01D0E9
:1027E000BB6900E0FB687B62BB69002B01D07B69A1
:1027F00000E0BB683B6207E07B6A5A1C7A623A6A77
:10280000511C396212781A707B685A1E7A60002B4C
:10281000F2D13B6918462C37BD465DF8047B704702
:1028200080B487B000AFF860B9607A60FB687B6104
:10283000BB683B61BA68FB689A422AD0BA68FB68F9
:102840009A420ED907E07B695A1C7A613A69511C99
:10285000396112781A707B685A1E7A60002BF2D1A7
:1028600017E07B68013B7A6913447B617B68013B1D
:102870003A6913443B6107E07B695A1E7A613A6901
:10288000511E396112781A707B685A1E7A60002BCB
:10289000F2D1FB6818461C37BD465DF8047B7047D3
:1028A00090B484B000AFF860B9607A60FC687B686F
:1028B00001337B6004E023465C1CBA68D2B21A7014
:1028C0007B68013B7B607B68002BF4D1FB6818467A
:1028D0001037BD4690BC704780B582B000AF7860BD
:1028E0007B68002B10D0786800F07CF8034602204B
:1028F00079681A46FEF76EF80220104B59F803303B
:1029000019460222FEF766F80D4B59F803301846B7
:1029100000F068F802460220094B59F803301946C6
:10292000FEF758F80220074B59F8033019460122E8
:10293000FEF750F80837BD4680BD00BF1400000008
:10294000940000001800000080B582B000AF7860ED
:1029500039607B680022C3F828213B68002B11D026
:102960007B6803F59673002000211A4600F010F8EA
:102970000346002B0CBF01230023DBB21A467B6801
:10298000C3F82821002318460837BD4680BD00BF84
:1029900080B584B000AFF860B9607A60F868B96853
:1029A0007A680823FDF776FE034618461037BD46C1
:1029B00080BD00BF80B584B000AF78607B68BB602D
:1029C0000023FB6007F1080207F1080310461946CF
:1029D000FDF7E8FDBB681A467B689B1A184610375E
:1029E000BD4680BD90B484B000AF78607B68FB606A
:1029F0007B68002B0CBF01230023DBB2002B01D02E
:102A0000002358E02E4B59F803301B68002B0BD0E5
:102A1000002403E001347B6801337B607B681B7812
:102A2000002BF7D1234646E00AE0FB681B78002B19
:102A300003D1FA687B68D31A3DE0FB680133FB6081
:102A4000FB6803F00303002BEFD1FB681B68BB603E
:102A5000FB680433FB604FF00132BB689A1ABB6815
:102A6000DB431340BB604FF00133DB01BA68134016
:102A7000BB60BB68002B0CBF01230023DBB2002B23
:102A8000E3D1BB685A1E4FF001339B021340BB6079
:102A9000BB681A02BB681B041344BA681344BB60CA
:102AA000BB689B0EFA681344FB6000BFFB68043BE5
:102AB0001A467B68D31A18461037BD4690BC70473B
:102AC0006C00000080B586B000AF7860396038686F
:102AD000FFF788FF38617868FFF784FFF8603B698B
:102AE000002B00D119E03A69FB689A4201D9002312
:102AF0001FE0FA683B69D31A01337B6115E07B68FC
:102B00001A783B681B789A4209D1786839683A6923
:102B1000FFF7E8FD0346002B01D17B6809E07B68E5
:102B200001337B607B69013B7B617B69002BE6D1D4
:102B3000002318461837BD4680BD00BF80B588B059
:102B400000AFF860B9607A600023FB61FB68BB618D
:102B500002E0FB680133FB60FB681B781846FFF757
:102B600095FD0346002BF4D1FB681B782D2B0ED16D
:102B7000FB6801331B781846FFF74EFD0346002B18
:102B800005D04FF0FF33FB61FB680133FB60F86851
:102B9000B9687A6800F036F87861BB68002B07D016
:102BA000BB681A68FB689A4202D1BB68BA691A60AE
:102BB0007B69002B1BDA7B69B3F1004F09D1FB69FC
:102BC000002B06D0FFF7C8FC0246002313607B6988
:102BD00014E0FFF7C1FC024622231360FB69002BBF
:102BE00002D04FF0004309E06FF0004306E0FB69BC
:102BF000002B02D07B695B4200E07B6918462037DE
:102C0000BD4680BDB0B58AB000AFF860B9607A60EB
:102C100000237B6200233B620023FB61FB68BB61F6
:102C200002E0BB690133BB61BB691B781846FFF743
:102C30002DFD0346002BF4D1BB691B782D2B05D14C
:102C400001237B62BB690133BB6106E0BB691B7872
:102C50002B2B02D1BB690133BB61BB697B617B68F4
:102C6000102B04D1BB691B78302B00D11AE07B6894
:102C7000002B11D07B68023B1C46222C8CBF012309
:102C80000023DBB2002B06D0FFF766FC02461623BA
:102C9000136000238BE020E0BB691B78302B1AD136
:102CA00008237B60BB6901331B78782B04D0BB6998
:102CB00001331B78582B10D1BB6902331B7818469F
:102CC000FFF7F8FC0346002B07D0BB690233BB615A
:102CD00010237B603CE00A237B6039E0BB691C78F1
:102CE000602C03D9A4F15703DBB20CE0402C03D9CC
:102CF000A4F13703DBB206E0392C03D8A4F130038A
:102D0000DBB200E0FF231C4622467B689A42ACBF40
:102D100001230023DBB2002B00D01DE0FB69DBB2F6
:102D20007A6802FB03F322469D18FB691B0A7A6846
:102D300002FB03F22B0AD418B4F1807F01D30123E4
:102D40003B622202EBB21344FB61BB690133BB61FE
:102D5000BB691B78002BC1D1BA697B699A420CBF51
:102D600001230023DBB2002B08D0FB68BB61FFF717
:102D7000F3FB0246162313600023FB61BB68002BA4
:102D800002D0BB68BA691A603B6A002B07D0FFF714
:102D9000E3FB0246222313604FF0FF3307E07B6A18
:102DA000002B02D0FB695B4200E0FB6900BF1846C4
:102DB0002837BD46B0BD00BF80B582B000AF786097
:102DC0003960786845F20B413A68FDF729FB034604
:102DD00018460837BD4680BD80B582B000AF786028
:102DE0003960786845F201413A68FDF719FB0346FE
:102DF00018460837BD4680BD80B584B000AFF86086
:102E0000B9607A60BB68022B0AD8BB6803F5A84397
:102E10000233F86819467A68FDF702FB034606E0BC
:102E2000FFF79AFB0246162313604FF0FF33184654
:102E30001037BD4680BD00BF80B487B000AF78605A
:102E400000237B610023FB601AE07B681B68032B77
:102E500007D17B6804331B687B61FB68002B0CD0B7
:102E600012E07B681B68052B07D17B6804331B6865
:102E7000FB607B69002B00D006E07B6808337B6039
:102E80007B681B68002BE0D17B69002B02D0FB68BC
:102E9000002B00D141E000233B613AE03B695B013C
:102EA0007A6913441B68072B30D13B695B017A694F
:102EB00013449B681A461B4B59F803301A603B6950
:102EC0005B017A6913441B69174A59F802201360A1
:102ED0003B695B017A6913445B69144A59F8022023
:102EE0001360124B59F803301B6803F00F03002BDB
:102EF0000BD00E4B59F803301B680F3323F00F0330
:102F00000A4A59F80220136007E006E03B690133E2
:102F10003B613A69FB689A42C0D31C37BD465DF8F5
:102F2000047B704750000000540000008C0000003B
:102F300080B582B000AF78607B687A681A607B6881
:102F400000225A607B6800229A607B680022DA6067
:102F5000054B59F803301A687B685A617868FDF7A9
:102F6000C9F80837BD4680BD7C00000080B483B03E
:102F700000AF786039600BE07B681A683B689A4262
:102F800003D17B6804331B6807E07B6808337B60F0
:102F90007B681B68002BEFD1002318460C37BD4619
:102FA0005DF8047B704700BF90B58BB000AFF86050
:102FB000B9607A607B687B6107F114033B6202E0D1
:102FC0007B6904337B617B691B68002BF8D17B69CB
:102FD00004337B617B69714A59F8022013607B6975
:102FE00018461921FFF7C2FF38626D4B59F80330BC
:102FF0001846396A0422FFF799FB7B69184621219C
:10300000FFF7B4FF0246674B59F803301A607B693B
:103010001846FFF711FF644B59F803301B681C3347
:103020001B2B94BF01230023DBB2002B1AD15E4B74
:1030300059F803301B68B3F1005F8CBF01230023F4
:10304000DBB2002B0ED1584B59F803301A68574B9E
:1030500059F803301B689A4234BF01230023DBB2C6
:10306000002B01D06F2395E04F4B59F803301B68BC
:103070001C3307330733DB08DB00ADEB030D6B4676
:103080000733DB08DB00FB61494B59F803301A6852
:10309000464B59F803301B68F86911461A46FFF78A
:1030A00045FB424B59F803301B68FA69D1183E4B77
:1030B00059F803301A683D4B59F803301B68D31A8E
:1030C000084600211A46FFF7EBFB374B59F803304F
:1030D0001B68FA691344374A59F802201360354BCC
:1030E00059F803301B681846FFF722FF314B59F897
:1030F00003301C687B6918462021FFF737FF034621
:1031000023612D4B59F803301846FFF731FAB861A7
:10311000BB69002B0BD0B869284B59F8033019460E
:10312000FFF7D0FC0346002B01D0012300E0002371
:10313000234A59F802201360BB681B68214A59F8DA
:10314000022013601F4B59F803301B681E4A59F8C0
:10315000022013601C4B59F803301B687B620CE0A3
:103160007B6A1B782F2B05D17B6A0133164A59F8ED
:10317000022013607B6A01337B627B6A1B78002B21
:10318000EED1F868B9687A6800F0A8FA03461846E4
:10319000FFF744F918462C37BD4690BD1C000000CF
:1031A0007C000000740000008C000000540000004F
:1031B000500000007000000020000000240000000B
:1031C0006C000000A80000008400000080B584B0FE
:1031D00000AF78603960094B59F803301A463B68F4
:1031E00013607B681A687B6804331046194600F048
:1031F00075FAF860F868FFF711F900BF8800000061
:1032000080B485B000AF03460A46FB8013467B714D
:10321000FB88FB607B7943F48073BB60FB685B00D9
:10322000FB60BB685B00BB60BB6803F48073002B72
:1032300002D0FB680133FB60FB6803F48033002B92
:1032400005D0FB6883F4815383F00103FB60BB6806
:1032500003F48033002BE1D0FB689BB2184614378F
:10326000BD465DF8047B704780B584B000AF7860E0
:1032700039600023FB607A683B681344BB600BE055
:10328000FB6899B27B685A1C7A601B78084619461D
:10329000FFF7B6FF0346FB607A68BB689A42EFD33C
:1032A000FB689BB218460021FFF7AAFF0346FB60AC
:1032B000FB689BB218460021FFF7A2FF0346FB60A4
:1032C000FB689BB218461037BD4680BD80B592B0F2
:1032D00000AF786039600023FB6300237B63002329
:1032E0003B63786842214FF4D272FDF763F978624C
:1032F0007B6A002B08DAF74B59F803301846FFF7C2
:10330000EBFA4FF0FF33E0E100BF07F10A03386842
:10331000194600F019FB0346002BF6DC002387F862
:1033200023300023BB6300237B64FB6B012B05D19F
:1033300000BF786AFCF75CFF0023C6E17B6C032BBF
:10334000F3D802A252F823301A44104711000000AB
:1033500031010000D90200006F03000007F10B03E8
:103360003868194600F0F0FA38613B6913F10B0F29
:1033700007D10220FFF71EFB3868432100F09CFABA
:10338000ECE7FB7A012B02D0FB7A022BE6D13868FE
:1033900000F0F4FA0346BB72BB7A002B02D04FF068
:1033A000FF3392E1386800F0E9FA0346BB72BB7A5A
:1033B000FF2B02D04FF0FF3387E10023FB6216E0C2
:1033C000FB6AC54A59F802201A44FB6AC3F180031C
:1033D000386811461A4600F09BFAF860FB6813F152
:1033E0000B0F00D103E0FA6AFB681344FB62FB6A2F
:1033F0007F2BE5DDB84B59F8033018468021FFF7E5
:1034000033FF03467B83386800F0B8FA03469BB26B
:103410001B023B83386800F0B1FA03469AB23B8B3B
:1034200013433B833A8B7B8B9A4204D03868152137
:1034300000F042FA92E73868062100F03DFA0123D5
:103440007B64A54B59F803301846FFF7CBFA0346C7
:103450000133A14A59F8022013441846FEF7FAFF37
:103460007863786A01217A6BFCF7DAFF38684321C8
:1034700000F022FA012387F8233025E1386800F0B4
:103480007DFA0346FB72FB7A013B172B51D802A24F
:1034900052F823301A441047950000008D000000B8
:1034A0009B000000610000009B0000009B000000EA
:1034B0009B0000009B0000009B0000009B000000A0
:1034C0009B0000009B0000009B0000009B00000090
:1034D0009B0000009B0000009B0000009B00000080
:1034E0009B0000009B0000009B0000009B00000070
:1034F0009B0000009B0000003B6B01333B633B6B78
:10350000012B04D13868152100F0D6F9DCE03B6BC3
:10351000022B06D102237B643868062100F0CCF927
:1035200008E007E04FF48063BB6303E08023BB63E4
:1035300000E000BF7B6C022B00D1C5E0386800F0D2
:103540001DFA0346BB72386800F018FA0346BB72D6
:103550000023BB6216E0BB6A5F4A59F802201A4496
:10356000BB6AC3F18003386811461A4600F0D0F9EF
:10357000F861FB6913F10B0F00D103E0BA6AFB6934
:103580001344BB62BB6A7F2BE5DD534B59F8033014
:1035900018468021FFF768FE03467B83386800F0F9
:1035A000EDF903469BB21B023B83386800F0E6F955
:1035B00003469AB23B8B13433B833A8B7B8B9A42F5
:1035C0000ED000BF07F10A033868194600F0BCF9B5
:1035D0000346002BF6DC3868152100F06DF973E026
:1035E0007A6BBB6B9A420DDA7A6B786A3A4B59F870
:1035F00003301946FDF7EEF978617A6B7B69D31ACF
:103600007B630AE0786A344B59F80330194680220C
:10361000FDF7E0F97B6B803B7B633868062100F0A7
:103620004BF951E03868432100F046F9386800F062
:10363000A5F90346FB72FB7A022B04D0182B09D0A4
:10364000012B04D007E04FF48063BB6303E08023C9
:10365000BB6300E000BF386800F090F90346BB721E
:10366000386800F08BF90346BB7200233B640FE01F
:10367000386800F083F903461946174B59F80330B0
:103680001A463B6C13440A461A703B6C01333B6488
:103690003A6CBB6B9A42EBDB386800F06FF903467B
:1036A000BB72386800F06AF90346BB7238680621BD
:1036B00000F002F903237B6406E038684F2100F034
:1036C000FBF80123FB6300BF2FE618464837BD46D1
:1036D00080BD00BF2C0000002800000080B586B02F
:1036E00000AF786039607B68022B02DC4FF0FF335B
:1036F00038E03B689B687B6100233B611B4B59F8BA
:10370000033018467969FEF78FF8194B59F80330E2
:10371000184640F60201FCF74DFFF860FB68002BED
:1037200008DA144B59F803301846FFF7D5F8012092
:10373000FEF774FEF86800F047F90346002B02DA42
:10374000F868FCF755FD7869F968FFF7BFFD386147
:10375000F86800F08DF9084B59F803301846FEF769
:1037600063F8002318461837BD4680BD30000000BE
:1037700034000000380000003C00000080B48DB030
:1037800000AF78603960474B59F803307B62464B95
:1037900059F803303B62454B59F80330FB61002375
:1037A000FB627B6ABB622EE0FB6A9B007A68134473
:1037B0001A687B6A9A4210D3FB6A9B007A681344AA
:1037C0001A687B6AD31ABB61FB6A9B007A68134450
:1037D0007968BA690A441A600FE0FB6A9B007A684C
:1037E00013441A68FB69D31ABB61FB6A9B007A68B1
:1037F0001344B9693A680A441A60BB6A0433BB626D
:10380000FB6A0133FB62BA6A3B6A9A42CCD3284B0B
:1038100059F803307B61274B59F803303B61002393
:10382000FB627B69BB6233E0FB6A01339B007A6910
:1038300013441B68172B25D1FB6A9B007A6913443C
:103840001A687B6AD31ABB617A68BB691344FB6050
:10385000FB681A687B6A9A420AD3FB681A687B6A1B
:10386000D31ABB617A68BB691A44FB681A6009E025
:10387000FB681A68FB69D31ABB61BA693B681A44D2
:10388000FB681A60BB6A0833BB62FB6A0233FB62E7
:103890003A69BB6A9A42C7D800BF3437BD465DF863
:1038A000047B7047AC0000005C000000600000007A
:1038B0009C0000006800000080B584B000AF786014
:1038C0000B46FB700023FB60FB1C78681946012245
:1038D000FDF780F8F860FB68002B11DAFEF73CFE7C
:1038E00003461B680B2B00D1EEE7FEF735FE0346BF
:1038F0001A68064B59F8033018461146FDF794FF35
:10390000FB6818461037BD4680BD00BF4000000070
:1039100080B586B000AFF860B9607A607B68F868FF
:10392000B9681A46FCF77EFE78617B69002B05DAE0
:10393000FEF712FE03461B685B427B617B691846FB
:103940001837BD4680BD00BF80B584B000AF786039
:103950003960786839680122FCF764FEF860FB681A
:10396000002B05DAFEF7F8FD03461B685B42FB609F
:10397000FB6818461037BD4680BD00BF80B584B0D7
:1039800000AF78600023FB6007F10B0378681946ED
:103990000122FCF747FEF860FB68002B0CDAFEF70B
:1039A000DBFD03461B680B2B00D1EDE7054B59F8F7
:1039B00003301846FEF790FFFB7A18461037BD46D5
:1039C00080BD00BF44000000B0B58CB000AF78608F
:1039D0007868254B59F803301946FFF7FDF97868E8
:1039E0000221FFF7E9F9204B59F8033007F10C04E5
:1039F0001D460FCD0FC40FCD0FC42B68236007F1F8
:103A00000C03184641F20201FEF766FDBB6923F084
:103A10000203BB61BB6923F40043BB61BB6923F0B4
:103A20000103BB61BB6923F00803BB610023FB609A
:103A300000233B6107F10C03786800211A46FFF769
:103A4000DBF90346B3F1FF3F08D1084B59F80330C7
:103A50001846FEF741FF4FF0FF3300E00023184601
:103A60003037BD46B0BD00BF480000004C0000002C
:103A700080B582B000AF7860786800210A4B59F8B1
:103A800003301A46FFF7B8F90346B3F1FF3F05D1FB
:103A9000064B59F803301846FEF71EFF7868FCF70E
:103AA000A7FB0837BD4680BD480000004C00000061
:103AB0005B756E6B6E6F776E206572726F725D00F4
:103AC00020202020202020202020202020202020F6
:103AD00030303030303030303030303030303030E6
:103AE000286E756C6C2900003A2000000A00000066
:103AF0004C445F5052454C4F4144000076616C6726
:103B000072696E64000000006F70656E282920667F
:103B1000696C6500726563762066696C65206973FF
:103B200020252E0A000000002F6465762F7474791A
:103B3000300000006F70656E28290000796D6F6499
:103B4000656D20656E642E0A00000000777269744E
:103B500065282920696E207075745F63686172281A
:103B6000292C206572726E6F3A25640A00000000ED
:103B700072656164282920696E206765745F6368D7
:103B800061722829000000007463736574617474A5
:103B9000722829004044000017000000584400002B
:0C3BA0001700000078440000170000002F
:103BAC002F7573722F6C69622F6C642E736F2E31AC
:013BBC000008
:103BC00000000000000000000000000000000000F5
:103BD00000000000000000000000000003000100E1
:103BE0000000000058430000000000000300070030
:103BF0000100000000010000000000000000F1FFD3
:103C00000A010000204C00000000000000000A0033
:103C100035010000745900000000000000000A0097
:103C200052000000745900000000000000000A006B
:103C300041010000044800000400000011000A00D7
:103C40004B00000058430000000000001000070077
:103C50009A00000058430000000000001000070018
:103C60004C010000084800000400000011000A0098
:103C70005801000078440000040000001100070013
:103C8000B70000000844000000000000100007001A
:103C900014000000000000000000000010000100FF
:103CA0005F010000004700000400000021000A003E
:103CB00031000000AC3B00000000000010000100DB
:103CC00065010000AC5800000400000011000A006B
:103CD000700100000C4800000400000011000A0000
:103CE000ED000000004600000000000010000A0087
:103CF00081010000104800000400000011000A00CB
:103D00003D000000584300000000000010000700C4
:103D100088010000551300000C0000001200010093
:103D200099010000004600000400000021000A0084
:103D3000D000000000040000000000001000F1FFAF
:103D4000C30000007C4400000000000010000700D9
:103D50008D0000001C160000000000001000F1FFA4
:103D6000A1010000144800000400000011000A0036
:103D7000BF010000B45800000400000011000A0058
:103D8000D2010000184800000400000011000A00E1
:103D9000FB000000204800000000000010000A00A6
:103DA000DE00000000040000000000001000F1FF31
:103DB000DD01000040440000040000001100070085
:103DC00057000000584300000000000010000700EA
:103DD000E4010000B03A00001000000011000100F2
:103DE000F6010000DD1400003800000012000100A0
:103DF00023000000943B00000000000010000100C0
:103E0000730000005843000000000000100007008D
:103E100003020000205000000400000011000A000E
:103E200012020000004800000400000011000A0017
:103E30001F0200001C4800000400000011000A00DE
:103E400027010000205000000000000010000A00C0
:103E500017010000204C00000000000010000A00C4
:103E6000A9000000584300000000000010000700F7
:103E7000005F73797374656D5F737461636B5F73F7
:103E8000697A65005F5F746578745F7374617274DA
:103E90005F5F005F5F72656C5F73746172745F5F18
:103EA000005F5F72656C5F656E645F5F005F5F659A
:103EB000786469785F7374617274005F5F657864B9
:103EC00069785F656E64005F5F7065726D697373BA
:103ED000696F6E735F7461626C655F737461727435
:103EE0005F5F005F5F7065726D697373696F6E739A
:103EF0005F7461626C655F656E645F5F005F5F72D7
:103F0000616D5F73697A655F5F005F5F64617461B3
:103F10005F73746172745F5F005F5F676F745F737C
:103F2000746172745F5F005F5F676F745F656E647A
:103F30005F5F005F5F646174615F656E645F5F0017
:103F40005F5F686561705F73697A655F5F005F5F7F
:103F5000737461636B5F73697A655F5F005F5F6253
:103F600073735F73746172745F5F005F5F68656134
:103F7000705F73746172745F5F005F5F686561702A
:103F80005F656E645F5F005F5F737461636B5F7337
:103F9000746172745F5F005F5F737461636B5F6510
:103FA0006E645F5F005F5F6273735F656E645F5F27
:103FB000005F5F7464617461707472005F5F746449
:103FC00061746173697A65007374646F75740065F8
:103FD00072726E6F005F5F76616C6772696E64000B
:103FE0005F5F7463625F6D61696E7468726561645E
:103FF000005F5F7664736F005F5F737464696F5F07
:10400000666C757368616C6C00656E7669726F6E54
:104010000070726F6772616D5F696E766F63617455
:10402000696F6E5F73686F72745F6E616D65005F5C
:104030005F6170705F73746172745F616464725FFA
:104040005F005F5F746D656D73697A65007374649A
:10405000657272005F5F7379735F6572725F756E10
:104060006B6E6F776E005F5F737464696F5F6F75FF
:104070007473005F5F737464696F5F6174657869FE
:1040800074005F5F737464696F5F726F6F74007048
:10409000726F6772616D5F696E766F636174696F6D
:0740A0006E5F6E616D6500AB
:1040A800250000002B0000000E0000001500000095
:1040B80018000000000000001900000000000000C7
:1040C8002900000000000000000000002A00000095
:1040D8001100000008000000000000001D000000A2
:1040E800250000000D000000230000001C00000057
:1040F8000000000000000000000000002400000094
:10410800280000001A000000000000000300000062
:104118000000000014000000000000001000000073
:10412800210000001B000000090000000000000042
:1041380022000000170000000F000000000000002F
:104148000000000000000000000000000000000067
:10415800000000000500000000000000070000004B
:104168000000000006000000000000000000000041
:104178000000000000000000000000000B0000002C
:10418800000000000A00000000000000000000001D
:104198000000000000000000000000000000000017
:1041A80004000000000000001200000000000000F1
:1041B8000C000000000000001E00000000000000CD
:1041C80016000000200000000000000000000000B1
:1041D80013000000000000001F000000260000007F
:0841E8000000000027000000A8
:1041F00058430000170000005C4300001700000057
:104200006043000017000000644300001700000036
:1042100068430000170000006C4300001700000016
:1042200070430000170000007443000017000000F6
:1042300078430000170000007C43000017000000D6
:1042400080430000170000008443000017000000B6
:1042500088430000170000008C4300001700000096
:104260009043000017000000944300001700000076
:1042700098430000170000009C4300001700000056
:10428000A043000017000000A44300001700000036
:10429000A843000017000000AC4300001700000016
:1042A000B043000017000000B443000017000000F6
:1042B000B843000017000000BC43000017000000D6
:1042C000C043000017000000C443000017000000B6
:1042D000C843000017000000CC4300001700000096
:1042E000D043000017000000D44300001700000076
:1042F000D843000017000000DC4300001700000056
:10430000E043000017000000E44300001700000035
:10431000E843000017000000EC4300001700000015
:10432000F043000017000000F443000017000000F5
:10433000F843000017000000FC43000017000000D5
:1043400000440000170000000444000017000000B3
:084350005013000002160000EA
:1043580024500000C03A0000E03A0000285800004D
:10436800A8580000E83A0000EC3A0000B0580000F5
:10437800F03A0000FC3A0000B8580000083B000082
:10438800143B0000283B0000343B00003C3B00008D
:104398004C3B0000703B000050590000883B000077
:1043A8000448000008480000784400000844000061
:1043B8000000000000470000AC3B0000AC580000C3
:1043C8000C48000010480000551300000844000085
:1043D8000046000014480000B458000018480000C7
:1043E80040440000B03A0000DD140000943B000097
:1043F80020500000004800001C48000058430000FE
:1044080000FF0A0002000000100100000000000088
:104418000000000000000000000000000000000094
:104428000000000000000000000000000000000084
:1044380001000000000000000C4400000100000022
:104448002803000000000000000000000008000031
:1044580028500000000000000000000000000000DC
:104468000000000000000000010000000000000043
:0444780044440000B8
:10447C0004000000A840000005000000703E000091
:10448C0006000000C03B00000A00000037020000DC
:10449C000B000000100000001500000000000000E0
:1044AC0011000000F0410000120000006801000043
:1044BC0013000000080000001600000000000000BF
:1044CC00FAFFFF6F2C00000000000000000000004D
:1044DC0000000000000000000000000000000000D0
:1044EC0000000000000000000000000000000000C0
:0C44FC007C4400000000000000000000F4
:0400000300000001F8
:00000001FF
