:1000000084463DE000000000000000000000000009
:1000100000000000000000000000000000000000E0
:100020004D4B52544F532E20A80F00001C210000AE
:100030001C2900000008000000040000041E00004D
:10004000001F0000041E00005C1E00003C180000A1
:100050003C1800000000000000000000000000004C
:100060000000000000000000000000000000000090
:100070000000000000000000000000000000000080
:100080000021AFF2840222F0010216481044164B00
:10009000134403E0425849F80120043142189A42BF
:1000A000F8D34FF023300F49104AA2EB01024A4423
:1000B0000F4BA3EB01034B4401E042F8040B9A42BF
:1000C000FBD3604611B44846AFF2CC0121F00101E8
:1000D00001F068FBBDE80110AFF2DC0101F050FB5C
:1000E000FEE70000041E0000601E00001C29000046
:1000F0001C2D0000BC46024F00DF67467047000021
:1001000005000F0070BC00BF10F5805F00D300E059
:10011000F746C0F100012DE9024001F03DF9BDE8CC
:10012000024001606FF00000704700BF4FF0000315
:1001300000F048BCEC462DE970009CE8700080B5EA
:10014000DFF8887E80DFBDE88040FFF7DBBF00BFBF
:1001500080B5DFF87C7E80DFBDE88040FFF7D4BF4C
:1001600080B5DFF8707E80DFBDE88040FFF7CCBF50
:1001700080B5DFF8647E80DFBDE88040FFF7C4BF54
:1001800080B5DFF8587E80DFBDE88040FFF7BCBF58
:1001900080B5DFF84C7E80DFBDE88040FFF7B4BF5C
:1001A00080B5DFF8407E80DFBDE88040FFF7ACBF60
:1001B00080B5DFF8347E80DFBDE88040FFF7A4BF64
:1001C00080B5DFF8287E80DFBDE88040FFF79CBF68
:1001D00080B5DFF81C7E80DFBDE88040FFF794BF6C
:1001E00080B5DFF8107E80DFBDE88040FFF78CBF70
:1001F00080B5DFF8047E80DFBDE88040FFF784BF74
:1002000080B5DFF8F87D80DFBDE88040FFF77CBF78
:1002100080B5DFF8EC7D80DFBDE88040FFF774BF7C
:1002200080B5DFF8E07D80DFBDE88040FFF76CBF80
:1002300080B5DFF8D47D80DFBDE88040FFF764BF84
:1002400080B5DFF8C87D80DFBDE88040FFF75CBF88
:1002500080B5DFF8BC7D80DFBDE88040FFF754BF8C
:1002600080B5DFF8B07D80DFBDE88040FFF74CBF90
:1002700080B5DFF8A47D80DFBDE88040FFF744BF94
:1002800080B5DFF8987D80DFBDE88040FFF73CBF98
:1002900080B5DFF88C7D80DFBDE88040FFF734BF9C
:1002A00080B5DFF8807D80DFBDE88040FFF72CBFA0
:1002B00080B5DFF8747D80DFBDE88040FFF724BFA4
:1002C00080B5DFF8687D80DFBDE88040FFF71CBFA8
:1002D00080B5DFF85C7D80DFBDE88040FFF714BFAC
:1002E00080B5DFF8507D80DFBDE88040FFF70CBFB0
:1002F00080B5DFF8447D80DFBDE88040FFF704BFB4
:1003000080B5DFF8387D80DFBDE88040FFF7FCBEB8
:1003100080B5DFF82C7D80DFBDE88040FFF7F4BEBC
:1003200080B5DFF8207D80DFBDE88040FFF7ECBEC0
:1003300080B5DFF8147D80DFBDE88040FFF7E4BEC4
:1003400080B5DFF8087D80DFBDE88040FFF7DCBEC8
:1003500080B5DFF8FC7C80DFBDE88040FFF7D4BECD
:1003600080B5DFF8F07C80DFBDE88040FFF7CCBED1
:1003700080B5DFF8E47C80DFBDE88040FFF7C4BED5
:1003800080B5DFF8D87C80DFBDE88040FFF7BCBED9
:1003900080B5DFF8CC7C80DFBDE88040FFF7B4BEDD
:1003A00080B5DFF8C07C80DFBDE88040FFF7ACBEE1
:1003B00080B5DFF8B47C80DFBDE88040FFF7A4BEE5
:1003C00080B5DFF8A87C80DFBDE88040FFF79CBEE9
:1003D00080B5DFF89C7C80DFBDE88040FFF794BEED
:1003E00080B5DFF8907C80DFBDE88040FFF78CBEF1
:1003F00080B5DFF8847C80DFBDE88040FFF784BEF5
:1004000080B5DFF8787C80DFBDE88040FFF77CBEF8
:1004100080B5DFF86C7C80DFBDE88040FFF774BEFC
:1004200080B5DFF8607C80DFBDE88040FFF76CBE00
:1004300080B5DFF8547C80DFBDE88040FFF764BE04
:1004400080B5DFF8487C80DFBDE88040FFF75CBE08
:1004500080B5DFF83C7C80DFBDE88040FFF754BE0C
:10046000EC462DE970009CE8700080B5DFF8247C34
:1004700080DFBDE88040FFF745BE00BF80B5DFF8F4
:10048000187C80DFBDE88040FFF73EBE80B5DFF816
:100490000C7C80DFBDE88040FFF736BE80B5DFF81A
:1004A000007C80DFBDE88040FFF72EBE80B5DFF81E
:1004B000F47B80DFBDE88040FFF726BE80B5DFF823
:1004C000E87B80DFBDE88040FFF71EBE80B5DFF827
:1004D000DC7B80DFBDE88040FFF716BE80B5DFF82B
:1004E000D07B80DFBDE88040FFF70EBEEC462DE9F3
:1004F00070009CE8700080B5DFF8B87B80DFBDE855
:100500008040FFF7FFBD00BFEC462DE970009CE87E
:10051000700080B5DFF8A07B80DFBDE88040FFF78A
:10052000F1BD00BF80B5DFF8947B80DFBDE880407F
:10053000FFF7EABD80B5DFF8887B80DFBDE880404B
:10054000FFF7E2BD80B5DFF87C7B80DFBDE880404F
:10055000FFF7DABD80B5DFF8707B80DFBDE8804053
:10056000FFF7D2BD80B5DFF8647B80DFBDE8804057
:10057000FFF7CABD80B5DFF8587B80DFBDE880405B
:10058000FFF7C2BD80B5DFF84C7B80DFBDE880405F
:10059000FFF7BABD80B5DFF8407B80DFBDE8804063
:1005A000FFF7B2BD80B5DFF8347B80DFBDE8804067
:1005B000FFF7AABD80B5DFF8287B80DFBDE880406B
:1005C000FFF7A2BD80B5DFF81C7B80DFBDE880406F
:1005D000FFF79ABD80B5DFF8107B80DFBDE8804073
:1005E000FFF792BD80B5DFF8047B80DFBDE8804077
:1005F000FFF78ABD80B5DFF8F87A80DFBDE880407C
:10060000FFF782BD80B5DFF8EC7A80DFBDE880407F
:10061000FFF77ABD80B5DFF8E07A80DFBDE8804083
:10062000FFF772BD80B5DFF8D47A80DFBDE8804087
:10063000FFF76ABD80B5DFF8C87A80DFBDE880408B
:10064000FFF762BD80B5DFF8BC7A80DFBDE880408F
:10065000FFF75ABD80B5DFF8B07A80DFBDE8804093
:10066000FFF752BD80B5DFF8A47A80DFBDE8804097
:10067000FFF74ABD80B5DFF8987A80DFBDE880409B
:10068000FFF742BD80B5DFF88C7A80DFBDE880409F
:10069000FFF73ABD80B5DFF8807A80DFBDE88040A3
:1006A000FFF732BD80B5DFF8747A80DFBDE88040A7
:1006B000FFF72ABD80B5DFF8687A80DFBDE88040AB
:1006C000FFF722BD80B5DFF85C7A80DFBDE88040AF
:1006D000FFF71ABD80B5DFF8507A80DFBDE88040B3
:1006E000FFF712BD80B5DFF8447A80DFBDE88040B7
:1006F000FFF70ABD80B5DFF8387A80DFBDE88040BB
:10070000FFF702BD80B5DFF82C7A80DFBDE88040BE
:10071000FFF7FABC80B5DFF8207A80DFBDE88040C3
:10072000FFF7F2BC80B5DFF8147A80DFBDE88040C7
:10073000FFF7EABC80B5DFF8087A80DFBDE88040CB
:10074000FFF7E2BC80B5DFF8FC7980DFBDE88040D0
:10075000FFF7DABC80B5DFF8F07980DFBDE88040D4
:10076000FFF7D2BC80B5DFF8E47980DFBDE88040D8
:10077000FFF7CABC80B5DFF8D87980DFBDE88040DC
:10078000FFF7C2BC80B5DFF8CC7980DFBDE88040E0
:10079000FFF7BABC80B5DFF8C07980DFBDE88040E4
:1007A000FFF7B2BC80B5DFF8B47980DFBDE88040E8
:1007B000FFF7AABC80B5DFF8A87980DFBDE88040EC
:1007C000FFF7A2BC80B5DFF89C7980DFBDE88040F0
:1007D000FFF79ABC80B5DFF8907980DFBDE88040F4
:1007E000FFF792BC80B5DFF8847980DFBDE88040F8
:1007F000FFF78ABC80B5DFF8787980DFBDE88040FC
:10080000FFF782BC80B5DFF86C7980DFBDE88040FF
:10081000FFF77ABC80B5DFF8607980DFBDE8804003
:10082000FFF772BC80B5DFF8547980DFBDE8804007
:10083000FFF76ABC80B5DFF8487980DFBDE880400B
:10084000FFF762BC80B5DFF83C7980DFBDE880400F
:10085000FFF75ABC80B5DFF8307980DFBDE8804013
:10086000FFF752BC80B5DFF8247980DFBDE8804017
:10087000FFF74ABC80B5DFF8187980DFBDE880401B
:10088000FFF742BC80B5DFF80C7980DFBDE880401F
:10089000FFF73ABC80B5DFF8007980DFBDE8804023
:1008A000FFF732BC80B5DFF8F47880DFBDE8804028
:1008B000FFF72ABC80B5DFF8E87880DFBDE880402C
:1008C000FFF722BC80B5DFF8DC7880DFBDE8804030
:1008D000FFF71ABC80B5DFF8D07880DFBDE8804034
:1008E000FFF712BC80B5DFF8C47880DFBDE8804038
:1008F000FFF70ABC80B5DFF8B87880DFBDE880403C
:10090000FFF702BC80B5DFF8AC7880DFBDE880403F
:10091000FFF7FABB80B5DFF8A07880DFBDE8804044
:10092000FFF7F2BB80B5DFF8947880DFBDE8804048
:10093000FFF7EABB80B5DFF8887880DFBDE880404C
:10094000FFF7E2BB80B5DFF87C7880DFBDE8804050
:10095000FFF7DABB80B5DFF8707880DFBDE8804054
:10096000FFF7D2BB80B5DFF8647880DFBDE8804058
:10097000FFF7CABB80B5DFF8587880DFBDE880405C
:10098000FFF7C2BB80B5DFF84C7880DFBDE8804060
:10099000FFF7BABB80B5DFF8407880DFBDE8804064
:1009A000FFF7B2BB80B5DFF8347880DFBDE8804068
:1009B000FFF7AABB80B5DFF8287880DFBDE880406C
:1009C000FFF7A2BB80B5DFF81C7880DFBDE8804070
:1009D000FFF79ABB80B5DFF8107880DFBDE8804074
:1009E000FFF792BB80B5DFF8047880DFBDE8804078
:1009F000FFF78ABB80B5DFF8F87780DFBDE880407D
:100A0000FFF782BB80B5DFF8EC7780DFBDE8804080
:100A1000FFF77ABB80B5DFF8E07780DFBDE8804084
:100A2000FFF772BB80B5DFF8D47780DFBDE8804088
:100A3000FFF76ABB80B5DFF8C87780DFBDE880408C
:100A4000FFF762BB80B5DFF8BC7780DFBDE8804090
:100A5000FFF75ABB80B5DFF8B07780DFBDE8804094
:100A6000FFF752BB80B5DFF8A47780DFBDE8804098
:100A7000FFF74ABB80B5DFF8987780DFBDE880409C
:100A8000FFF742BB80B5DFF88C7780DFBDE88040A0
:100A9000FFF73ABB80B5DFF8807780DFBDE88040A4
:100AA000FFF732BB80B5DFF8747780DFBDE88040A8
:100AB000FFF72ABB80B5DFF8687780DFBDE88040AC
:100AC000FFF722BB80B5DFF85C7780DFBDE88040B0
:100AD000FFF71ABB80B5DFF8507780DFBDE88040B4
:100AE000FFF712BB80B5DFF8447780DFBDE88040B8
:100AF000FFF70ABB80B5DFF8387780DFBDE88040BC
:100B0000FFF702BB80B5DFF82C7780DFBDE88040BF
:100B1000FFF7FABA80B5DFF8207780DFBDE88040C4
:100B2000FFF7F2BA80B5DFF8147780DFBDE88040C8
:100B3000FFF7EABA80B5DFF8087780DFBDE88040CC
:100B4000FFF7E2BA80B5DFF8FC7680DFBDE88040D1
:100B5000FFF7DABA80B5DFF8F07680DFBDE88040D5
:100B6000FFF7D2BA80B5DFF8E47680DFBDE88040D9
:100B7000FFF7CABA80B5DFF8D87680DFBDE88040DD
:100B8000FFF7C2BA80B5DFF8CC7680DFBDE88040E1
:100B9000FFF7BABA80B5DFF8C07680DFBDE88040E5
:100BA000FFF7B2BA80B5DFF8B47680DFBDE88040E9
:100BB000FFF7AABA80B5DFF8A87680DFBDE88040ED
:100BC000FFF7A2BA80B5DFF89C7680DFBDE88040F1
:100BD000FFF79ABA80B5DFF8907680DFBDE88040F5
:100BE000FFF792BA80B5DFF8847680DFBDE88040F9
:100BF000FFF78ABA80B5DFF8787680DFBDE88040FD
:100C0000FFF782BA80B5DFF86C7680DFBDE8804000
:100C1000FFF77ABA80B5DFF8607680DFBDE8804004
:100C2000FFF772BA80B5DFF8547680DFBDE8804008
:100C3000FFF76ABA80B5DFF8487680DFBDE880400C
:100C4000FFF762BA80B5DFF83C7680DFBDE8804010
:100C5000FFF75ABA80B5DFF8307680DFBDE8804014
:100C6000FFF752BAEC462DE970009CE8700080B5A1
:100C7000DFF8187680DFBDE88040FFF743BA00BF99
:100C800080B5DFF80C7680DFBDE88040FFF73CBA26
:100C900080B5DFF8007680DFBDE88040FFF734BA2A
:100CA00080B5DFF8F47580DFBDE88040FFF72CBA2F
:100CB00080B5DFF8E87580DFBDE88040FFF724BA33
:100CC00080B5DFF8DC7580DFBDE88040FFF71CBA37
:100CD00080B5DFF8D07580DFBDE88040FFF714BA3B
:100CE00080B5DFF8C47580DFBDE88040FFF70CBA3F
:100CF000EC462DE970009CE8700080B5DFF8AC751B
:100D000080DFBDE88040FFF7FDB900BF80B5DFF8A8
:100D1000A07580DFBDE88040FFF7F6B980B5DFF849
:100D2000947580DFBDE88040FFF7EEB980B5DFF84D
:100D3000887580DFBDE88040FFF7E6B980B5DFF851
:100D40007C7580DFBDE88040FFF7DEB980B5DFF855
:100D5000707580DFBDE88040FFF7D6B980B5DFF859
:100D6000647580DFBDE88040FFF7CEB9EC462DE921
:100D700070009CE8700080B5DFF84C7580DFBDE83E
:100D80008040FFF7BFB900BFEC462DE970009CE83A
:100D9000700080B5DFF8347580DFBDE88040FFF774
:100DA000B1B900BF80B5DFF8287580DFBDE88040AD
:100DB000FFF7AAB980B5DFF81C7580DFBDE8804079
:100DC000FFF7A2B9EC462DE970009CE8700080B5F1
:100DD000DFF8047580DFBDE88040FFF793B900BFFE
:100DE00080B5DFF8F87480DFBDE88040FFF78CB98C
:100DF000EC462DE970009CE8700080B5DFF8E074E7
:100E000080DFBDE88040FFF77DB900BF80B5DFF827
:100E1000D47480DFBDE88040FFF776B980B5DFF895
:100E2000C87480DFBDE88040FFF76EB980B5DFF899
:100E3000BC7480DFBDE88040FFF766B980B5DFF89D
:100E4000B07480DFBDE88040FFF75EB980B5DFF8A1
:100E5000A47480DFBDE88040FFF756B980B5DFF8A5
:100E6000987480DFBDE88040FFF74EB980B5DFF8A9
:100E70008C7480DFBDE88040FFF746B980B5DFF8AD
:100E8000807480DFBDE88040FFF73EB9EC462DE975
:100E900070009CE8700080B5DFF8687480DFBDE802
:100EA0008040FFF72FB900BFEC462DE970009CE8A9
:100EB000700080B5DFF8507480DFBDE88040FFF738
:100EC00021B900BFEC462DE970009CE8700080B5A8
:100ED000DFF8387480DFBDE88040FFF713B900BF4A
:100EE00080B5DFF82C7480DFBDE88040FFF70CB9D7
:100EF00080B5DFF8207480DFBDE88040FFF704B9DB
:100F000080B5DFF8147480DFBDE88040FFF7FCB8DF
:100F100080B5DFF8087480DFBDE88040FFF7F4B8E3
:100F200080B5FF4F80DFBDE88040FFF7EDB800BF20
:100F300080B5FC4F80DFBDE88040FFF7E5B800BF1B
:100F400080B5F94F80DFBDE88040FFF7DDB800BF16
:100F500080B5F64F80DFBDE88040FFF7D5B800BF11
:100F600080B5F34F80DFBDE88040FFF7CDB800BF0C
:100F700080B5F04F80DFBDE88040FFF7C5B800BF07
:100F800001DF78468EEA0E00874600BF80B5EA4F43
:100F900080DFBDE88040FFF7B7B800BF8446080097
:100FA00008BF0120BCE8F00F5CF8042B95465CF804
:100FB00004FB00BF4FF000016A46A0E8F00FA0E874
:100FC0000440A0F1280000F069BA00008E00000083
:100FD000B4000000B500000058000000210000002F
:100FE0007C0000002D0000000C0000000F0000003D
:100FF000B60000003D0000000600000029000000CF
:101000003F0000000B000000850000005E000000B3
:101010005F000000370000008F00000002000000A9
:101020006C000000C50000006400000076000000B5
:101030005D000000B70000008D000000D900000036
:1010400032000000310000002F00000050000000BE
:10105000690000008400000014000000400000004F
:1010600060000000AB000000A5000000BF00000011
:101070004D000000930000004E0000004F000000F3
:1010800018000000360000002500000010000000DD
:10109000090000008C000000130000006B0000003D
:1010A000C4000000270000000E00000096000000B1
:1010B00098000000C0000000150000007D00000046
:1010C000A3000000990000005B0000004300000046
:1010D000490000007E00000048000000A20000005F
:1010E000050000001D000000880000002A0000002C
:1010F000A800000080000000810000000300000044
:1011000055000000910000002600000028000000AB
:10111000AE000000B0000000AF000000B200000010
:10112000B3000000B1000000F2000000F100000078
:101130009F000000A00000009B0000009D00000038
:10114000A10000009A0000009C0000009E0000002A
:10115000BB000000EF000000790000008B000000E1
:101160008A0000002E000000510000004A0000002C
:101170006800000039000000610000004700000026
:10118000AA000000A4000000460000004B00000080
:101190004200000017000000BA0000006A000000D2
:1011A000C30000006300000073000000570000004F
:1011B00053000000240000009500000074000000AF
:1011C00067000000870000002B0000005C000000AA
:1011D0003C000000340000007A0000000A0000001B
:1011E0006F00000072000000040000009200000088
:1011F00090000000B8000000B9000000D40000001A
:10120000CF000000CA000000C9000000C8000000B4
:10121000CD000000D3000000C7000000C6000000A1
:10122000D8000000D7000000D6000000CC0000006D
:10123000D2000000CB000000D50000001A00000022
:10124000C2000000C10000003E000000FA000000E3
:10125000FB000000FC000000DD00000001010000B8
:10126000020100000301000004010000050100006C
:10127000060100000701000008010000090100004C
:101280001701000016010000120100001501000006
:1012900014010000130100000A0100000B0100000E
:1012A000EE0000000C010000000100004101000000
:1012B000AD000000E0000000FD000000E1000000C3
:1012C00083000000DB0000003F010000400100003F
:1012D000F000000039010000360100003701000075
:1012E00035010000F6000000F3000000F5000000EA
:1012F000F4000000F70000003E0100003C01000087
:101300003D010000E2000000E3000000E4000000F6
:10131000EB000000EC000000ED000000E800000021
:10132000E9000000EA000000E5000000E60000001F
:10133000E70000008B010000780000004FF0000B78
:10134000009801A9DFF81CC001EB800202F1040241
:10135000CCF8002000F02EF900F006F84FF001075D
:1013600080DF00BF0000000038B5094B054659F882
:1013700003301C68FEF7D8FE3CB1064B013C59F81F
:10138000033053F824309847F6E72846FFF7E6FF86
:101390000000000004000000034B82B059F8033045
:1013A0001846019302B0704724000000F8B50F4BB7
:1013B000064659F803301C68ACB198B100F084F8C7
:1013C0000546271F57F8044F6CB1204631462A4680
:1013D00000F00EF80028F5D1635D3D2BF2D1013508
:1013E0002C4400E004462046F8BD00BF3C0000004D
:1013F00010B50A44441E914206D014F8013F087803
:10140000181A02D10131F6E7002010BD81EA00036D
:1014100070B59D0734D1042A32D9C31C23F00303CD
:101420001B1A0ED0044603449C4207D02AB111F87F
:10143000015B013A04F8015BF6E770BD541C01D171
:1014400070BD03460D461E1F541B0C44032C04D9CB
:1014500055F8044B46F8044FF6E722F0030412F067
:10146000030203EB04050C440FD05DB1013D22449F
:10147000944204D014F8013B05F8013FF8E770BD31
:101480001AB103460C461D46F0E770BD0346024400
:10149000934202D003F8011BFAE7704710B50446E7
:1014A0000020C4F8280149B1014604F5967200F005
:1014B00007F8B0FA80F04009C4F82801002010BDF8
:1014C0000823FFF7E7B80000174B014659F803302F
:1014D0001B680BB9034606E00346581A13F8012BA4
:1014E000002AFAD170479A07184605D002780133CE
:1014F000002AF8D1401A704750F8043BA3F101329A
:1015000022EA030313F08033F6D0013B03F00433E7
:1015100023F004031A0402EB032213449B0E043B42
:101520000344581A704700BF2C0000002DE9F04119
:10153000044608468846FFF7C7FF07462046FFF7E0
:10154000C3FFCFB1874214D82646451CED1B254466
:10155000AE4234460DD0227898F8003001369A42D7
:10156000F6D1204641463A46FFF742FF0028EFD128
:1015700002E00020BDE8F0812046BDE8F08103686C
:101580002BB18B4201D1406870470830F7E718460D
:101590007047000003460022186042608260C2600B
:1015A000034A59F8022012684261FEF7A3BD00BF4A
:1015B000380000002DE9F04D134680460D461646D2
:1015C00082B000AF9A46DAF800B00433BBF1000FE6
:1015D000F8D11C465E4B192159F8033020461C6097
:1015E000FFF7CDFF5B4B014659F803300422184644
:1015F0007B60FFF70BFF21212046FFF7C0FF564B12
:10160000594659F803300AF10C0218605B4652F84B
:10161000080C60B1032803D152F8043C29B18DE0D5
:10162000052802D152F8041C13B90832EFE70BB3B6
:1016300001B30022184653F820EBBEF1070F16D174
:10164000464B826859F803301A60454B026959F8D5
:1016500003301A604369434A13F00F0F18BF0F336A
:1016600059F8022018BF23F00F03136002E0013283
:101670008A42DFD13B4B59F803A0DAF80030B3F1CE
:10168000005F5FD8364A59F802207A6012689342A8
:1016900058D332492A3323F0070359F80110ADEB30
:1016A000030D09686846FFF7B1FE7B68DAF8002091
:1016B0001B680021D21A0DEB0300FFF7E7FE2A4B4F
:1016C000DAF8000059F803A06844CAF80000FFF7F0
:1016D00061FF20462021FFF752FFDAF800A0234BDC
:1016E000CAF8100059F8033018467B60FFF75EFE19
:1016F00050B11F4B59F8033019467B60FFF716FFB6
:10170000003018BF0120FFE71A4B1B4A59F803307D
:10171000186059F802202B681360184A59F8022003
:10172000136013F8011B11B12F29FAD1F8E72946EC
:101730003246404600F034F8FFF716FE002B7FF4E7
:1017400078AF97E76F200837BD46BDE8F08D00BF42
:1017500010000000380000003400000014000000F9
:1017600018000000480000003000000008000000E1
:101770000C0000002C0000005000000040000000A1
:1017800008B50346054A59F8022011600068191D82
:1017900000F006F8BDE80840FFF7E6BD4400000091
:1017A00000207047F0B51B4B061F59F803401A4B39
:1017B000A64659F80320194B002759F803500EEBA1
:1017C000070393420AD256F8043F0437A3422BBFC3
:1017D0001B1B5B181B185B1B3360F0E7104B59F8A1
:1017E0000330104A083359F80220A3F10806964244
:1017F0000FD253F8042C172AF3D153F8087C061B98
:10180000F259A24236BFC5EB010E92197244F25151
:10181000E7E7F0BD540000001C00000020000000BD
:101820004C000000280000004C445F5052454C4FD3
:0C18300041440076616C6772696E6400D0
:10183C002F7573722F6C69622F6C642E736F2E313F
:01184C00009B
:101850000000000000000000000000000000000088
:101860000000000000000000000000000300010074
:1018700000000000041E000000000000030007003C
:101880000100000000010000000000000000F1FF66
:101890000A0100001C2900000000000000000A00EE
:1018A00035010000AC2D00000000000000000A001F
:1018B00052000000AC2D00000000000000000A00F3
:1018C00041010000002100000400000011000A0096
:1018D0004B000000041E0000000000001000070084
:1018E0009A000000041E0000000000001000070025
:1018F0004C010000042100000400000011000A0057
:10190000B70000005C1E000000000000100007008F
:1019100014000000000000000000000010000100A2
:1019200058010000002000000400000021000A000F
:10193000310000003C180000000000001000010011
:101940005E010000A42D00000400000011000A0048
:1019500069010000082100000400000011000A00D5
:10196000ED000000001F00000000000010000A0051
:101970007A0100000C2100000400000011000A00A0
:101980003D000000041E00000000000010000700E1
:1019900081010000001F00000400000021000A0077
:1019A000D000000000080000000000001000F1FF5F
:1019B000C3000000601E00000000000010000700CF
:1019C0008D000000A80F0000000000001000F1FFD3
:1019D00089010000102100000400000011000A002D
:1019E000A7010000A82D00000400000011000A005B
:1019F000BA010000142100000400000011000A00D8
:101A0000FB0000001C2100000000000010000A0084
:101A1000DE00000000040000000000001000F1FFE4
:101A200057000000041E0000000000001000070026
:101A3000230000003C18000000000000100001001E
:101A400073000000041E00000000000010000700EA
:101A5000C5010000182100000400000011000A0068
:101A6000270100001C2D00000000000010000A00EB
:101A7000170100001C2900000000000010000A00EF
:101A8000A9000000041E0000000000001000070074
:101A9000005F73797374656D5F737461636B5F73FB
:101AA000697A65005F5F746578745F7374617274DE
:101AB0005F5F005F5F72656C5F73746172745F5F1C
:101AC000005F5F72656C5F656E645F5F005F5F659E
:101AD000786469785F7374617274005F5F657864BD
:101AE00069785F656E64005F5F7065726D697373BE
:101AF000696F6E735F7461626C655F737461727439
:101B00005F5F005F5F7065726D697373696F6E739D
:101B10005F7461626C655F656E645F5F005F5F72DA
:101B2000616D5F73697A655F5F005F5F64617461B7
:101B30005F73746172745F5F005F5F676F745F7380
:101B4000746172745F5F005F5F676F745F656E647E
:101B50005F5F005F5F646174615F656E645F5F001B
:101B60005F5F686561705F73697A655F5F005F5F83
:101B7000737461636B5F73697A655F5F005F5F6257
:101B800073735F73746172745F5F005F5F68656138
:101B9000705F73746172745F5F005F5F686561702E
:101BA0005F656E645F5F005F5F737461636B5F733B
:101BB000746172745F5F005F5F737461636B5F6514
:101BC0006E645F5F005F5F6273735F656E645F5F2B
:101BD000005F5F7464617461707472005F5F74644D
:101BE00061746173697A65006572726E6F005F5F20
:101BF00076616C6772696E64005F5F7463625F6DCB
:101C000061696E746872656164005F5F7664736FAA
:101C100000656E7669726F6E0070726F6772616DCB
:101C20005F696E766F636174696F6E5F73686F7200
:101C3000745F6E616D65005F5F6170705F7374618A
:101C400072745F616464725F5F005F5F746D656D85
:101C500073697A650070726F6772616D5F696E7625
:0D1C60006F636174696F6E5F6E616D65008A
:101C700011000000240000001300000022000000FA
:101C80000300000010000000210000001800000008
:101C9000230000001F0000000B0000000C000000EB
:101CA00020000000190000001500000006000000E0
:101CB000170000001D0000000A00000000000000E6
:101CC0000000000000000000000000000000000014
:101CD0000000000000000000000000000000000004
:101CE00000000000080000000000000000000000EC
:101CF00000000000000000000000000007000000DD
:101D000000000000090000000D00000000000000BD
:101D10001200000005000000000000001600000096
:101D2000000000000400000000000000140000009B
:101D30001A0000000E0000000F000000110000005B
:0C1D40001E0000001B0000001C00000042
:101D4C00041E000017000000081E00001700000011
:101D5C000C1E000017000000101E000017000000F1
:101D6C00141E000017000000181E000017000000D1
:101D7C001C1E000017000000201E000017000000B1
:101D8C00241E000017000000281E00001700000091
:101D9C002C1E000017000000301E00001700000071
:101DAC00341E000017000000381E00001700000051
:101DBC003C1E000017000000401E00001700000031
:101DCC00441E000017000000481E00001700000011
:101DDC004C1E000017000000501E000017000000F1
:101DEC00541E000017000000581E000017000000D1
:081DFC00641300000214000052
:101E04001C2D0000202D00002818000033180000AD
:101E1400A02D000000210000042100005C1E000031
:101E240000000000002000003C180000A42D000069
:101E3400082100000C2100005C1E0000001F0000AF
:101E440010210000A82D0000142100003C180000FF
:0C1E540018210000041E000000FF0A001E
:101E600004000000701C000005000000901A000033
:101E700006000000501800000A000000DD0100000C
:101E80000B00000010000000150000000000000022
:101E9000110000004C1D000012000000B8000000FE
:101EA0001300000008000000160000000000000001
:101EB000FAFFFF6F160000000000000000000000A5
:101EC0000000000000000000000000000000000012
:101ED0000000000000000000000000000000000002
:0C1EE000601E0000000000000000000078
:0400000300000001F8
:00000001FF
