:1000000084463DE000000000000000000000000009
:1000100000000000000000000000000000000000E0
:100020004D4B52544F532E20741B0000B43F000020
:10003000B44F00000010000000040000403A00002F
:10004000003D0000403A0000843B00008430000086
:10005000BC300000000000000000000000000000B4
:100060000000000000000000000000000000000090
:100070000000000000000000000000000000000080
:100080000021AFF2840222F0010216481044164B00
:10009000134403E0425849F80120043142189A42BF
:1000A000F8D34FF023300F49104AA2EB01024A4423
:1000B0000F4BA3EB01034B4401E042F8040B9A42BF
:1000C000FBD3604611B44846AFF2CC0121F00101E8
:1000D00002F0F0FEBDE80110AFF2DC0101F0D0FD4E
:1000E000FEE70000403A0000C83B0000B44F0000AB
:1000F000B4530000BC46024F00DF67467047000063
:1001000005000F0070BC00BF10F5805F00D300E059
:10011000F746C0F100012DE9024001F0F9F9BDE810
:10012000024001606FF00000704700BF4FF0000315
:1001300000F048BCEC462DE970009CE8700080B5EA
:10014000DFF8887E80DFBDE88040FFF7DBBF00BFBF
:1001500080B5DFF87C7E80DFBDE88040FFF7D4BF4C
:1001600080B5DFF8707E80DFBDE88040FFF7CCBF50
:1001700080B5DFF8647E80DFBDE88040FFF7C4BF54
:1001800080B5DFF8587E80DFBDE88040FFF7BCBF58
:1001900080B5DFF84C7E80DFBDE88040FFF7B4BF5C
:1001A00080B5DFF8407E80DFBDE88040FFF7ACBF60
:1001B00080B5DFF8347E80DFBDE88040FFF7A4BF64
:1001C00080B5DFF8287E80DFBDE88040FFF79CBF68
:1001D00080B5DFF81C7E80DFBDE88040FFF794BF6C
:1001E00080B5DFF8107E80DFBDE88040FFF78CBF70
:1001F00080B5DFF8047E80DFBDE88040FFF784BF74
:1002000080B5DFF8F87D80DFBDE88040FFF77CBF78
:1002100080B5DFF8EC7D80DFBDE88040FFF774BF7C
:1002200080B5DFF8E07D80DFBDE88040FFF76CBF80
:1002300080B5DFF8D47D80DFBDE88040FFF764BF84
:1002400080B5DFF8C87D80DFBDE88040FFF75CBF88
:1002500080B5DFF8BC7D80DFBDE88040FFF754BF8C
:1002600080B5DFF8B07D80DFBDE88040FFF74CBF90
:1002700080B5DFF8A47D80DFBDE88040FFF744BF94
:1002800080B5DFF8987D80DFBDE88040FFF73CBF98
:1002900080B5DFF88C7D80DFBDE88040FFF734BF9C
:1002A00080B5DFF8807D80DFBDE88040FFF72CBFA0
:1002B00080B5DFF8747D80DFBDE88040FFF724BFA4
:1002C00080B5DFF8687D80DFBDE88040FFF71CBFA8
:1002D00080B5DFF85C7D80DFBDE88040FFF714BFAC
:1002E00080B5DFF8507D80DFBDE88040FFF70CBFB0
:1002F00080B5DFF8447D80DFBDE88040FFF704BFB4
:1003000080B5DFF8387D80DFBDE88040FFF7FCBEB8
:1003100080B5DFF82C7D80DFBDE88040FFF7F4BEBC
:1003200080B5DFF8207D80DFBDE88040FFF7ECBEC0
:1003300080B5DFF8147D80DFBDE88040FFF7E4BEC4
:1003400080B5DFF8087D80DFBDE88040FFF7DCBEC8
:1003500080B5DFF8FC7C80DFBDE88040FFF7D4BECD
:1003600080B5DFF8F07C80DFBDE88040FFF7CCBED1
:1003700080B5DFF8E47C80DFBDE88040FFF7C4BED5
:1003800080B5DFF8D87C80DFBDE88040FFF7BCBED9
:1003900080B5DFF8CC7C80DFBDE88040FFF7B4BEDD
:1003A00080B5DFF8C07C80DFBDE88040FFF7ACBEE1
:1003B00080B5DFF8B47C80DFBDE88040FFF7A4BEE5
:1003C00080B5DFF8A87C80DFBDE88040FFF79CBEE9
:1003D00080B5DFF89C7C80DFBDE88040FFF794BEED
:1003E00080B5DFF8907C80DFBDE88040FFF78CBEF1
:1003F00080B5DFF8847C80DFBDE88040FFF784BEF5
:1004000080B5DFF8787C80DFBDE88040FFF77CBEF8
:1004100080B5DFF86C7C80DFBDE88040FFF774BEFC
:1004200080B5DFF8607C80DFBDE88040FFF76CBE00
:1004300080B5DFF8547C80DFBDE88040FFF764BE04
:1004400080B5DFF8487C80DFBDE88040FFF75CBE08
:1004500080B5DFF83C7C80DFBDE88040FFF754BE0C
:10046000EC462DE970009CE8700080B5DFF8247C34
:1004700080DFBDE88040FFF745BE00BF80B5DFF8F4
:10048000187C80DFBDE88040FFF73EBE80B5DFF816
:100490000C7C80DFBDE88040FFF736BE80B5DFF81A
:1004A000007C80DFBDE88040FFF72EBE80B5DFF81E
:1004B000F47B80DFBDE88040FFF726BE80B5DFF823
:1004C000E87B80DFBDE88040FFF71EBE80B5DFF827
:1004D000DC7B80DFBDE88040FFF716BE80B5DFF82B
:1004E000D07B80DFBDE88040FFF70EBEEC462DE9F3
:1004F00070009CE8700080B5DFF8B87B80DFBDE855
:100500008040FFF7FFBD00BFEC462DE970009CE87E
:10051000700080B5DFF8A07B80DFBDE88040FFF78A
:10052000F1BD00BF80B5DFF8947B80DFBDE880407F
:10053000FFF7EABD80B5DFF8887B80DFBDE880404B
:10054000FFF7E2BD80B5DFF87C7B80DFBDE880404F
:10055000FFF7DABD80B5DFF8707B80DFBDE8804053
:10056000FFF7D2BD80B5DFF8647B80DFBDE8804057
:10057000FFF7CABD80B5DFF8587B80DFBDE880405B
:10058000FFF7C2BD80B5DFF84C7B80DFBDE880405F
:10059000FFF7BABD80B5DFF8407B80DFBDE8804063
:1005A000FFF7B2BD80B5DFF8347B80DFBDE8804067
:1005B000FFF7AABD80B5DFF8287B80DFBDE880406B
:1005C000FFF7A2BD80B5DFF81C7B80DFBDE880406F
:1005D000FFF79ABD80B5DFF8107B80DFBDE8804073
:1005E000FFF792BD80B5DFF8047B80DFBDE8804077
:1005F000FFF78ABD80B5DFF8F87A80DFBDE880407C
:10060000FFF782BD80B5DFF8EC7A80DFBDE880407F
:10061000FFF77ABD80B5DFF8E07A80DFBDE8804083
:10062000FFF772BD80B5DFF8D47A80DFBDE8804087
:10063000FFF76ABD80B5DFF8C87A80DFBDE880408B
:10064000FFF762BD80B5DFF8BC7A80DFBDE880408F
:10065000FFF75ABD80B5DFF8B07A80DFBDE8804093
:10066000FFF752BD80B5DFF8A47A80DFBDE8804097
:10067000FFF74ABD80B5DFF8987A80DFBDE880409B
:10068000FFF742BD80B5DFF88C7A80DFBDE880409F
:10069000FFF73ABD80B5DFF8807A80DFBDE88040A3
:1006A000FFF732BD80B5DFF8747A80DFBDE88040A7
:1006B000FFF72ABD80B5DFF8687A80DFBDE88040AB
:1006C000FFF722BD80B5DFF85C7A80DFBDE88040AF
:1006D000FFF71ABD80B5DFF8507A80DFBDE88040B3
:1006E000FFF712BD80B5DFF8447A80DFBDE88040B7
:1006F000FFF70ABD80B5DFF8387A80DFBDE88040BB
:10070000FFF702BD80B5DFF82C7A80DFBDE88040BE
:10071000FFF7FABC80B5DFF8207A80DFBDE88040C3
:10072000FFF7F2BC80B5DFF8147A80DFBDE88040C7
:10073000FFF7EABC80B5DFF8087A80DFBDE88040CB
:10074000FFF7E2BC80B5DFF8FC7980DFBDE88040D0
:10075000FFF7DABC80B5DFF8F07980DFBDE88040D4
:10076000FFF7D2BC80B5DFF8E47980DFBDE88040D8
:10077000FFF7CABC80B5DFF8D87980DFBDE88040DC
:10078000FFF7C2BC80B5DFF8CC7980DFBDE88040E0
:10079000FFF7BABC80B5DFF8C07980DFBDE88040E4
:1007A000FFF7B2BC80B5DFF8B47980DFBDE88040E8
:1007B000FFF7AABC80B5DFF8A87980DFBDE88040EC
:1007C000FFF7A2BC80B5DFF89C7980DFBDE88040F0
:1007D000FFF79ABC80B5DFF8907980DFBDE88040F4
:1007E000FFF792BC80B5DFF8847980DFBDE88040F8
:1007F000FFF78ABC80B5DFF8787980DFBDE88040FC
:10080000FFF782BC80B5DFF86C7980DFBDE88040FF
:10081000FFF77ABC80B5DFF8607980DFBDE8804003
:10082000FFF772BC80B5DFF8547980DFBDE8804007
:10083000FFF76ABC80B5DFF8487980DFBDE880400B
:10084000FFF762BC80B5DFF83C7980DFBDE880400F
:10085000FFF75ABC80B5DFF8307980DFBDE8804013
:10086000FFF752BC80B5DFF8247980DFBDE8804017
:10087000FFF74ABC80B5DFF8187980DFBDE880401B
:10088000FFF742BC80B5DFF80C7980DFBDE880401F
:10089000FFF73ABC80B5DFF8007980DFBDE8804023
:1008A000FFF732BC80B5DFF8F47880DFBDE8804028
:1008B000FFF72ABC80B5DFF8E87880DFBDE880402C
:1008C000FFF722BC80B5DFF8DC7880DFBDE8804030
:1008D000FFF71ABC80B5DFF8D07880DFBDE8804034
:1008E000FFF712BC80B5DFF8C47880DFBDE8804038
:1008F000FFF70ABC80B5DFF8B87880DFBDE880403C
:10090000FFF702BC80B5DFF8AC7880DFBDE880403F
:10091000FFF7FABB80B5DFF8A07880DFBDE8804044
:10092000FFF7F2BB80B5DFF8947880DFBDE8804048
:10093000FFF7EABB80B5DFF8887880DFBDE880404C
:10094000FFF7E2BB80B5DFF87C7880DFBDE8804050
:10095000FFF7DABB80B5DFF8707880DFBDE8804054
:10096000FFF7D2BB80B5DFF8647880DFBDE8804058
:10097000FFF7CABB80B5DFF8587880DFBDE880405C
:10098000FFF7C2BB80B5DFF84C7880DFBDE8804060
:10099000FFF7BABB80B5DFF8407880DFBDE8804064
:1009A000FFF7B2BB80B5DFF8347880DFBDE8804068
:1009B000FFF7AABB80B5DFF8287880DFBDE880406C
:1009C000FFF7A2BB80B5DFF81C7880DFBDE8804070
:1009D000FFF79ABB80B5DFF8107880DFBDE8804074
:1009E000FFF792BB80B5DFF8047880DFBDE8804078
:1009F000FFF78ABB80B5DFF8F87780DFBDE880407D
:100A0000FFF782BB80B5DFF8EC7780DFBDE8804080
:100A1000FFF77ABB80B5DFF8E07780DFBDE8804084
:100A2000FFF772BB80B5DFF8D47780DFBDE8804088
:100A3000FFF76ABB80B5DFF8C87780DFBDE880408C
:100A4000FFF762BB80B5DFF8BC7780DFBDE8804090
:100A5000FFF75ABB80B5DFF8B07780DFBDE8804094
:100A6000FFF752BB80B5DFF8A47780DFBDE8804098
:100A7000FFF74ABB80B5DFF8987780DFBDE880409C
:100A8000FFF742BB80B5DFF88C7780DFBDE88040A0
:100A9000FFF73ABB80B5DFF8807780DFBDE88040A4
:100AA000FFF732BB80B5DFF8747780DFBDE88040A8
:100AB000FFF72ABB80B5DFF8687780DFBDE88040AC
:100AC000FFF722BB80B5DFF85C7780DFBDE88040B0
:100AD000FFF71ABB80B5DFF8507780DFBDE88040B4
:100AE000FFF712BB80B5DFF8447780DFBDE88040B8
:100AF000FFF70ABB80B5DFF8387780DFBDE88040BC
:100B0000FFF702BB80B5DFF82C7780DFBDE88040BF
:100B1000FFF7FABA80B5DFF8207780DFBDE88040C4
:100B2000FFF7F2BA80B5DFF8147780DFBDE88040C8
:100B3000FFF7EABA80B5DFF8087780DFBDE88040CC
:100B4000FFF7E2BA80B5DFF8FC7680DFBDE88040D1
:100B5000FFF7DABA80B5DFF8F07680DFBDE88040D5
:100B6000FFF7D2BA80B5DFF8E47680DFBDE88040D9
:100B7000FFF7CABA80B5DFF8D87680DFBDE88040DD
:100B8000FFF7C2BA80B5DFF8CC7680DFBDE88040E1
:100B9000FFF7BABA80B5DFF8C07680DFBDE88040E5
:100BA000FFF7B2BA80B5DFF8B47680DFBDE88040E9
:100BB000FFF7AABA80B5DFF8A87680DFBDE88040ED
:100BC000FFF7A2BA80B5DFF89C7680DFBDE88040F1
:100BD000FFF79ABA80B5DFF8907680DFBDE88040F5
:100BE000FFF792BA80B5DFF8847680DFBDE88040F9
:100BF000FFF78ABA80B5DFF8787680DFBDE88040FD
:100C0000FFF782BA80B5DFF86C7680DFBDE8804000
:100C1000FFF77ABA80B5DFF8607680DFBDE8804004
:100C2000FFF772BA80B5DFF8547680DFBDE8804008
:100C3000FFF76ABA80B5DFF8487680DFBDE880400C
:100C4000FFF762BA80B5DFF83C7680DFBDE8804010
:100C5000FFF75ABA80B5DFF8307680DFBDE8804014
:100C6000FFF752BAEC462DE970009CE8700080B5A1
:100C7000DFF8187680DFBDE88040FFF743BA00BF99
:100C800080B5DFF80C7680DFBDE88040FFF73CBA26
:100C900080B5DFF8007680DFBDE88040FFF734BA2A
:100CA00080B5DFF8F47580DFBDE88040FFF72CBA2F
:100CB00080B5DFF8E87580DFBDE88040FFF724BA33
:100CC00080B5DFF8DC7580DFBDE88040FFF71CBA37
:100CD00080B5DFF8D07580DFBDE88040FFF714BA3B
:100CE00080B5DFF8C47580DFBDE88040FFF70CBA3F
:100CF000EC462DE970009CE8700080B5DFF8AC751B
:100D000080DFBDE88040FFF7FDB900BF80B5DFF8A8
:100D1000A07580DFBDE88040FFF7F6B980B5DFF849
:100D2000947580DFBDE88040FFF7EEB980B5DFF84D
:100D3000887580DFBDE88040FFF7E6B980B5DFF851
:100D40007C7580DFBDE88040FFF7DEB980B5DFF855
:100D5000707580DFBDE88040FFF7D6B980B5DFF859
:100D6000647580DFBDE88040FFF7CEB9EC462DE921
:100D700070009CE8700080B5DFF84C7580DFBDE83E
:100D80008040FFF7BFB900BFEC462DE970009CE83A
:100D9000700080B5DFF8347580DFBDE88040FFF774
:100DA000B1B900BF80B5DFF8287580DFBDE88040AD
:100DB000FFF7AAB980B5DFF81C7580DFBDE8804079
:100DC000FFF7A2B9EC462DE970009CE8700080B5F1
:100DD000DFF8047580DFBDE88040FFF793B900BFFE
:100DE00080B5DFF8F87480DFBDE88040FFF78CB98C
:100DF000EC462DE970009CE8700080B5DFF8E074E7
:100E000080DFBDE88040FFF77DB900BF80B5DFF827
:100E1000D47480DFBDE88040FFF776B980B5DFF895
:100E2000C87480DFBDE88040FFF76EB980B5DFF899
:100E3000BC7480DFBDE88040FFF766B980B5DFF89D
:100E4000B07480DFBDE88040FFF75EB980B5DFF8A1
:100E5000A47480DFBDE88040FFF756B980B5DFF8A5
:100E6000987480DFBDE88040FFF74EB980B5DFF8A9
:100E70008C7480DFBDE88040FFF746B980B5DFF8AD
:100E8000807480DFBDE88040FFF73EB9EC462DE975
:100E900070009CE8700080B5DFF8687480DFBDE802
:100EA0008040FFF72FB900BFEC462DE970009CE8A9
:100EB000700080B5DFF8507480DFBDE88040FFF738
:100EC00021B900BFEC462DE970009CE8700080B5A8
:100ED000DFF8387480DFBDE88040FFF713B900BF4A
:100EE00080B5DFF82C7480DFBDE88040FFF70CB9D7
:100EF00080B5DFF8207480DFBDE88040FFF704B9DB
:100F000080B5DFF8147480DFBDE88040FFF7FCB8DF
:100F100080B5DFF8087480DFBDE88040FFF7F4B8E3
:100F200080B5FF4F80DFBDE88040FFF7EDB800BF20
:100F300080B5FC4F80DFBDE88040FFF7E5B800BF1B
:100F400080B5F94F80DFBDE88040FFF7DDB800BF16
:100F500080B5F64F80DFBDE88040FFF7D5B800BF11
:100F600080B5F34F80DFBDE88040FFF7CDB800BF0C
:100F700080B5F04F80DFBDE88040FFF7C5B800BF07
:100F800001DF78468EEA0E00874600BF80B5EA4F43
:100F900080DFBDE88040FFF7B7B800BF8446080097
:100FA00008BF0120BCE8F00F5CF8042B95465CF804
:100FB00004FB00BF4FF000016A46A0E8F00FA0E874
:100FC0000440A0F1280000F084BC00008E00000066
:100FD000B4000000B500000058000000210000002F
:100FE0007C0000002D0000000C0000000F0000003D
:100FF000B60000003D0000000600000029000000CF
:101000003F0000000B000000850000005E000000B3
:101010005F000000370000008F00000002000000A9
:101020006C000000C50000006400000076000000B5
:101030005D000000B70000008D000000D900000036
:1010400032000000310000002F00000050000000BE
:10105000690000008400000014000000400000004F
:1010600060000000AB000000A5000000BF00000011
:101070004D000000930000004E0000004F000000F3
:1010800018000000360000002500000010000000DD
:10109000090000008C000000130000006B0000003D
:1010A000C4000000270000000E00000096000000B1
:1010B00098000000C0000000150000007D00000046
:1010C000A3000000990000005B0000004300000046
:1010D000490000007E00000048000000A20000005F
:1010E000050000001D000000880000002A0000002C
:1010F000A800000080000000810000000300000044
:1011000055000000910000002600000028000000AB
:10111000AE000000B0000000AF000000B200000010
:10112000B3000000B1000000F2000000F100000078
:101130009F000000A00000009B0000009D00000038
:10114000A10000009A0000009C0000009E0000002A
:10115000BB000000EF000000790000008B000000E1
:101160008A0000002E000000510000004A0000002C
:101170006800000039000000610000004700000026
:10118000AA000000A4000000460000004B00000080
:101190004200000017000000BA0000006A000000D2
:1011A000C30000006300000073000000570000004F
:1011B00053000000240000009500000074000000AF
:1011C00067000000870000002B0000005C000000AA
:1011D0003C000000340000007A0000000A0000001B
:1011E0006F00000072000000040000009200000088
:1011F00090000000B8000000B9000000D40000001A
:10120000CF000000CA000000C9000000C8000000B4
:10121000CD000000D3000000C7000000C6000000A1
:10122000D8000000D7000000D6000000CC0000006D
:10123000D2000000CB000000D50000001A00000022
:10124000C2000000C10000003E000000FA000000E3
:10125000FB000000FC000000DD00000001010000B8
:10126000020100000301000004010000050100006C
:10127000060100000701000008010000090100004C
:101280001701000016010000120100001501000006
:1012900014010000130100000A0100000B0100000E
:1012A000EE0000000C010000000100004101000000
:1012B000AD000000E0000000FD000000E1000000C3
:1012C00083000000DB0000003F010000400100003F
:1012D000F000000039010000360100003701000075
:1012E00035010000F6000000F3000000F5000000EA
:1012F000F4000000F70000003E0100003C01000087
:101300003D010000E2000000E3000000E4000000F6
:10131000EB000000EC000000ED000000E800000021
:10132000E9000000EA000000E5000000E60000001F
:10133000E70000008B010000780000004FF0000B78
:10134000009801A9DFF81CC001EB800202F1040241
:10135000CCF8002000F0AEFB00F0B4F84FF001072D
:1013600080DF00BF0000000070B5059C14F0FF0F87
:1013700005D1240A0594BDE87040FFF7B7B800F026
:10138000C7F86FF0150303604FF0FF3070BD13B561
:10139000044600216846FFF72BF80028BCBF4FF039
:1013A000FF330093009804B1206002B010BD0138F3
:1013B000C0F34603002013B15B080130FBE7704720
:1013C000F8B50546F8B150F8044CE4B1802CA0F112
:1013D000080612D82046FFF7EAFF074622463046A5
:1013E000002100F00FF9084B59F8033053F827207B
:1013F00043F8276045F8082CF8BD30462146BDE883
:10140000F840FFF7A7B8F8BD00000000F7B50446A4
:1014100000284DD0083007284AD9802834D8FFF753
:10142000C6FF022484402046FFF7C1FF244B064636
:1014300059F8035055F8200000BB4FF0FF330093DC
:10144000032201904FF4807122230746FFF78CFF9F
:10145000421C2DD04FF48073B3FBF4F3024645F8E1
:101460002600013B9F4204DA1119116001370A4638
:10147000F8E723EAE37363430022C250036845F8A8
:101480002630002303600EE004F2071434F0FF045A
:101490000ED04FF0FF33002000930190214603222D
:1014A0002223FFF761FF431C02D04460083004E0B0
:1014B00000F02EF80C230360002003B0F0BD00BF45
:1014C0000000000038B5094B054659F803301C6888
:1014D000FEF72AFE3CB1064B013C59F8033053F8A5
:1014E00024309847F6E72846FFF738FF040000004D
:1014F0000800000038B50446D0F8F400FEF778FE86
:1015000005464FF480712046FFF724F8284638BD81
:10151000034B82B059F803301846019302B070476C
:10152000E4000000F8B50F4B064659F803301C687C
:10153000ACB198B100F048FA0546271F57F8044FA0
:101540006CB1204631462A4600F00EF80028F5D14D
:10155000635D3D2BF2D101352C4400E0044620466A
:10156000F8BD00BF0801000010B50A44441E9142B6
:1015700006D014F8013F0878181A02D10131F6E7B5
:10158000002010BD81EA000370B59D0734D1042A04
:1015900032D9C31C23F003031B1A0ED004460344A4
:1015A0009C4207D02AB111F8015B013A04F8015BB3
:1015B000F6E770BD541C01D170BD03460D461E1FD9
:1015C000541B0C44032C04D955F8044B46F8044F23
:1015D000F6E722F0030412F0030203EB04050C44C7
:1015E0000FD05DB1013D2244944204D014F8013B78
:1015F00005F8013FF8E770BD1AB103460C461D46D9
:10160000F0E770BD03460244934202D003F8011B89
:10161000FAE7704737B54FF48041FEF7CBFF051E60
:101620001DDB02210122FEF71BFE00284FF0000007
:101630000DDB4FF0FF330093019022234FF48071B4
:101640000322FFF791FE431C044605D100E0044647
:101650002846FEF7CDFD03E0C0F8F45000E000247A
:10166000204603B030BD01FB020210B503FB0103AD
:1016700011448A4206D010781C7802F8014B03F816
:10168000010BF6E710BD2DE9F04D05460C46164658
:101690001F4603FB010388B00493B74206F1FF38ED
:1016A00040F3898000F09EF8BB1B90FBF3F2BA4632
:1016B00002FB130221463B4628463244FFF7D3FF84
:1016C00004FB065303970593CDF8088008F1010B3E
:1016D000BB450AD005980499109B9847002804DA66
:1016E000059BD84623440593F0E70AF1FF3304FB3A
:1016F00003530693194607930498109B98470028B4
:101700000AF1FF3A079B03DAB245A3EB0403F0D1D9
:10171000D345284621465A461FDA5346FFF7A3FF12
:1017200005980499109B984740B9029B28460133BD
:1017300002931A4621465B46FFF795FF04980699E7
:10174000109B98470028CBD1039B2846013B21469C
:1017500052460393FFF787FFC2E73B46FFF783FF3D
:10176000B34608F1020A029B9B450ADA5A464346F1
:1017700028462146FFF777FF0BF1010B08F1FF38F0
:10178000F1E707F1FF3B039B9B450ADD52465B46B1
:1017900028462146FFF767FF0BF1FF3B0AF1010ADC
:1017A000F1E7109B32460093284621464346FFF757
:1017B0006AFF564671E708B0BDE8F08D37B50C46B4
:1017C00007498A4209D8A51E02398D4205D80093DF
:1017D0001146631E0022FFF756FF03B030BD00BF65
:1017E000FEFFFF7F044B82B059F803301846019387
:1017F00002B000F003B800BF0C0000004AF6C85366
:10180000016891FBF3F203FB1212094B91FBF3F118
:1018100040F6475359434BF68F4303FB0213002B0B
:10182000BCBF03F1004303F1FF3303601846704768
:101830003852FFFF1FB5074B03AA59F8033019466A
:10184000019300F009F808B9039800E0002005B002
:101850005DF804FB10000000002370B5136016460D
:10186000D0F8F82004460D46D0F8FC304AB9D4F838
:10187000F4002146F322FEF73BFD00280BDCC00FED
:1018800070BD9342F3D2C11809890B449342C0F84A
:10189000FC30ECD204E00023C4F8F800C4F8FC30BB
:1018A000D4F8FC20A1180B890A2B10D9A258356056
:1018B0002A604A682B816A600B4413F8013C05F1E9
:1018C0000B00AB720A890A310A3AFFF75BFE00206F
:1018D00070BD10B504460020C4F8280149B1014686
:1018E00004F5967200F007F8B0FA80F04009C4F8E9
:1018F0002801002010BD0823FEF7CCBE80EA0103BA
:101900009B07F0B501D0013809E0264B59F80330A8
:101910001B685BB1F7E7147801319C4204D110F8E1
:10192000013F0A46002BF6D1107839E0C31C23F0A2
:1019300003031B1A11D004460D46C21894422946CF
:1019400020460AD014F8013B1BB1087801359842B3
:10195000F4D0087824E0BE421ED150F8046B51F850
:10196000047B6FEA060EB6F1013202EA0E046FEA5A
:10197000070EB7F10132002502EA0E0200232243CE
:101980002B4302F0803203F080331343E3D003E0B3
:10199000834205D1360A3F0A16F0FF03F8B2F7D1A9
:1019A000181AF0BDF000000038B5054600F00CF83C
:1019B000441C2046FFF72AFD28B129462246BDE8EF
:1019C0003840FFF7DFBD38BD174B014659F80330EB
:1019D0001B680BB9034606E00346581A13F8012B9F
:1019E000002AFAD170479A07184605D002780133C9
:1019F000002AF8D1401A704750F8043BA3F1013295
:101A000022EA030313F08033F6D0013B03F00433E2
:101A100023F004031A0402EB032213449B0E043B3D
:101A20000344581A704700BFF00000002DE9F04150
:101A3000044608468846FFF7C7FF07462046FFF7DB
:101A4000C3FFCFB1874214D82646451CED1B254461
:101A5000AE4234460DD0227898F8003001369A42D2
:101A6000F6D1204641463A46FFF77EFD0028EFD1E9
:101A700002E00020BDE8F0812046BDE8F081036867
:101A80002BB18B4201D1406870470830F7E7184608
:101A90007047000003460022186042608260C26006
:101AA000034A59F8022012684261FEF723BB00BFC7
:101AB000000100002DE9F04D134680460D46164604
:101AC00082B000AF9A46DAF800B00433BBF1000FE1
:101AD000F8D11C465E4B192159F8033020461C6092
:101AE000FFF7CDFF5B4B014659F80330042218463F
:101AF0007B60FFF747FD21212046FFF7C0FF564BD3
:101B0000594659F803300AF10C0218605B4652F846
:101B1000080C60B1032803D152F8043C29B18DE0D0
:101B2000052802D152F8041C13B90832EFE70BB3B1
:101B300001B30022184653F820EBBEF1070F16D16F
:101B4000464B826859F803301A60454B026959F8D0
:101B500003301A604369434A13F00F0F18BF0F3365
:101B600059F8022018BF23F00F03136002E001327E
:101B70008A42DFD13B4B59F803A0DAF80030B3F1C9
:101B8000005F5FD8364A59F802207A6012689342A3
:101B900058D332492A3323F0070359F80110ADEB2B
:101BA000030D09686846FFF7EDFC7B68DAF8002052
:101BB0001B680021D21A0DEB0300FFF723FD2A4B0F
:101BC000DAF8000059F803A06844CAF80000FFF7EB
:101BD00061FF20462021FFF752FFDAF800A0234BD7
:101BE000CAF8100059F8033018467B60FFF79AFCDA
:101BF00050B11F4B59F8033019467B60FFF716FFB1
:101C0000003018BF0120FFE71A4B1B4A59F8033078
:101C1000186059F802202B681360184A59F80220FE
:101C2000136013F8011B11B12F29FAD1F8E72946E7
:101C30003246404600F086FEFFF744FC002B7FF45E
:101C400078AF97E76F200837BD46BDE8F08D00BF3D
:101C50001C00000000010000FC000000C8000000A3
:101C6000D000000024010000F80000001400000073
:101C700018000000F0000000380100001C01000006
:101C800008B50346044A59F8022011600068191D7E
:101C900000F058FEFFF716FC20010000028A10B584
:101CA00002F47F43B3F5807F01D103231CE0B3F539
:101CB000806F05D190F88830022B17D0012313E0F4
:101CC000B3F5C06F01D104230EE0B3F5A06F01D1CD
:101CD000052309E0B3F5007F01D1062304E0B3F545
:101CE000407F0CBF0723002380F88830002380F852
:101CF00089300C4B59F80330196821B90A4B59F84F
:101D000003301B686BB1094B59F8034090F88830D9
:101D1000E35C21B11BB912F0490F18BF2A2380F8E8
:101D2000893010BD200000003000000034000000A9
:101D300008B502680B6810681968FFF7DFFD034BF0
:101D400059F803301B6803B1404208BD4C00000045
:101D50000368DA690B68DB699A4202D803D3FFF79C
:101D6000E7BF012001E04FF0FF30034B59F803308B
:101D70001B6803B9404270474C00000003680A68C2
:101D80009B6B926B9B1A01D1FFF7D2BF044A59F8A3
:101D9000022012680AB9584270471846704700BFBF
:101DA0004C00000003680A681B6B126B9B1A01D180
:101DB000FFF7BEBF044A59F8022012680AB9584218
:101DC00070471846704700BF4C00000003680A685F
:101DD0009B6A926A9B1A01D1FFF7AABF044A59F87D
:101DE000022012680AB9584270471846704700BF6F
:101DF0004C0000000B4630B50122092B04D90A24FF
:101E0000B3FBF4F30132F8E770B110440446131A3F
:101E1000DC4209D00A23B1FBF3F503FB1513303381
:101E200004F8013D2946F2E7104630BD426810B57E
:101E3000034642B10469002141601968C068234625
:101E4000BDE810401847104610BD38B54268836899
:101E500004469A420D4606D294E80C00591C616073
:101E6000D554002038BDFFF7E1FF0028F4DA4FF029
:101E7000FF3038BD38B505464C1E14F8011F39B186
:101E80002846FFF7E2FF0028F7DA4FF0FF3038BDB1
:101E9000084638BD0346F0B591B001AE0F46304656
:101EA00019461446FFF7A6FF10AB034403F83C4C59
:101EB000451C10AB2B44002403F83C4C7B1B9C427C
:101EC000074B59F80330186804DA2021FFF7BDFFEB
:101ED0000134F3E73146FFF7CDFF11B0F0BD00BF8D
:101EE00010010000F8B5076806463846FFF76CFD9C
:101EF000084B394659F8035004462868FFF7BAFFE3
:101F000096F8891019B128680134FFF79EFF204622
:101F1000F8BD00BF10010000034B014659F8033023
:101F20001868FFF7A7BF00BFD400000010B5FFF787
:101F3000F3FF064B0A2159F803402068FFF785FF9D
:101F40002068BDE81040FFF771BF00BFD40000005B
:101F500007B5054B59F8033018460193FFF7E6FF24
:101F60000120FFF7AFFA00BF6400000013B504467C
:101F7000224B59F8033018460193FFF7CDFF4CB1BF
:101F80002046FFF7C9FF1E4B59F80330184601934E
:101F9000FFF7C2FFFFF7BCFA03680C2B1BD007DC6E
:101FA000022B16D0052B18D0012B18D1154B17E09A
:101FB000112B0AD003DC0D2B11D1134B10E0242B75
:101FC00005D0282B0BD1114B0AE0114B08E0114B27
:101FD00006E0114B04E0114B02E0114B00E0114B05
:101FE00059F8033018460193FFF7A0FF0E4B01226A
:101FF00059F803301A6002B010BD00BF680000003D
:102000006C000000700000008400000088000000E8
:1020100074000000780000007C00000080000000D8
:102020008C00000090000000600000002DE9F045E9
:102030009F4BB3B059F8033002AE1B688846074681
:102040001446314613B1FEF72DFC01E0FEF71EFAEF
:10205000003018BF012060B1002C40F026813846C6
:10206000FFF784FF934B4FF0FF3259F803301A60AB
:102070001BE1BDF8103003F47F43B3F5807F23D11B
:102080008D4B029959F80320039814689246234611
:10209000002B00F0F1801A688A4203D15A6882420C
:1020A00000F003811B6CF3E7CEF8404035467446E0
:1020B0000FCD0FC40FCD0FC40FCD0FC495E80F0087
:1020C00084E80F00CAF800E09020FFF79FF905466A
:1020D00008B9FFF73DFF4FF0000A00F1480480F80F
:1020E00088A00FCE0FC40FCE0FC40FCE0FC496E83A
:1020F0000F0084E80F0005F1080605F1480EBEE860
:102100000F000FC6BEE80F000FC6BEE80F000FC6D7
:1021100094E80F0086E80F003846FFF745FCBDF84D
:10212000103085E8010403F47F43B3F5806F05F1B7
:10213000480105F1080421D13846FEF7B3FB10B180
:10214000022385F888305D4B59F803301B78032B48
:1021500014D112AE384631467F22FEF76BFA0028C2
:1021600009DD32AB1844002300F8803C3046FFF70D
:102170001BFC686002E0022385F888302846FFF7E0
:102180008DFD0023C5F88C304D4B59F803301B688A
:10219000E3B9BDF8103003F47F43B3F5807F15D168
:1021A000484B59F80320484B116859F8033021B1C6
:1021B0001A681D60C2F88C5001E01D601560434B29
:1021C00059F803201368013313606EE0404B59F84F
:1021D0000320404B116859F8033021B11A681D6083
:1021E000C2F88C5001E01D6015603B4B59F803208C
:1021F000136801331360394B59F803301B68002B07
:1022000053D0BDF8103003F47F43B3F5807F4CD139
:102210003B782E2B07D17B78002B46D02E2B02D17A
:10222000BB78002B41D09020FFF7F0F8064600283D
:102230003FF44FAF4046FFF7B7FB306000283FF454
:1022400048AF6868706028B1FFF7AEFB7060002887
:102250003FF43FAF95F8883006F1080586F88830DE
:102260000FCC0FC50FCC0FC50FCC0FC594E80F00D6
:1022700085E80F00354693E74420FFF7C7F8864608
:1022800000287FF411AF0B4B4FF0FF3259F80330A9
:1022900002201A60124B132259F803301946019399
:1022A000FEF798FB0120FFF70DF933B0BDE8F0858C
:1022B00050000000600000003C000000040100002D
:1022C000C400000014010000CC000000D800000091
:1022D0000C010000EC000000300100005400000080
:1022E00094000000F0B59F4B91B059F803300446BC
:1022F0001B6823B1C06808212022FFF7CBFD9A4B51
:1023000059F803301B6823B1606A05212022FFF7CA
:10231000C1FD964B59F8032094F88830D35C8DF8B2
:102320002030238A13F4807F14BF72222D2213F0F1
:10233000800F8DF8212014BF77222D2213F0400F3B
:102340008DF8222003F4006204D0002A14BF732207
:10235000782203E0002A14BF53222D2213F0200F0D
:102360008DF8232014BF72222D2213F0100F8DF848
:10237000242014BF77222D2213F0080F8DF825207A
:1023800003F4806204D0002A14BF7322782203E091
:10239000002A14BF53222D2213F0040F8DF826209B
:1023A00014BF72222D2213F0020F8DF8272014BFC4
:1023B00077222D2213F0010F8DF8282003F40073EB
:1023C00004D0002B14BF7423782303E0002B14BF28
:1023D00054232D238DF829300027654B8DF82A7062
:1023E00059F8035008AE31462868FFF743FD608A6C
:1023F00006212022FFF74EFD1E2220213046FFF746
:1024000001F9A18A30468DF82970FFF7F3FC3146B7
:102410002868FFF72FFD1E2220213046FFF7F2F833
:10242000E18A30468DF82970FFF7E4FC28683146D0
:10243000FFF720FD238A03F47E43B3F5007F0FD11D
:10244000A3690421180AC0F30B002C22FFF722FD18
:10245000A0690521020B22F0FF02C0B2104301E087
:10246000E06909212022FFF715FD424B424A59F845
:10247000033059F802201B68934201D1A66B06E095
:102480003E4A59F8022093420CBFA66A266B3C4B89
:10249000286859F8033003AF19460193FFF7EAFCA7
:1024A000142238462021FFF7ADF820228DF80D20A8
:1024B0003023344A8DF80E3059F8022012689642C3
:1024C00003DC2749921B8A4207DD31238DF8113046
:1024D00039238DF81230302306E03A228DF810307F
:1024E0008DF811308DF812200026394628688DF8B5
:1024F00013308DF814308DF81660FFF7BBFC94F89C
:1025000088302046013B012B98BF84F88960FFF793
:10251000E9FC94F88830012B1BD11B4B286859F833
:102520000330266819460193FFF7A4FC6368236013
:1025300094F88830022B02D02046FFF7AFFB2368C7
:102540001BB9124B59F8033023602046FFF7CAFC31
:10255000266028680A21FFF778FC11B0F0BD00BFA3
:10256000C099F0002400000038000000580000006E
:1025700010010000280100002C01000040010000B3
:1025800098000000480000009C000000A00000002F
:102590002DE9F04D90B0844B00AF59F80350002462
:1025A0002968A8468B0003F10E0222F00702ADEB6A
:1025B000020D6E4668467D4A6B4459F80220126847
:1025C000984206D0556A40F8042B2C44D2F88C204F
:1025D000F6E7774B59F803301B681BB130460422ED
:1025E000FFF7ECF8D8F800309B000E3323F0070318
:1025F000ADEB030D6F4BEB4659F803301A683B61A6
:10260000EAB16D4B07F1200A59F803506B4B28686B
:1026100059F803301946FB61FFF72CFC2146504660
:10262000FFF7E8FB07F1400318440A2300F8203CB9
:10263000002300F81F3C51462868FFF71BFC0123CC
:10264000CBF800305E4B59F803502C78012C40F049
:102650009980D8F800C0BCF1000F1DD0594BA2469C
:1026600059F803301B68BB6106EB8C037B6120E0EB
:102670002B78002B40F0888056F82400FFF732FCBE
:102680004D4B0A2159F803301868FFF7DEFB01347F
:10269000D8F800309C42EBD33A69012340371360ED
:1026A000BD46BDE8F08D1D44BB699D4232D30AF1A1
:1026B000010AE2452ED00024314625462346224613
:1026C00078698142EFD0524521BF5B194BF8245005
:1026D00000252A4628BF02337B6051F8043B28BFFF
:1026E00001341868C7F800C0BA60F960FB61FFF7F1
:1026F0006BF9FB69BA6893F889E00132BEF1000F0B
:1027000018BF0130854238BF0546F9687B68D7F8A5
:1027100000C0D5E700255545BED02A460023D8F88D
:1027200000108A420CD30133A3425244F7D9224B02
:102730000A2159F8033001351868FFF786FBEAE7EC
:1027400056F82200BB61FA61FFF7CCFBBB698446F7
:10275000A342FA69E7D25BF8231002318C45E2D23A
:102760000CF1010C14497A61BB61C7F81CC059F81F
:10277000011008682021FFF768FB07F1140292E8B6
:102780000C10E8E7002483E7032B04D156F824005B
:10279000FFF7A8FD7BE70C4B59F803301846FFF70D
:1027A000C5FB0120FEF78EFE300100000C01000089
:1027B000280100005C00000010010000A4000000DF
:1027C0000401000028000000A80000002DE9F04DE1
:1027D00082B0554B00AF59F803300546002118462A
:1027E0007B60FDF7E7FE061E7C6802DA2046FFF7F5
:1027F000BDFB2846FDF7DCFC30B12846FFF7B6FBF1
:102800003046FDF7F5FC8BE0484B59F803A0DAF8A9
:102810000030C3B1464B59F80330D3F80080D8F8E4
:102820008C20D8F804001A60FEF7CAFDD8F8000022
:10283000FEF7C6FD4046FEF7C3FDDAF80030013B67
:10284000CAF80030E0E72046FEF7E4FE804618B9FB
:102850002846FFF78BFB63E0364B012259F8033023
:102860001A604046FEF7E6FF0446002846D0E37AA9
:102870002E2B18D1304B227B59F8033012B1A2898C
:102880002E2A08D11A68002AEBD12C4A59F80220C6
:102890001268002AE5D01B682BB9284B59F8033081
:1028A0001B68002BDDD02846FFF78EF804F10B0BD8
:1028B00082465846FFF788F85044113020F0070050
:1028C000ADEB000D69466A4605F1FF3E1EF8010FAB
:1028D000134602F8010B0028F8D12F221A700A348F
:1028E000013314F8012F184603F8012B002AF8D100
:1028F000027058460122FFF799FBB2E74046FEF707
:10290000F9FD3046FDF794FC28B10D4B59F8033022
:102910001846FFF72BFB3046FDF76AFCFFF738FE41
:102920000837BD46BDE8F08DAC0000003001000066
:102930000C010000C400000040000000BC000000CA
:10294000B00000002DE9F04DDFF8F0349EB00E909D
:102950000F9159F80330002418460193FEF717FD34
:10296000DFF8DC344FF0010E59F803B0DBF800302B
:102970000393DFF8D03459F803A0DAF80030049359
:10298000DFF8C43459F80380D8F800300293DFF838
:10299000BC3459F803C0DCF800300193DFF8B034E0
:1029A00059F8033010931B680893DFF8A83459F8DE
:1029B000033011931B680793DFF89C3459F80330F8
:1029C00012931D68DFF8943459F803703B6806933E
:1029D000DFF88C3459F8036033680D93DFF88434E2
:1029E00059F8033013931B680993DFF87C3459F8C6
:1029F000030003680A93DFF8743459F803100B6876
:102A00000B93DFF86C3459F803201497159607469A
:102A10001646136816910C930F9B05930E9B9E45CB
:102A200080F25981059B53F8042F127805932D2AC3
:102A300001D1012208E001344AE1DFF83814002016
:102A400059F8011008700132059B19688B18895CD0
:102A50001793002900F03C813139472900F2EA80C0
:102A600002A353F821100B44184700BFCFFFFFFF0C
:102A7000C9010000C9010000C9010000C90100002E
:102A8000C9010000C9010000C9010000C90100001E
:102A9000C9010000C9010000C9010000C90100000E
:102AA000C9010000C9010000C90100005F02000067
:102AB000C90100002B010000C9010000C90100008C
:102AC00083010000C9010000C9010000C901000024
:102AD000C9010000C901000089010000C90100000E
:102AE000C9010000C9010000C9010000C9010000BE
:102AF0008F01000049010000C9010000C901000068
:102B0000C9010000C9010000C9010000C90100009D
:102B1000C9010000C9010000C9010000C90100008D
:102B2000C9010000C9010000C901000095010000B1
:102B30009B01000053010000A1010000C901000039
:102B400077010000DBFFFFFFC9010000A5010000C5
:102B5000C9010000C9010000210100003F0100007F
:102B6000AB010000B1010000B7010000C901000085
:102B7000BD010000C3010000630100006D01000001
:102B8000C9010000C901000035010000B949032056
:102B900059F8011056E7B749012059F8011051E7DB
:102BA000B449022059F801104CE7B249042059F801
:102BB000011047E7B04959F80100B04903E0AE49B8
:102BC00059F80100AE4959F8011001603BE7AA49E4
:102BD00059F80100AB49F6E7A74959F80100AA499D
:102BE000F1E7A549002059F8011008602BE70123FF
:102BF000049328E70123029325E70123019322E7A9
:102C0000012308931FE7012307931CE701251AE717
:102C10000123069317E701230D9314E7012309937A
:102C200011E701230A930EE701230B930BE701231E
:102C30000C9308E7039BCBF80030049BCAF80030E4
:102C4000029BC8F80030019BCCF80030109B1A465C
:102C5000089B1360119B1A46079B1360149B1A462E
:102C6000069B1360139B1A46099B13600A9B3B60EB
:102C7000169B1A460B9B13600C9B3360159B1A46E0
:102C80000D9B136018AA1646129B1D607F4B59F8C6
:102C9000033003F11007144618685968083303C459
:102CA000BB422246F7D1186899889B792060A180A1
:102CB000A371179B02201B78314616228DF87430C1
:102CC000FDF788FE0120FEF7FDFB01230393BAE622
:102CD0000EF1010EA2E6039B0120CBF80030049B0D
:102CE00045F21341CAF80030029BC8F80030019B3E
:102CF000CCF80030109B1A46089B1360119B1A46B3
:102D0000079B1360149B1A46069B1360139B1A467D
:102D1000099B13600A9B3B60169B1A460B9B136032
:102D20000C9B3360159B1A460D9B1360129B18AACF
:102D30001D60FDF775FB48B14E4B59F80320137821
:102D4000013B012B08D80023137005E0504BBDF860
:102D5000622059F803301A604CB94E4B224659F89C
:102D60000330184619460193FFF760F90FE001247C
:102D70000E9B9C420BDA0F9B53F8240003782D2BFB
:102D800003D001460022FFF751F90134F0E7424B2E
:102D900059F803402368012B05D9404B59F803200B
:102DA0000123136000E000233D4A59F80220126815
:102DB0003AB1FFF7EDFB394B59F8032001231360BB
:102DC0001A46216861B3374959F801502F68A3B1F9
:102DD000354B59F803601AB130680A21FFF735F80E
:102DE0002B6830681968FFF745F8304B306859F8A0
:102DF000033019460193FFF73DF82B681868FFF779
:102E0000E5FC2B683868D3F88C302B60FEF7D8FAD5
:102E10003846FEF7D5FA2368013B23600123CFE74C
:102E2000214B59F803301868FFF700F8204B59F888
:102E3000033018681EB0BDE8F08D00BF48000000E8
:102E4000400000002000000050000000540000007E
:102E5000BC000000C0000000C4000000240000000E
:102E60002C00000044000000300000004C00000076
:102E7000380000000401000028010000F4000000F8
:102E80002C0100001801000040010000B800000003
:102E900028000000AC000000D80000005C0000002A
:102EA000300100001401000010010000B400000017
:102EB00060000000F0B51B4B061F59F803401A4B89
:102EC000A64659F80320194B002759F803500EEB7A
:102ED000070393420AD256F8043F0437A3422BBF9C
:102EE0001B1B5B181B185B1B3360F0E7104B59F87A
:102EF0000330104A083359F80220A3F1080696421D
:102F00000FD253F8042C172AF3D153F8087C061B70
:102F1000F259A24236BFC5EB010E92197244F2512A
:102F2000E7E7F0BD3C010000DC000000E00000002D
:102F300034010000E80000000040402F3D7C00000C
:102F40002D6C6C64737063624C445F5052454C4FFF
:102F500041440076616C6772696E64006C733A205C
:102F60006F7574206F66207669727475616C206D60
:102F7000656D6F7279006C733A20007065726D69CF
:102F80007373696F6E2064656E6965640066696C51
:102F90006520657869737473006E616D6520746F68
:102FA0006F206C6F6E670066696C65206E6F7420B1
:102FB000666F756E64006469726563746F72792000
:102FC000736561726368207065726D697373696F90
:102FD0006E732064656E69656400746F6F206D6147
:102FE0006E792073796D626F6C6963206C696E6BAA
:102FF0007300492F4F206572726F7200756E6B6E91
:103000006F776E206572726F72006C733A206F7505
:1030100074206F66206D656D6F72792E0A004A61AB
:103020006E00202D3E20005B726561646C696E6BE2
:10303000206661696C65645D00746F74616C20006A
:10304000646973706C6179206D6F6465206E6F7454
:1030500020737570706F72746564207965742E00CA
:10306000666368646972003A0A006C733A20696E9C
:1030700076616C6964206F7074696F6E3A205F0AC4
:10308000000000008C3B0000170000009C3B00008B
:1030900017000000A43B000017000000AC3B00003C
:1030A00017000000B03B000017000000B43B000018
:0C30B00017000000C43B000017000000E7
:1030BC002F7573722F6C69622F6C642E736F2E31A7
:0130CC000003
:1030D00000000000000000000000000000000000F0
:1030E00000000000000000000000000003000100DC
:1030F00000000000403A000000000000030007004C
:103100000100000000010000000000000000F1FFCD
:103110000A010000B44F00000000000000000A0097
:1031200035010000B45500000000000000000A0056
:1031300052000000B45500000000000000000A002A
:1031400041010000003F00000400000011000A00DF
:103150004B000000403A0000000000001000070093
:103160004C0100001C3F00000400000011000A0098
:103170009A000000403A0000000000001000070024
:1031800056010000043F00000400000011000A0086
:1031900062010000A43B00000400000011000700D1
:1031A0006B010000203F00000400000011000A0035
:1031B000B7000000843B0000000000001000070082
:1031C00014000000000000000000000010000100DA
:1031D00074010000003E00000400000021000A000D
:1031E00031000000BC3000000000000010000100B1
:1031F0007A010000243F00000400000011000A00D2
:1032000085010000685500000400000011000A005C
:1032100090010000511D00002C0000001200010070
:1032200097010000083F00000400000011000A00A0
:10323000ED000000003D00000000000010000A004A
:10324000A80100000C3F00000400000011000A006B
:103250003D000000403A00000000000010000700A0
:10326000AF010000A83B00000100000011000700B2
:10327000B7010000003D00000400000021000A002A
:10328000BF010000283F00000400000011000A00F8
:10329000D000000000100000000000001000F1FF4E
:1032A000C3000000C83B0000000000001000070041
:1032B000CA010000AC3B0000040000001100070040
:1032C000D30100006C3F00000400000011000A0060
:1032D000DD010000A51D0000280000001200010013
:1032E0008D000000741B0000000000001000F1FFC2
:1032F000E5010000103F00000400000011000A007A
:10330000030200006C5500000400000011000A00D8
:1033100016020000143F00000400000011000A0023
:10332000FB000000B43F00000000000010000A0095
:1033300021020000B03B0000040000001100070063
:10334000DE00000000040000000000001000F1FF9B
:10335000290200007D1D000028000000120001006D
:1033600057000000403A0000000000001000070075
:1033700031020000B03F00000400000011000A000C
:103380002300000084300000000000001000010055
:1033900073000000403A0000000000001000070029
:1033A0003B020000183F00000400000011000A006A
:1033B00027010000B45300000000000010000A00C4
:1033C00017010000B44F00000000000010000A00C8
:1033D000A9000000403A00000000000010000700B3
:1033E00053020000CD1D0000280000001200010063
:1033F000005F73797374656D5F737461636B5F7382
:10340000697A65005F5F746578745F737461727464
:103410005F5F005F5F72656C5F73746172745F5FA2
:10342000005F5F72656C5F656E645F5F005F5F6524
:10343000786469785F7374617274005F5F65786443
:1034400069785F656E64005F5F7065726D69737344
:10345000696F6E735F7461626C655F7374617274BF
:103460005F5F005F5F7065726D697373696F6E7324
:103470005F7461626C655F656E645F5F005F5F7261
:10348000616D5F73697A655F5F005F5F646174613E
:103490005F73746172745F5F005F5F676F745F7307
:1034A000746172745F5F005F5F676F745F656E6405
:1034B0005F5F005F5F646174615F656E645F5F00A2
:1034C0005F5F686561705F73697A655F5F005F5F0A
:1034D000737461636B5F73697A655F5F005F5F62DE
:1034E00073735F73746172745F5F005F5F686561BF
:1034F000705F73746172745F5F005F5F68656170B5
:103500005F656E645F5F005F5F737461636B5F73C1
:10351000746172745F5F005F5F737461636B5F659A
:103520006E645F5F005F5F6273735F656E645F5FB1
:10353000005F5F7464617461707472006C617374B5
:103540005F64697273005F5F746461746173697A48
:1035500065006275666665725F32006E756D5F64E8
:10356000697273006572726E6F006C6173745F666E
:10357000696C6573005F5F76616C6772696E640089
:10358000627973697A65005F5F7463625F6D616918
:103590006E746872656164005F5F7664736F006467
:1035A0006973706C617900656E7669726F6E007216
:1035B0006F6F745F66696C657300627566666572CD
:1035C0005F3100726F6F745F646972730062796D4E
:1035D00074696D650070726F6772616D5F696E7698
:1035E0006F636174696F6E5F73686F72745F6E6131
:1035F0006D65005F5F6170705F73746172745F61AD
:103600006464725F5F005F5F746D656D73697A6596
:1036100000636F6D706172650062796374696D65D6
:10362000006E756D5F66696C65730070726F6772AE
:10363000616D5F696E766F636174696F6E5F6E61F5
:0B3640006D650062796174696D6500C2
:10364C002500000032000000100000002A000000DD
:10365C001D00000000000000210000000000000020
:10366C002F000000000000000000000030000000EF
:10367C0028000000080000000000000025000000E9
:10368C00170000000F0000002B00000024000000B9
:10369C000000000000000000120000002C000000E0
:1036AC002E000000220000001E0000000C00000094
:1036BC002000000018000000000000003100000095
:1036CC001A000000230000000A00000000000000A7
:1036DC00290000001C000000110000000000000088
:1036EC0000000000000000000000000000000000CE
:1036FC0000000000050000000000000007000000B2
:10370C0000000000000000000600000003000000A4
:10371C00000000000000000000000000000000009D
:10372C00000000000000000000000000000000008D
:10373C00000000000B000000000000000000000072
:10374C000000000000000000160000000000000057
:10375C00000000000000000000000000000000005D
:10376C0004000000140000001B0000001900000001
:10377C000E00000013000000000000001500000007
:10378C0000000000090000001F0000000D000000F8
:10379C002700000000000000000000002D000000C9
:0437AC0026000000F3
:1037B000403A000017000000443A000017000000E3
:1037C000483A0000170000004C3A000017000000C3
:1037D000503A000017000000543A000017000000A3
:1037E000583A0000170000005C3A00001700000083
:1037F000603A000017000000643A00001700000063
:10380000683A0000170000006C3A00001700000042
:10381000703A000017000000743A00001700000022
:10382000783A0000170000007C3A00001700000002
:10383000803A000017000000843A000017000000E2
:10384000883A0000170000008C3A000017000000C2
:10385000903A000017000000943A000017000000A2
:10386000983A0000170000009C3A00001700000082
:10387000A03A000017000000A43A00001700000062
:10388000A83A000017000000AC3A00001700000042
:10389000B03A000017000000B43A00001700000022
:1038A000B83A000017000000BC3A00001700000002
:1038B000C03A000017000000C43A000017000000E2
:1038C000C83A000017000000CC3A000017000000C2
:1038D000D03A000017000000D43A000017000000A2
:1038E000D83A000017000000DC3A00001700000082
:1038F000E03A000017000000E43A00001700000062
:10390000E83A000017000000EC3A00001700000041
:10391000F03A000017000000F43A00001700000021
:10392000F83A000017000000FC3A00001700000001
:10393000003B000017000000043B000017000000DF
:10394000083B0000170000000C3B000017000000BF
:10395000103B000017000000143B0000170000009F
:10396000183B0000170000001C3B0000170000007F
:10397000203B000017000000243B0000170000005F
:10398000283B0000170000002C3B0000170000003F
:10399000303B000017000000343B0000170000001F
:1039A000383B0000170000003C3B000017000000FF
:1039B000403B000017000000443B000017000000DF
:1039C000483B0000170000004C3B000017000000BF
:1039D000503B000017000000543B0000170000009F
:1039E000583B0000170000005C3B0000170000007F
:1039F000603B000017000000643B0000170000005F
:103A0000683B0000170000006C3B0000170000003E
:103A1000703B000017000000743B0000170000001E
:103A2000783B0000170000007C3B000017000000FE
:103A3000803B00001700000064130000021A000021
:103A4000B4530000D4530000D8530000883B00005A
:103A500058540000482F0000532F00006455000008
:103A60007055000074550000A03B00007855000020
:103A70007C550000382F0000805500008455000060
:103A8000885500008C5500009055000094550000AA
:103A9000985500009C550000402F0000A0550000E4
:103AA000A45500005C2F0000762F0000782F000046
:103AB0007B2F00008D2F0000992F0000A72F000002
:103AC000602F0000B62F0000DA2F0000F22F000058
:103AD000FC2F00000A3000001E30000022300000E1
:103AE0002730000039300000403000005E30000018
:103AF00060300000673000006A300000A855000008
:103B0000AC550000B0550000003F00001C3F000015
:103B1000043F0000A43B0000203F0000843B000065
:103B200000000000003E0000BC300000243F000008
:103B300068550000511D0000083F00000C3F0000C8
:103B4000843B0000A83B0000003D0000283F00002F
:103B5000AC3B00006C3F0000A51D0000103F0000C2
:103B60006C550000143F0000B03B00007D1D0000BC
:103B7000B03F000084300000183F0000403A0000D1
:103B8000CD1D000000FF0A0001000000703F000092
:103B9000000000004000000002000000D509000005
:103BA000500000008C3B000001000000B43B00000E
:103BB000311D00002C3F000000000000400000000C
:083BC00001000000D50900001E
:103BC800040000004C36000005000000F03300003F
:103BD80006000000D03000000A0000005B02000070
:103BE8000B0000001000000015000000000000009D
:103BF80011000000B0370000120000009002000021
:103C0800130000000800000016000000000000007B
:103C1800FAFFFF6F510000000000000000000000E4
:103C2800000000000000000000000000000000008C
:103C3800000000000000000000000000000000007C
:0C3C4800C83B000000000000000000006D
:0400000300000001F8
:00000001FF
