:1000000084463DE000000000000000000000000009
:1000100000000000000000000000000000000000E0
:100020004D4B52544F532E201C22000020540000F0
:10003000205C00000008000000040000C04E00002A
:1000400000520000C04E0000984F0000C045000064
:1000500068460000000000000000000000000000F2
:100060000000000000000000000000000000000090
:100070000000000000000000000000000000000080
:100080000021AFF2840222F0010216481044164B00
:10009000134403E0425849F80120043142189A42BF
:1000A000F8D34FF023300F49104AA2EB01024A4423
:1000B0000F4BA3EB01034B4401E042F8040B9A42BF
:1000C000FBD3604611B44846AFF2CC0121F00101E8
:1000D00003F0D2FFBDE80110AFF2DC0103F056FDE2
:1000E000FEE70000C04E000084500000205C0000CD
:1000F00020600000BC46024F00DF674670470000EA
:1001000005000F0070BC00BF10F5805F00D300E059
:10011000F746C0F100012DE9024002F047FCBDE8BE
:10012000024001606FF00000704700BF4FF0000315
:1001300000F048BCEC462DE970009CE8700080B5EA
:10014000DFF8887E80DFBDE88040FFF7DBBF00BFBF
:1001500080B5DFF87C7E80DFBDE88040FFF7D4BF4C
:1001600080B5DFF8707E80DFBDE88040FFF7CCBF50
:1001700080B5DFF8647E80DFBDE88040FFF7C4BF54
:1001800080B5DFF8587E80DFBDE88040FFF7BCBF58
:1001900080B5DFF84C7E80DFBDE88040FFF7B4BF5C
:1001A00080B5DFF8407E80DFBDE88040FFF7ACBF60
:1001B00080B5DFF8347E80DFBDE88040FFF7A4BF64
:1001C00080B5DFF8287E80DFBDE88040FFF79CBF68
:1001D00080B5DFF81C7E80DFBDE88040FFF794BF6C
:1001E00080B5DFF8107E80DFBDE88040FFF78CBF70
:1001F00080B5DFF8047E80DFBDE88040FFF784BF74
:1002000080B5DFF8F87D80DFBDE88040FFF77CBF78
:1002100080B5DFF8EC7D80DFBDE88040FFF774BF7C
:1002200080B5DFF8E07D80DFBDE88040FFF76CBF80
:1002300080B5DFF8D47D80DFBDE88040FFF764BF84
:1002400080B5DFF8C87D80DFBDE88040FFF75CBF88
:1002500080B5DFF8BC7D80DFBDE88040FFF754BF8C
:1002600080B5DFF8B07D80DFBDE88040FFF74CBF90
:1002700080B5DFF8A47D80DFBDE88040FFF744BF94
:1002800080B5DFF8987D80DFBDE88040FFF73CBF98
:1002900080B5DFF88C7D80DFBDE88040FFF734BF9C
:1002A00080B5DFF8807D80DFBDE88040FFF72CBFA0
:1002B00080B5DFF8747D80DFBDE88040FFF724BFA4
:1002C00080B5DFF8687D80DFBDE88040FFF71CBFA8
:1002D00080B5DFF85C7D80DFBDE88040FFF714BFAC
:1002E00080B5DFF8507D80DFBDE88040FFF70CBFB0
:1002F00080B5DFF8447D80DFBDE88040FFF704BFB4
:1003000080B5DFF8387D80DFBDE88040FFF7FCBEB8
:1003100080B5DFF82C7D80DFBDE88040FFF7F4BEBC
:1003200080B5DFF8207D80DFBDE88040FFF7ECBEC0
:1003300080B5DFF8147D80DFBDE88040FFF7E4BEC4
:1003400080B5DFF8087D80DFBDE88040FFF7DCBEC8
:1003500080B5DFF8FC7C80DFBDE88040FFF7D4BECD
:1003600080B5DFF8F07C80DFBDE88040FFF7CCBED1
:1003700080B5DFF8E47C80DFBDE88040FFF7C4BED5
:1003800080B5DFF8D87C80DFBDE88040FFF7BCBED9
:1003900080B5DFF8CC7C80DFBDE88040FFF7B4BEDD
:1003A00080B5DFF8C07C80DFBDE88040FFF7ACBEE1
:1003B00080B5DFF8B47C80DFBDE88040FFF7A4BEE5
:1003C00080B5DFF8A87C80DFBDE88040FFF79CBEE9
:1003D00080B5DFF89C7C80DFBDE88040FFF794BEED
:1003E00080B5DFF8907C80DFBDE88040FFF78CBEF1
:1003F00080B5DFF8847C80DFBDE88040FFF784BEF5
:1004000080B5DFF8787C80DFBDE88040FFF77CBEF8
:1004100080B5DFF86C7C80DFBDE88040FFF774BEFC
:1004200080B5DFF8607C80DFBDE88040FFF76CBE00
:1004300080B5DFF8547C80DFBDE88040FFF764BE04
:1004400080B5DFF8487C80DFBDE88040FFF75CBE08
:1004500080B5DFF83C7C80DFBDE88040FFF754BE0C
:10046000EC462DE970009CE8700080B5DFF8247C34
:1004700080DFBDE88040FFF745BE00BF80B5DFF8F4
:10048000187C80DFBDE88040FFF73EBE80B5DFF816
:100490000C7C80DFBDE88040FFF736BE80B5DFF81A
:1004A000007C80DFBDE88040FFF72EBE80B5DFF81E
:1004B000F47B80DFBDE88040FFF726BE80B5DFF823
:1004C000E87B80DFBDE88040FFF71EBE80B5DFF827
:1004D000DC7B80DFBDE88040FFF716BE80B5DFF82B
:1004E000D07B80DFBDE88040FFF70EBEEC462DE9F3
:1004F00070009CE8700080B5DFF8B87B80DFBDE855
:100500008040FFF7FFBD00BFEC462DE970009CE87E
:10051000700080B5DFF8A07B80DFBDE88040FFF78A
:10052000F1BD00BF80B5DFF8947B80DFBDE880407F
:10053000FFF7EABD80B5DFF8887B80DFBDE880404B
:10054000FFF7E2BD80B5DFF87C7B80DFBDE880404F
:10055000FFF7DABD80B5DFF8707B80DFBDE8804053
:10056000FFF7D2BD80B5DFF8647B80DFBDE8804057
:10057000FFF7CABD80B5DFF8587B80DFBDE880405B
:10058000FFF7C2BD80B5DFF84C7B80DFBDE880405F
:10059000FFF7BABD80B5DFF8407B80DFBDE8804063
:1005A000FFF7B2BD80B5DFF8347B80DFBDE8804067
:1005B000FFF7AABD80B5DFF8287B80DFBDE880406B
:1005C000FFF7A2BD80B5DFF81C7B80DFBDE880406F
:1005D000FFF79ABD80B5DFF8107B80DFBDE8804073
:1005E000FFF792BD80B5DFF8047B80DFBDE8804077
:1005F000FFF78ABD80B5DFF8F87A80DFBDE880407C
:10060000FFF782BD80B5DFF8EC7A80DFBDE880407F
:10061000FFF77ABD80B5DFF8E07A80DFBDE8804083
:10062000FFF772BD80B5DFF8D47A80DFBDE8804087
:10063000FFF76ABD80B5DFF8C87A80DFBDE880408B
:10064000FFF762BD80B5DFF8BC7A80DFBDE880408F
:10065000FFF75ABD80B5DFF8B07A80DFBDE8804093
:10066000FFF752BD80B5DFF8A47A80DFBDE8804097
:10067000FFF74ABD80B5DFF8987A80DFBDE880409B
:10068000FFF742BD80B5DFF88C7A80DFBDE880409F
:10069000FFF73ABD80B5DFF8807A80DFBDE88040A3
:1006A000FFF732BD80B5DFF8747A80DFBDE88040A7
:1006B000FFF72ABD80B5DFF8687A80DFBDE88040AB
:1006C000FFF722BD80B5DFF85C7A80DFBDE88040AF
:1006D000FFF71ABD80B5DFF8507A80DFBDE88040B3
:1006E000FFF712BD80B5DFF8447A80DFBDE88040B7
:1006F000FFF70ABD80B5DFF8387A80DFBDE88040BB
:10070000FFF702BD80B5DFF82C7A80DFBDE88040BE
:10071000FFF7FABC80B5DFF8207A80DFBDE88040C3
:10072000FFF7F2BC80B5DFF8147A80DFBDE88040C7
:10073000FFF7EABC80B5DFF8087A80DFBDE88040CB
:10074000FFF7E2BC80B5DFF8FC7980DFBDE88040D0
:10075000FFF7DABC80B5DFF8F07980DFBDE88040D4
:10076000FFF7D2BC80B5DFF8E47980DFBDE88040D8
:10077000FFF7CABC80B5DFF8D87980DFBDE88040DC
:10078000FFF7C2BC80B5DFF8CC7980DFBDE88040E0
:10079000FFF7BABC80B5DFF8C07980DFBDE88040E4
:1007A000FFF7B2BC80B5DFF8B47980DFBDE88040E8
:1007B000FFF7AABC80B5DFF8A87980DFBDE88040EC
:1007C000FFF7A2BC80B5DFF89C7980DFBDE88040F0
:1007D000FFF79ABC80B5DFF8907980DFBDE88040F4
:1007E000FFF792BC80B5DFF8847980DFBDE88040F8
:1007F000FFF78ABC80B5DFF8787980DFBDE88040FC
:10080000FFF782BC80B5DFF86C7980DFBDE88040FF
:10081000FFF77ABC80B5DFF8607980DFBDE8804003
:10082000FFF772BC80B5DFF8547980DFBDE8804007
:10083000FFF76ABC80B5DFF8487980DFBDE880400B
:10084000FFF762BC80B5DFF83C7980DFBDE880400F
:10085000FFF75ABC80B5DFF8307980DFBDE8804013
:10086000FFF752BC80B5DFF8247980DFBDE8804017
:10087000FFF74ABC80B5DFF8187980DFBDE880401B
:10088000FFF742BC80B5DFF80C7980DFBDE880401F
:10089000FFF73ABC80B5DFF8007980DFBDE8804023
:1008A000FFF732BC80B5DFF8F47880DFBDE8804028
:1008B000FFF72ABC80B5DFF8E87880DFBDE880402C
:1008C000FFF722BC80B5DFF8DC7880DFBDE8804030
:1008D000FFF71ABC80B5DFF8D07880DFBDE8804034
:1008E000FFF712BC80B5DFF8C47880DFBDE8804038
:1008F000FFF70ABC80B5DFF8B87880DFBDE880403C
:10090000FFF702BC80B5DFF8AC7880DFBDE880403F
:10091000FFF7FABB80B5DFF8A07880DFBDE8804044
:10092000FFF7F2BB80B5DFF8947880DFBDE8804048
:10093000FFF7EABB80B5DFF8887880DFBDE880404C
:10094000FFF7E2BB80B5DFF87C7880DFBDE8804050
:10095000FFF7DABB80B5DFF8707880DFBDE8804054
:10096000FFF7D2BB80B5DFF8647880DFBDE8804058
:10097000FFF7CABB80B5DFF8587880DFBDE880405C
:10098000FFF7C2BB80B5DFF84C7880DFBDE8804060
:10099000FFF7BABB80B5DFF8407880DFBDE8804064
:1009A000FFF7B2BB80B5DFF8347880DFBDE8804068
:1009B000FFF7AABB80B5DFF8287880DFBDE880406C
:1009C000FFF7A2BB80B5DFF81C7880DFBDE8804070
:1009D000FFF79ABB80B5DFF8107880DFBDE8804074
:1009E000FFF792BB80B5DFF8047880DFBDE8804078
:1009F000FFF78ABB80B5DFF8F87780DFBDE880407D
:100A0000FFF782BB80B5DFF8EC7780DFBDE8804080
:100A1000FFF77ABB80B5DFF8E07780DFBDE8804084
:100A2000FFF772BB80B5DFF8D47780DFBDE8804088
:100A3000FFF76ABB80B5DFF8C87780DFBDE880408C
:100A4000FFF762BB80B5DFF8BC7780DFBDE8804090
:100A5000FFF75ABB80B5DFF8B07780DFBDE8804094
:100A6000FFF752BB80B5DFF8A47780DFBDE8804098
:100A7000FFF74ABB80B5DFF8987780DFBDE880409C
:100A8000FFF742BB80B5DFF88C7780DFBDE88040A0
:100A9000FFF73ABB80B5DFF8807780DFBDE88040A4
:100AA000FFF732BB80B5DFF8747780DFBDE88040A8
:100AB000FFF72ABB80B5DFF8687780DFBDE88040AC
:100AC000FFF722BB80B5DFF85C7780DFBDE88040B0
:100AD000FFF71ABB80B5DFF8507780DFBDE88040B4
:100AE000FFF712BB80B5DFF8447780DFBDE88040B8
:100AF000FFF70ABB80B5DFF8387780DFBDE88040BC
:100B0000FFF702BB80B5DFF82C7780DFBDE88040BF
:100B1000FFF7FABA80B5DFF8207780DFBDE88040C4
:100B2000FFF7F2BA80B5DFF8147780DFBDE88040C8
:100B3000FFF7EABA80B5DFF8087780DFBDE88040CC
:100B4000FFF7E2BA80B5DFF8FC7680DFBDE88040D1
:100B5000FFF7DABA80B5DFF8F07680DFBDE88040D5
:100B6000FFF7D2BA80B5DFF8E47680DFBDE88040D9
:100B7000FFF7CABA80B5DFF8D87680DFBDE88040DD
:100B8000FFF7C2BA80B5DFF8CC7680DFBDE88040E1
:100B9000FFF7BABA80B5DFF8C07680DFBDE88040E5
:100BA000FFF7B2BA80B5DFF8B47680DFBDE88040E9
:100BB000FFF7AABA80B5DFF8A87680DFBDE88040ED
:100BC000FFF7A2BA80B5DFF89C7680DFBDE88040F1
:100BD000FFF79ABA80B5DFF8907680DFBDE88040F5
:100BE000FFF792BA80B5DFF8847680DFBDE88040F9
:100BF000FFF78ABA80B5DFF8787680DFBDE88040FD
:100C0000FFF782BA80B5DFF86C7680DFBDE8804000
:100C1000FFF77ABA80B5DFF8607680DFBDE8804004
:100C2000FFF772BA80B5DFF8547680DFBDE8804008
:100C3000FFF76ABA80B5DFF8487680DFBDE880400C
:100C4000FFF762BA80B5DFF83C7680DFBDE8804010
:100C5000FFF75ABA80B5DFF8307680DFBDE8804014
:100C6000FFF752BAEC462DE970009CE8700080B5A1
:100C7000DFF8187680DFBDE88040FFF743BA00BF99
:100C800080B5DFF80C7680DFBDE88040FFF73CBA26
:100C900080B5DFF8007680DFBDE88040FFF734BA2A
:100CA00080B5DFF8F47580DFBDE88040FFF72CBA2F
:100CB00080B5DFF8E87580DFBDE88040FFF724BA33
:100CC00080B5DFF8DC7580DFBDE88040FFF71CBA37
:100CD00080B5DFF8D07580DFBDE88040FFF714BA3B
:100CE00080B5DFF8C47580DFBDE88040FFF70CBA3F
:100CF000EC462DE970009CE8700080B5DFF8AC751B
:100D000080DFBDE88040FFF7FDB900BF80B5DFF8A8
:100D1000A07580DFBDE88040FFF7F6B980B5DFF849
:100D2000947580DFBDE88040FFF7EEB980B5DFF84D
:100D3000887580DFBDE88040FFF7E6B980B5DFF851
:100D40007C7580DFBDE88040FFF7DEB980B5DFF855
:100D5000707580DFBDE88040FFF7D6B980B5DFF859
:100D6000647580DFBDE88040FFF7CEB9EC462DE921
:100D700070009CE8700080B5DFF84C7580DFBDE83E
:100D80008040FFF7BFB900BFEC462DE970009CE83A
:100D9000700080B5DFF8347580DFBDE88040FFF774
:100DA000B1B900BF80B5DFF8287580DFBDE88040AD
:100DB000FFF7AAB980B5DFF81C7580DFBDE8804079
:100DC000FFF7A2B9EC462DE970009CE8700080B5F1
:100DD000DFF8047580DFBDE88040FFF793B900BFFE
:100DE00080B5DFF8F87480DFBDE88040FFF78CB98C
:100DF000EC462DE970009CE8700080B5DFF8E074E7
:100E000080DFBDE88040FFF77DB900BF80B5DFF827
:100E1000D47480DFBDE88040FFF776B980B5DFF895
:100E2000C87480DFBDE88040FFF76EB980B5DFF899
:100E3000BC7480DFBDE88040FFF766B980B5DFF89D
:100E4000B07480DFBDE88040FFF75EB980B5DFF8A1
:100E5000A47480DFBDE88040FFF756B980B5DFF8A5
:100E6000987480DFBDE88040FFF74EB980B5DFF8A9
:100E70008C7480DFBDE88040FFF746B980B5DFF8AD
:100E8000807480DFBDE88040FFF73EB9EC462DE975
:100E900070009CE8700080B5DFF8687480DFBDE802
:100EA0008040FFF72FB900BFEC462DE970009CE8A9
:100EB000700080B5DFF8507480DFBDE88040FFF738
:100EC00021B900BFEC462DE970009CE8700080B5A8
:100ED000DFF8387480DFBDE88040FFF713B900BF4A
:100EE00080B5DFF82C7480DFBDE88040FFF70CB9D7
:100EF00080B5DFF8207480DFBDE88040FFF704B9DB
:100F000080B5DFF8147480DFBDE88040FFF7FCB8DF
:100F100080B5DFF8087480DFBDE88040FFF7F4B8E3
:100F200080B5FF4F80DFBDE88040FFF7EDB800BF20
:100F300080B5FC4F80DFBDE88040FFF7E5B800BF1B
:100F400080B5F94F80DFBDE88040FFF7DDB800BF16
:100F500080B5F64F80DFBDE88040FFF7D5B800BF11
:100F600080B5F34F80DFBDE88040FFF7CDB800BF0C
:100F700080B5F04F80DFBDE88040FFF7C5B800BF07
:100F800001DF78468EEA0E00874600BF80B5EA4F43
:100F900080DFBDE88040FFF7B7B800BF8446080097
:100FA00008BF0120BCE8F00F5CF8042B95465CF804
:100FB00004FB00BF4FF000016A46A0E8F00FA0E874
:100FC0000440A0F1280002F039B800008E000000B3
:100FD000B4000000B500000058000000210000002F
:100FE0007C0000002D0000000C0000000F0000003D
:100FF000B60000003D0000000600000029000000CF
:101000003F0000000B000000850000005E000000B3
:101010005F000000370000008F00000002000000A9
:101020006C000000C50000006400000076000000B5
:101030005D000000B70000008D000000D900000036
:1010400032000000310000002F00000050000000BE
:10105000690000008400000014000000400000004F
:1010600060000000AB000000A5000000BF00000011
:101070004D000000930000004E0000004F000000F3
:1010800018000000360000002500000010000000DD
:10109000090000008C000000130000006B0000003D
:1010A000C4000000270000000E00000096000000B1
:1010B00098000000C0000000150000007D00000046
:1010C000A3000000990000005B0000004300000046
:1010D000490000007E00000048000000A20000005F
:1010E000050000001D000000880000002A0000002C
:1010F000A800000080000000810000000300000044
:1011000055000000910000002600000028000000AB
:10111000AE000000B0000000AF000000B200000010
:10112000B3000000B1000000F2000000F100000078
:101130009F000000A00000009B0000009D00000038
:10114000A10000009A0000009C0000009E0000002A
:10115000BB000000EF000000790000008B000000E1
:101160008A0000002E000000510000004A0000002C
:101170006800000039000000610000004700000026
:10118000AA000000A4000000460000004B00000080
:101190004200000017000000BA0000006A000000D2
:1011A000C30000006300000073000000570000004F
:1011B00053000000240000009500000074000000AF
:1011C00067000000870000002B0000005C000000AA
:1011D0003C000000340000007A0000000A0000001B
:1011E0006F00000072000000040000009200000088
:1011F00090000000B8000000B9000000D40000001A
:10120000CF000000CA000000C9000000C8000000B4
:10121000CD000000D3000000C7000000C6000000A1
:10122000D8000000D7000000D6000000CC0000006D
:10123000D2000000CB000000D50000001A00000022
:10124000C2000000C10000003E000000FA000000E3
:10125000FB000000FC000000DD00000001010000B8
:10126000020100000301000004010000050100006C
:10127000060100000701000008010000090100004C
:101280001701000016010000120100001501000006
:1012900014010000130100000A0100000B0100000E
:1012A000EE0000000C010000000100004101000000
:1012B000AD000000E0000000FD000000E1000000C3
:1012C00083000000DB0000003F010000400100003F
:1012D000F000000039010000360100003701000075
:1012E00035010000F6000000F3000000F5000000EA
:1012F000F4000000F70000003E0100003C01000087
:101300003D010000E2000000E3000000E4000000F6
:10131000EB000000EC000000ED000000E800000021
:10132000E9000000EA000000E5000000E60000001F
:10133000E70000008B010000780000004FF0000B78
:10134000009801A9DFF81CC001EB800202F1040241
:10135000CCF8002002F008FB01F00CFB4FF0010775
:1013600080DF00BF0000000080B483B000AF786071
:101370007B6893F82130002B01D0002303E07B68C9
:101380005B6803F0020318460C37BD465DF8047B2A
:10139000704700BF80B500AF002000F001F880BDAD
:1013A00090B585B000AF78607B68002B1CD100F051
:1013B00039FB00F00FFB0023FB60324B59F8033080
:1013C0001B68BB600BE0B868FFF7EAFF0346002B21
:1013D00002D04FF0FF33FB60BB689B69BB60BB680A
:1013E000002BF0D1FB6849E07B685B6803F00403E5
:1013F000002B1ED07B68DA687B689B68D31A1C467A
:10140000002C0ED0002C05D07B6893F82130002BE7
:1014100000D0013C7B681B68184621460122FFF77B
:101420002DF87B680022DA607B68DA687B689A6056
:101430001FE07B68DB68002B18D07B6819687B682D
:101440005A697B68DB68084611461A46FFF7C2FAFC
:1014500002467B68DB689A4208D07B685B6843F091
:1014600001027B685A604FF0FF3307E07B6800227F
:10147000DA607B68002283F82120002318461437A5
:10148000BD4690BDCC00000080B584B000AF786050
:101490003960204B59F803301B68002B0CBF012327
:1014A0000023DBB2002B0BD01A4B59F803301A463D
:1014B00001231360184B59F80330184601F02EFA37
:1014C0007B685B6803F004023B689A4214BF012307
:1014D0000023DBB2002B0DD07868FFF761FFF860C6
:1014E0007B685B6823F004023B681A437B685A60A0
:1014F000FB680BE07B681B68002B06D100F078FAD4
:101500000346002B01D000F08DFA00231846103757
:10151000BD4680BDC80000009C00000080B582B0C0
:1015200000AF786039600A4B59F803301B6878685F
:1015300001213A6800F01CF902463B689A420CBF50
:1015400001230023DBB218460837BD4680BD00BF2B
:101550007400000080B584B000AF78607B685B6881
:1015600003F08003002B0CBF01230023DBB2002B10
:1015700000D05AE07B6893F82130002B07D07B68BD
:10158000002283F821207B6893F8203069E07B6893
:10159000DA687B689B689A4234BF01230023DBB280
:1015A000002B09D07B685A697B68DB68581C796816
:1015B000C86013441B7854E07868FFF7D5FE0346F3
:1015C000002B02D04FF0FF334BE078680421FFF787
:1015D0005BFF0346002B02D04FF0FF3341E07B68F6
:1015E000DA687B689B689A422CBF01230023DBB238
:1015F000002B29D07B6819687B685A697B681B6956
:10160000084611461A46FFF70DF8F860FB68002BF4
:1016100008D17B685B6843F002027B685A604FF038
:10162000FF331EE0FB68002B08DA7B685B6843F041
:1016300001027B685A604FF0FF3312E07B680022A2
:10164000DA60FA687B689A607B685A697B68DB6855
:1016500013441B78FB727B68DB685A1C7B68DA607A
:10166000FB7A18461037BD4680BD00BF0EB480B56A
:1016700085B000AF786007F12003BB607868F96936
:10168000BA6800F0EFF9F860FB6818461437BD46F9
:10169000BDE8804003B0704780B582B000AF78608D
:1016A00039603B685B6803F48073002B06D03868B0
:1016B0000021FFF7E9FE0346002B08D03B685B687A
:1016C00043F001023B685A604FF0FF334CE03B6847
:1016D000DA683B681B69013B9A422CBF0123002357
:1016E000DBB2002B06D03868FFF75AFE0346002B0A
:1016F00000D0E3E73B685B6803F01003002B0ED0DB
:101700003B681A683B1D104619460122FFF762F933
:101710000346012B00D0D1E77B68DBB224E03B68B5
:101720005A693B68DB6813447A68D2B21A703B6826
:10173000DB685A1C3B68DA603B685B6803F00803AF
:10174000002B02D07B680A2B05D03B685B6803F056
:101750001003002B06D03868FFF722FE0346002B4B
:1017600000D0ABE77B68DBB218460837BD4680BDCA
:1017700080B58AB000AFF860B9607A603B60BB6842
:101780007A6802FB03F33B623B685B6803F4807397
:10179000002B06D038680021FFF776FE0346002BA9
:1017A00007D03B685B6843F001023B685A60002346
:1017B000F7E07B68002B06D03A6A7B68B2FBF3F255
:1017C000BB689A4201D00023EBE03B681A693B6A90
:1017D0009A4234BF01230023DBB2002B0AD13B68BD
:1017E0005B6803F01003002B14BF01230023DBB25E
:1017F000002B1AD03868FFF7D3FD0346002B01D029
:101800000023CEE03B681B681846F9683A6AFFF788
:10181000E1F878627B6AB3F1FF3F05D101F0C6F8C9
:1018200003461B68042BEDD0A6E03B681A693B68B1
:10183000DB68D31A7B617A693B6A9A4201D93B6AB9
:101840007B617B69002B78D03B685B6803F0080301
:10185000002B41D03B685B6803F40073002B14BF7E
:1018600001230023DBB2002B14D03B685B6823F418
:1018700000723B685A603B681B68184601F05EFACC
:101880000346002B06D13B685B6823F008023B68E7
:101890005A6021E00023FB6119E03B685A693B680C
:1018A000DB68581C3968C8601344F968FA690A444F
:1018B00012781A701B780A2B06D13868FFF770FD72
:1018C0000346002B00D06CE7FB690133FB61FA692A
:1018D0007B699A42E1D32DE03B685A693B68DB683B
:1018E00013441846F9687A6901F09AFA3B68DA6895
:1018F0007B691A443B68DA603B68DA683B681B69BD
:101900009A4215D13868FFF74BFD0346002B01D0F2
:10191000002346E03A6A7B69D31A3B623B6A002B9C
:1019200001D17B683DE0FA687B691344FB607CE78A
:101930007B6836E07B69BB6101E00023BB61BB696A
:10194000FB6113E0FA68FB6913441B781846396899
:10195000FFF7A2FE0346B3F1FF3F04D13A6AFB69E9
:10196000D31A7B6213E0FB690133FB61FA693B6ABE
:101970009A42E7D33B6A7B627B6A002B07DA3B68BB
:101980005B6843F001023B685A60002309E0BB68D2
:10199000002B04D07A6ABB68B2FBF3F300E00023AB
:1019A00000BF18462837BD4680BD00BF0FB480B5C4
:1019B00082B000AF07F114033B603869396800F06A
:1019C0006BF878607B6818460837BD46BDE88040F4
:1019D00004B0704780B500AF044B59F803301B6862
:1019E0001846FFF7DDFC0346184680BDB80000002E
:1019F00080B500AF0A4B59F803301B68002B08D1A3
:101A0000002001F09BF903460133054A59F80220F2
:101A10001360034B59F803301B68013B184680BD27
:101A20000000000080B500AF044B59F803301B687C
:101A30001846FFF7B5FC0346184680BD7400000049
:101A400080B584B000AFF860B9607A60F8680121B1
:101A5000BA687B68FFF78CFE034618461037BD4610
:101A600080BD00BF80B586B000AFF860B9607A6015
:101A7000FB683B61074B59F803307B6107F11003AA
:101A80001846B9687A6800F02DF9034618461837E9
:101A9000BD4680BD0400000080B584B000AF786012
:101AA00039600023BB60084B59F80330FB6007F135
:101AB0000803184679683A6800F014F90346184696
:101AC0001037BD4680BD00BFC000000080B586B0A5
:101AD00000AFF860B9607A603B6000233B61BB688F
:101AE000013BBB60FA68BB68134400221A70FA68B5
:101AF000BB6813447B613B68002B02D03B68242BFE
:101B000001D90A233B6000233B617B68002B07D18E
:101B10007B69013B7B617B6930221A7001233B6149
:101B200027E07B69013B7B617B683A68B3FBF2F29B
:101B3000396801FB02F29B1ADBB23033DAB27B69FF
:101B40001A707B691B78392B0BD97B691A783B6A31
:101B5000002B01D0072300E027231344DAB27B696E
:101B60001A707A683B68B2FBF3F37B603B69013320
:101B70003B617A69FB689A4202D97B68002BD0D11D
:101B80003B690133F86879691A4601F0C3F93B698A
:101B900018461837BD4680BD80B588B002AFF860E2
:101BA000B9607A603B604FF480533B613B695A1ED9
:101BB0007B6A1340002B09D000F0F8FE02466FF05C
:101BC000150313604FF0FF337B610EE07A6A3B69C7
:101BD000B2FBF3F31A463B6A00930192F868B968C6
:101BE0007A683B68FEF782FC78617B691846183793
:101BF000BD4680BD80B485B000AF78600023FB6037
:101C000002E0FB680133FB607A68FB6813441B78D1
:101C1000002B05D07A68FB6813441B78252BF0D184
:101C2000FB6818461437BD465DF8047B704700BF5B
:101C300080B586B000AFF860B9607A603B60002381
:101C40007B617B68002B01DC002345E0FB681A68A0
:101C50007B681A447B689A4202D24FF0FF333BE024
:101C600017E0BB685B683A68302A0CBF012200228B
:101C7000D2B212011A4959F801101144BA68126817
:101C80000846102198477B68103B7B607B691033C6
:101C90007B617B680F2BE4D87B68002B15D0BB6879
:101CA0005B683A68302A0CBF01220022D2B21201CE
:101CB0000B4959F801101144BA681268084679684E
:101CC00098477A697B6813447B61FB681A687B6973
:101CD0001A44FB681A60002318461837BD4680BDB9
:101CE0000800000080B5B8B002AFF860B9607A6053
:101CF0000023C7F89C3000F073BCB868FFF77AFF88
:101D0000C7F8D400D7F8D430002B25D0D7F8D4307A
:101D1000002B08DBD7F89C20D7F8D4301A44D7F82A
:101D20009C309A4203D24FF0FF3300F060BCFB6856
:101D30005B68FA681268B868D7F8D410984700BF93
:101D4000D7F89C20D7F8D4301344C7F89C30BA6831
:101D5000D7F8D4301344BB60BB681B78252B40F008
:101D60003F84202387F8D330202387F8D230002304
:101D700087F8D130002387F8D030002387F8CF30A0
:101D8000002387F8CE30002387F8CD30002387F872
:101D9000CC30002387F8CB30002387F8CA300023EB
:101DA000C7F8C0300023C7F8BC300023C7F8B830EC
:101DB000BB680133BB60BB685A1CBA601B7887F8EC
:101DC000973097F897307A2B00F2098402A252F8E4
:101DD00023301A44104700BFED010000070800003F
:101DE00007080000070800000708000007080000B7
:101DF00007080000070800000708000007080000A7
:101E00000708000007080000070800000708000096
:101E10000708000007080000070800000708000086
:101E20000708000007080000070800000708000076
:101E30000708000007080000070800000708000066
:101E40000708000007080000070800000708000056
:101E5000070800000708000029020000070800002A
:101E600007080000F3010000070800003B03000022
:101E70000708000007080000070800000708000026
:101E80008B02000031020000070800002102000060
:101E9000C9020000070800003902000039020000F2
:101EA0003902000039020000390200003902000046
:101EB0003902000039020000390200003902000036
:101EC00007080000070800000708000007080000D6
:101ED00007080000070800000708000007080000C6
:101EE00007080000070800000708000007080000B6
:101EF00007080000070800000708000007080000A6
:101F0000070800000708000007020000070800009B
:101F10000708000007080000070800000708000085
:101F20000708000007080000070800000708000075
:101F300007080000070800001F060000070800004F
:101F40000708000007080000070800000708000055
:101F50000708000007080000070800000708000045
:101F6000FF0500002D0300007306000007080000B5
:101F70000708000007080000F901000073060000D0
:101F80000702000007080000130200000708000015
:101F900007080000870600000D0600000702000089
:101FA000070800006F030000070800007906000022
:101FB00007080000070800003106000007080000BD
:101FC000130200004FF0FF3311E3FF2387F8CF30F7
:101FD00097F8CA30013BDBB287F8CA30EBE697F8D6
:101FE000CA300133DBB287F8CA3097F8CA30013300
:101FF000DBB287F8CA30DEE6012387F8CE30DAE6B6
:10200000012387F8CD30D6E6012387F8CC30D2E61D
:1020100097F8CB30002B02D04FF0FF33E7E2BB68DC
:102020005A1E07F19803104619460A2201F00AFBCE
:10203000C7F8C000D7F8C030B3F5205F02D94FF021
:10204000FF33D4E297F89730302B06D197F8CE3093
:10205000002B02D1302387F8D330D7F89830BB60FB
:10206000A9E67B681A1D7A601B68C7F8B430D7F8F8
:10207000B430002B07DA012387F8CE30D7F8B4301C
:102080005B42C7F8B430D7F8B430C7F8C030D7F8DF
:10209000C030B3F5205F02D94FF0FF33A7E28AE6E4
:1020A000012387F8CB30BB681B782A2B0FD17B68C4
:1020B0001A1D7A601B68C7F8AC30D7F8AC3023EA39
:1020C000E373C7F8BC30BB680133BB6011E007F1B4
:1020D0009803B86819460A2201F050FAC7F8A80018
:1020E000D7F8A83023EAE373C7F8BC30D7F89830A4
:1020F000BB60D7F8BC30B3F5205F02D94FF0FF3397
:1021000075E258E67B681A1D7A601B68DBB287F8B7
:102110009730D7F89C305A1CD7F89C309A4202D29C
:102120004FF0FF3363E2FB685B68FA68126807F1FF
:10213000970108460121984700BFD7F89C3001332A
:10214000C7F89C304CE27B681A1D7A601B68C7F8A0
:102150009830D7F89830002B05D1DFF89C3459F827
:102160000330C7F89830D7F89830184601F0E2F8F5
:10217000C7F8D40097F8CB30002B09D0D7F8D4207B
:10218000D7F8BC309A4203D9D7F8BC30C7F8D4305E
:102190000023C7F8BC30002387F8CB30202387F812
:1021A000D23097F8D23087F8D330D7F89830C7F8C4
:1021B000A0300023C7F8B030D7F8C030002B26D1AC
:1021C000D7F8BC30002B22D1D7F8D430002B08DB55
:1021D000D7F89C20D7F8D4301A44D7F89C309A42CC
:1021E00002D24FF0FF3302E2FB685B68D7F8981029
:1021F000FA6812680846D7F8D410984700BFD7F895
:102200009C20D7F8D4301344C7F89C30E8E197F805
:10221000D130002B02D00123C7F8B03097F8CF306F
:10222000002B03D097F8CF30C7F8B030D7F8B030D4
:10223000002B14D0D7F89820D7F8B0301344C7F843
:102240009830D7F8B030D7F8D420D31AC7F8D430A4
:10225000D7F8B030D7F8C020D31AC7F8C03097F8F5
:10226000CB30002B07D0D7F8C030002B03D1D7F8E4
:10227000BC30C7F8C03097F8CB30002B03D1D7F86B
:10228000D430C7F8BC3097F8CE30002B16D197F871
:10229000D330202B12D1D7F8C020D7F8BC30D21AB7
:1022A00097F8D33007F19C010846F968FFF7C0FCA6
:1022B0000346002B02D04FF0FF3398E1D7F8B0303F
:1022C000002B20D0D7F8B030002B08DBD7F89C20AB
:1022D000D7F8B0301A44D7F89C309A4202D24FF067
:1022E000FF3384E1FB685B68D7F8B010FA681268C6
:1022F000D7F8A000984700BFD7F89C20D7F8B03097
:102300001344C7F89C3097F8CE30002B16D197F8BD
:10231000D330202B12D0D7F8C020D7F8BC30D21A37
:1023200097F8D33007F19C010846F968FFF780FC65
:102330000346002B02D04FF0FF3358E1D7F8BC2002
:10234000D7F8D430D21A97F8D23007F19C0108465A
:10235000F968FFF76DFC0346002B02D04FF0FF3306
:1023600045E1D7F8D430002B08DBD7F89C20D7F80C
:10237000D4301A44D7F89C309A4202D24FF0FF333F
:1023800035E1FB685B68D7F89810FA681268084670
:10239000D7F8D410984700BFD7F89C20D7F8D4308E
:1023A0001344C7F89C3097F8CE30002B12D0D7F8E2
:1023B000C020D7F8BC30D21A97F8D33007F19C016F
:1023C0000846F968FFF734FC0346002B02D04FF0B3
:1023D000FF330CE104E10223C7F8C4300023C7F83F
:1023E000D43050E0022387F8CF30012387F8CA3079
:1023F000782387F8973097F89730582B0CBF012334
:102400000023DBB287F8D0301023C7F8C430002394
:10241000C7F8D43097F8CF30002B0AD030237B7523
:1024200097F89730BB75022387F8CF300223C7F89F
:10243000D430D7F8BC20D7F8C0309A4204D9D7F8A6
:10244000BC30C7F8C0301EE01DE0012387F8D13052
:102450000A23C7F8C4300023C7F8D43013E0082398
:10246000C7F8C4300023C7F8D43097F8CF30002B1A
:1024700009D030237B75012387F8CF30D7F8D430CB
:102480000133C7F8D43007F114030133C7F898308B
:1024900097F9CA30002B06DD7B681A1D7A601B682D
:1024A000C7F8B83005E07B681A1D7A601B68C7F86A
:1024B000B83097F8D130002B0BD0D7F8B830002BBC
:1024C00007DAD7F8B8305B42C7F8B830022387F88C
:1024D000D13097F9CA30002B04DAD7F8B8309BB264
:1024E000C7F8B83097F9CA30B3F1FF3F04DAD7F82C
:1024F000B830DBB2C7F8B830D7F89820D7F8D43066
:10250000D118D7F8B82097F8D030009308467B212F
:10251000D7F8C430FFF7DAFAC7F8A40097F8CB3041
:10252000002B1AD0D7F8A430012B16D1D7F8982059
:10253000D7F8D43013441B78302B0ED1D7F8BC30E9
:10254000002B03D097F8CF30002B02D00023C7F820
:10255000D430002387F8CF3006E0D7F8A430D7F87E
:10256000D4201344C7F8D43097F8D130022B0ED1C1
:10257000D7F89830013BC7F89830D7F898302D221B
:102580001A70D7F8D4300133C7F8D43023E097F865
:10259000D130002B1CD097F8CC30002B03D197F80A
:1025A000CD30002B14D0D7F89830013BC7F89830C5
:1025B000D7F8983097F8CC20002A01D02B2200E0E1
:1025C00020221A70D7F8D4300133C7F8D43002E093
:1025D000002387F8D130302387F8D230E5E500BFFB
:1025E000BB681B78002B7FF488ABD7F89C3018466B
:1025F000D837BD4680BD00BF0C00000080B584B058
:1026000002AF78604FF0FF33009300230193002066
:10261000796803222223FFF7BFFA034618460837DA
:10262000BD4680BD80B400AF04231846BD465DF8AA
:10263000047B7047B0B582B000AF786000257B683E
:10264000013BDCB2FFF7EEFF0346DC4001E064082B
:102650000135002CFBD12B4618460837BD46B0BDCE
:1026600080B586B000AF786039607B68083B7B61DD
:102670003B683B613869FFF7DDFFF860786900214E
:102680003A6900F087FC0A4B59F803301A46FB6898
:1026900052F823207B691A60054B59F8033019461C
:1026A000FB687A6941F823201837BD4680BD00BF1A
:1026B00010000000B0B586B000AF78607B683B6169
:1026C0003869FFF7B7FFF860274B59F803301A460F
:1026D000FB6852F823307B617B69002B32D14FF4C9
:1026E0008070FFF78BFF78617B69B3F1FF3F02D108
:1026F0004FF0FF3333E01C4B59F803301946FB68A9
:102700007A6941F823204FF480723B69B2FBF3F3FE
:10271000013B1D46002408E07A693B691A447B6945
:102720001A607B691B687B610134AC42F4DB7B6916
:1027300000221A600C4B59F803301A46FB6852F815
:1027400023307B617B691A68074B59F803301946BF
:10275000FB6841F823207B6900221A607B691846D8
:102760001837BD46B0BD00BF1000000090B583B063
:1027700000AF78607B68002B11D07B68083B5C68F9
:10278000002C0CD0802C04D878682146FFF768FF15
:1027900005E07B68083B18462146FDF7DBFE0C3759
:1027A000BD4690BD80B584B000AF78607B68002BDB
:1027B00000D131E07B6808337B607B68072B00D851
:1027C0002AE07B68802B0CD87868FFF733FF03463C
:1027D0001A4602239340BB60B868FFF76BFFF860AE
:1027E0000FE07B68FF3323F0FF03BB60BB68002B67
:1027F00003D14FF0FF33FB6003E0B868FFF7FEFE44
:10280000F860FB68B3F1FF3F00D105E0FB68BA68F0
:102810005A60FB68083305E000F0C8F802460C2354
:102820001360002318461037BD4680BDB0B584B094
:1028300000AF786039603C687B68002B63D0002C67
:102840005BD07B68083BFB600834072C00D846E06F
:10285000802C07D82046FFF7EDFE03461A460223D8
:10286000934003E004F1FF0323F0FF031C46FB68E1
:102870005B68A34240D0FB685B68802B1FD8386838
:10288000FFF790FFB860BB68002B15D0BB68A3F1C1
:1028900008046468FB685B68A34201D2FB685C685B
:1028A000002C06D0A4F10803B86879681A4600F035
:1028B000B7FA7868FFF75AFFBB687B601CE004F149
:1028C000FF0323F0FF04FB685B68F86819462246A3
:1028D0000123FDF72FFE0546B5F1FF3F07D100F0BC
:1028E00065F802460C23136000237B6004E06C60F3
:1028F00005F108037B600CE00BE07868FFF736FF1A
:1029000000237B6005E0002C03D02046FFF74AFF40
:1029100078607B6818461037BD46B0BD80B483B080
:1029200000AF7860114B59F803301B681F2B15DC82
:102930000E4B59F803301B680D4A59F80220114616
:102940007A6841F82320094B59F803301B6801339A
:10295000064A59F802201360002301E04FF0FF33CC
:1029600018460C37BD465DF8047B70471800000020
:102970001400000090B583B000AF7860094B59F89F
:1029800003301C687868FDF7CFFB06E0013C064B7E
:1029900059F8033053F824309847002CF6D1786862
:1029A000FEF7DCFC180000001400000080B400AF4B
:1029B000034B59F803301846BD465DF8047B704759
:1029C0008000000080B584B000AF786039600023DB
:1029D000FB6002E0FB680133FB60FB689B003A6828
:1029E00013441B68002BF5D1FB680133FB60FB68C7
:1029F00001339B0007330733DB08DB00ADEB030D2E
:102A00006B460733DB08DB00BB60BB68154A59F82F
:102A100002201A60BB6804337A681A600FE0FB6812
:102A20009B00BA681A44FB6803F18043013B9B009A
:102A300039680B441B681360FB68013BFB60FB6853
:102A4000012BECDC084B59F803301A68054B59F898
:102A500003301846B968FDF7E3FB03461846103704
:102A6000BD4680BD1C000000A400000090B5A7B0CA
:102A700000AF78603960784B59F80330184600F0A1
:102A8000F1F8C7F8940078682F2100F00DFB034699
:102A9000002B19D0714B59F803301B6878683968DE
:102AA0001A46FDF7BDFB0346B3F1FF3F0CD1FFF71C
:102AB0007DFF03461B68082B03D178683968FFF750
:102AC00081FF4FF0FF33C3E0D7F89430002B04D1DF
:102AD000634B59F80330C7F89430D7F89430C7F8EF
:102AE0009030AEE0D7F890003A2100F0DDFAC7F858
:102AF0008C00D7F88C30002B09D1D7F8900000F06B
:102B000019FC0246D7F890301344C7F88C30D7F838
:102B10008C20D7F890309A4207D12E233B72D7F8F9
:102B20009030013BC7F890301BE0D7F88C20D7F8E5
:102B30009030D31A7C2B07DDFFF738FF02461623AF
:102B400013604FF0FF3383E0D7F88C20D7F8903034
:102B5000D31A1A4607F108031846D7F8901000F068
:102B6000D9F9D7F88C20D7F89030D31A07F198020A
:102B700013442F2203F8902C786800F0DBFB034607
:102B8000C7F88830D7F88C20D7F89030D21AD7F809
:102B9000883013447D2B00DDCEE7D7F88C20D7F8A2
:102BA0009030D31A013307F10802D418786800F086
:102BB000C1FB03460133204679681A4600F0AAF9A2
:102BC000264B59F803301B6807F108021046396894
:102BD0001A46FDF725FB0346B3F1FF3F22D1FFF76D
:102BE000E5FE03461B68082B07D107F108031846CA
:102BF0003968FFF7E7FE03462AE0FFF7D7FE0346F2
:102C00001B680D2B0ED0FFF7D1FE03461B68022B6D
:102C100008D0FFF7CBFE03461B68142B02D04FF001
:102C2000FF3315E0D7F88C301B78002B00D10DE076
:102C3000D7F88C300133C7F88C30D7F88C30C7F810
:102C40009030D7F89030002B7FF44CAF4FF0FF332B
:102C500018469C37BD4690BD20000000A40000002F
:102C60002400000080B584B000AF7860264B59F88E
:102C700003301B68002B02D07B68002B01D100239E
:102C80003DE0786800F056FBB8600023FB602BE065
:102C90001D4B59F803301A68FB689B0013441B68EE
:102CA00018467968BA6800F097F80346002B18D1E7
:102CB000154B59F803301A68FB689B0013441A68D7
:102CC000BB6813441B783D2B0BD10F4B59F80330D5
:102CD0001A68FB689B0013441A68BB6801331344ED
:102CE0000DE0FB680133FB60074B59F803301A68AD
:102CF000FB689B0013441B68002BC9D100231846B6
:102D00001037BD4680BD00BFA400000080B483B072
:102D100000AF78607B6843F02003613B192B03D937
:102D20007B68303B092B01D8012300E000231846C3
:102D30000C37BD465DF8047B704700BF80B58EB090
:102D400000AF7860FFF732FE03461B687B6307F134
:102D50000C03786845F201411A46FDF761FB034612
:102D6000002B0CBF01230023DBB23B63FFF71EFEE9
:102D700002467B6B13603B6B18463837BD4680BDFF
:102D800080B483B000AF78607B68093B042B02D924
:102D90007B68202B01D1012300E0002318460C376B
:102DA000BD465DF8047B704780B483B000AF7860A7
:102DB0007B68303B092B05D97B6843F02003613BDE
:102DC000052B01D8012300E0002318460C37BD462F
:102DD0005DF8047B704700BFF0B484B000AFF860CA
:102DE000B9607A60FC68BD687B6801337B600AE08B
:102DF00023781A462B78D61A3346002B01D0334657
:102E000008E0013401357B68013B7B607B68002B67
:102E1000EED1002318461037BD46F0BC704700BF06
:102E200080B48BB000AFF860B9607A60FB683B613A
:102E30000023BB6100237B61FA68BB68534003F049
:102E40000303002B40D17B68042B3DD9FB6803337F
:102E500023F00302FB68D31AFB61FB69002B20D02F
:102E6000FB687B62BB683B6207E07B6A5A1C7A6244
:102E70003A6A511C396212781A70FB695A1EFA615B
:102E8000002B04D07B685A1E7A60002BEDD17B6842
:102E9000B3F1FF3F01D13B6936E07B6AFB603B6ADF
:102EA000BB60FB68BB61BB687B610AE0BB691A1D44
:102EB000BA617A69111D796112681A607B68043BF6
:102EC0007B607B68032BF1D87B68002B1BD0BB6930
:102ED000002B01D0BB6900E0FB687B62BB69002B63
:102EE00001D07B6900E0BB683B6207E07B6A5A1C4B
:102EF0007A623A6A511C396212781A707B685A1EDB
:102F00007A60002BF2D13B6918462C37BD465DF83C
:102F1000047B704780B487B000AFF860B9607A6016
:102F2000FB687B61BB683B61BA68FB689A422AD048
:102F3000BA68FB689A420ED907E07B695A1C7A612D
:102F40003A69511C396112781A707B685A1E7A608E
:102F5000002BF2D117E07B68013B7A6913447B6157
:102F60007B68013B3A6913443B6107E07B695A1E69
:102F70007A613A69511E396112781A707B685A1E5B
:102F80007A60002BF2D1FB6818461C37BD465DF80D
:102F9000047B704790B484B000AFF860B9607A6089
:102FA000FC687B6801337B6004E023465C1CBA68E4
:102FB000D2B21A707B68013B7B607B68002BF4D136
:102FC000FB6818461037BD4690BC704780B582B08C
:102FD00000AF78607B68002B10D0786800F0AAF909
:102FE0000346022079681A46FDF7F4FC0220104BD4
:102FF00059F8033019460222FDF7ECFC0D4B59F845
:103000000330184600F096F902460220094B59F8A1
:1030100003301946FDF7DEFC0220074B59F8033058
:1030200019460122FDF7D6FC0837BD4680BD00BF1A
:1030300028000000BC0000002C00000080B582B019
:1030400000AF786039607B680022C3F828213B68B4
:10305000002B11D07B6803F59673002000211A46DF
:1030600000F010F80346002B0CBF01230023DBB255
:103070001A467B68C3F82821002318460837BD4646
:1030800080BD00BF80B584B000AFF860B9607A60E1
:10309000F868B9687A680823FDF7FCFA0346184611
:1030A0001037BD4680BD00BF90B482B000AF03466C
:1030B00079607A68D4B21A78A2420CBF0122002249
:1030C000D2B2002A00D047E01A78002A0CBF0122B1
:1030D0000022D2B2002A01D000233DE001331A7849
:1030E000A2420CBF01220022D2B2002A00D033E05B
:1030F0001A78002A0CBF01220022D2B2002A01D085
:10310000002329E001331A78A2420CBF01220022D9
:10311000D2B2002A00D01FE01A78002A0CBF012288
:103120000022D2B2002A01D0002315E001331A7820
:10313000A2420CBF01220022D2B2002A00D00BE032
:103140001A78002A0CBF01220022D2B2002A01D034
:10315000002301E00133AEE718460837BD4690BCB6
:10316000704700BF80B489B000AF786039607A687A
:103170003B68534003F00303002B05D1544B59F82F
:1031800003301B68002B17D005E07B6801337B60A0
:103190003B6801333B607B681B78002B05D07B6864
:1031A0001A783B681B789A42EFD07B681B781A46E6
:1031B0003B681B78D31A85E07B68033323F0030256
:1031C0007B68D31AFB60FB68002B1CD016E07B6881
:1031D0001B78002B05D07B681A783B681B789A42D5
:1031E00006D07B681B781A463B681B78D31A69E0C7
:1031F0007B6801337B603B6801333B60FB685A1E90
:10320000FA60002BE3D17B68FB613B68BB61FB6923
:103210001A1DFA611B687B61BB691A1DBA611B68C4
:103220003B617B691A464FF00003B2F1013043F174
:10323000FE317B69DB431A464FF0000302EA0002CD
:1032400003EA01034FF080304FF0803102EA0002C0
:1032500003EA010313431ED13B691A464FF00003F2
:10326000B2F1013043F1FE313B69DB431A464FF0C6
:10327000000302EA000203EA01034FF080304FF03E
:10328000803102EA000203EA0103134303D17A69A1
:103290003B699A4215D07B69FB723B69BB72FB7A32
:1032A000002B03D0FA7ABB7A9A4203D0FA7ABB7A1F
:1032B000D31A07E07B691B0A7B613B691B0A3B61F0
:1032C000E9E7A4E718462437BD465DF8047B70475C
:1032D0008C00000080B485B000AF786039600023B6
:1032E000FB601BE00023BB600CE07B681A78BB68C6
:1032F00039680B441B789A4201D1FB6813E0BB6824
:103300000133BB60BB683A6813441B78002BECD1D7
:10331000FB680133FB607B6801337B607B681B7853
:10332000002BDFD1FB6818461437BD465DF8047BDF
:10333000704700BF90B484B000AF78607B68FB60DA
:103340007B68002B0CBF01230023DBB2002B01D0D4
:10335000002358E02E4B59F803301B68002B0BD08C
:10336000002403E001347B6801337B607B681B78B9
:10337000002BF7D1234646E00AE0FB681B78002BC0
:1033800003D1FA687B68D31A3DE0FB680133FB6028
:10339000FB6803F00303002BEFD1FB681B68BB60E5
:1033A000FB680433FB604FF00132BB689A1ABB68BC
:1033B000DB431340BB604FF00133DB01BA681340BD
:1033C000BB60BB68002B0CBF01230023DBB2002BCA
:1033D000E3D1BB685A1E4FF001339B021340BB6020
:1033E000BB681A02BB681B041344BA681344BB6071
:1033F000BB689B0EFA681344FB6000BFFB68043B8C
:103400001A467B68D31A18461037BD4690BC7047E1
:103410008C00000080B485B000AF78603960002374
:10342000FB601AE03B68BB6002E0BB680133BB6035
:10343000BB681B78002B05D07B681A78BB681B78AB
:103440009A42F2D1BB681B78002B00D109E0FB68DF
:103450000133FB607B6801337B607B681B78002B4A
:10346000E0D1FB6818461437BD465DF8047B704711
:1034700080B586B000AF786039603868FFF75AFFD2
:1034800038617868FFF756FFF8603B69002B00D180
:1034900019E03A69FB689A4201D900231FE0FA68F3
:1034A0003B69D31A01337B6115E07B681A783B686E
:1034B0001B789A4209D1786839683A69FFF78CFC21
:1034C0000346002B01D17B6809E07B6801337B60F8
:1034D0007B69013B7B617B69002BE6D100231846A9
:1034E0001837BD4680BD00BF80B582B000AF7860A0
:1034F000396078683968054B59F803301A4600F08E
:1035000007F8034618460837BD4680BD3000000066
:1035100080B586B000AFF860B9607A6000237B6147
:10352000FB68002B02D17B681B68FB60F868B968F8
:10353000FFF770FF0246FB681344FB60FB681B78D3
:10354000002B12D0FB687B61F868B968FFF7C2FEF8
:103550000246FB681344FB60FB681B78002B04D019
:10356000FB685A1CFA6000221A707B68FA681A60BD
:103570007B6918461837BD4680BD00BF80B588B04E
:1035800000AFF860B9607A600023FB61FB68BB6143
:1035900002E0FB680133FB60FB681B781846FFF70D
:1035A000EFFB0346002BF4D1FB681B782D2B0ED1CB
:1035B000FB6801331B781846FFF7A8FB0346002B76
:1035C00005D04FF0FF33FB61FB680133FB60F86807
:1035D000B9687A6800F036F87861BB68002B07D0CC
:1035E000BB681A68FB689A4202D1BB68BA691A6064
:1035F0007B69002B1BDA7B69B3F1004F09D1FB69B2
:10360000002B06D0FFF7D2F90246002313607B6936
:1036100014E0FFF7CBF9024622231360FB69002B6D
:1036200002D04FF0004309E06FF0004306E0FB6971
:10363000002B02D07B695B4200E07B691846203793
:10364000BD4680BDB0B58AB000AFF860B9607A60A1
:1036500000237B6200233B620023FB61FB68BB61AC
:1036600002E0BB690133BB61BB691B781846FFF7F9
:1036700087FB0346002BF4D1BB691B782D2B05D1AA
:1036800001237B62BB690133BB6106E0BB691B7828
:103690002B2B02D1BB690133BB61BB697B617B68AA
:1036A000102B04D1BB691B78302B00D11AE07B684A
:1036B000002B11D07B68023B1C46222C8CBF0123BF
:1036C0000023DBB2002B06D0FFF770F90246162369
:1036D000136000238BE020E0BB691B78302B1AD1EC
:1036E00008237B60BB6901331B78782B04D0BB694E
:1036F00001331B78582B10D1BB6902331B78184655
:10370000FFF752FB0346002B07D0BB690233BB61B6
:1037100010237B603CE00A237B6039E0BB691C78A6
:10372000602C03D9A4F15703DBB20CE0402C03D981
:10373000A4F13703DBB206E0392C03D8A4F130033F
:10374000DBB200E0FF231C4622467B689A42ACBFF6
:1037500001230023DBB2002B00D01DE0FB69DBB2AC
:103760007A6802FB03F322469D18FB691B0A7A68FC
:1037700002FB03F22B0AD418B4F1807F01D301239A
:103780003B622202EBB21344FB61BB690133BB61B4
:10379000BB691B78002BC1D1BA697B699A420CBF07
:1037A00001230023DBB2002B08D0FB68BB61FFF7CD
:1037B000FDF80246162313600023FB61BB68002B53
:1037C00002D0BB68BA691A603B6A002B07D0FFF7CA
:1037D000EDF80246222313604FF0FF3307E07B6AC7
:1037E000002B02D0FB695B4200E0FB6900BF18467A
:1037F0002837BD46B0BD00BF80B487B000AF786049
:1038000000237B610023FB601AE07B681B68032BAD
:1038100007D17B6804331B687B61FB68002B0CD0ED
:1038200012E07B681B68052B07D17B6804331B689B
:10383000FB607B69002B00D006E07B6808337B606F
:103840007B681B68002BE0D17B69002B02D0FB68F2
:10385000002B00D141E000233B613AE03B695B0172
:103860007A6913441B68072B30D13B695B017A6985
:1038700013449B681A461B4B59F803301A603B6986
:103880005B017A6913441B69174A59F802201360D7
:103890003B695B017A6913445B69144A59F8022059
:1038A0001360124B59F803301B6803F00F03002B11
:1038B0000BD00E4B59F803301B680F3323F00F0366
:1038C0000A4A59F80220136007E006E03B69013319
:1038D0003B613A69FB689A42C0D31C37BD465DF82C
:1038E000047B70476C00000070000000B400000012
:1038F00080B582B000AF78607B687A681A607B68B8
:1039000000225A607B6800229A607B680022DA609D
:10391000054B59F803301A687B685A617868FCF7E0
:10392000E9FB0837BD4680BDA000000080B483B02D
:1039300000AF786039600BE07B681A683B689A4298
:1039400003D17B6804331B6807E07B6808337B6026
:103950007B681B68002BEFD1002318460C37BD464F
:103960005DF8047B704700BF90B58BB000AFF86086
:10397000B9607A607B687B6107F114033B6202E007
:103980007B6904337B617B691B68002BF8D17B6901
:1039900004337B617B69714A59F8022013607B69AB
:1039A00018461921FFF7C2FF38626D4B59F80330F2
:1039B0001846396A0422FFF733FA7B691846212139
:1039C000FFF7B4FF0246674B59F803301A607B6972
:1039D0001846FFF711FF644B59F803301B681C337E
:1039E0001B2B94BF01230023DBB2002B1AD15E4BAB
:1039F00059F803301B68B3F1005F8CBF012300232B
:103A0000DBB2002B0ED1584B59F803301A68574BD4
:103A100059F803301B689A4234BF01230023DBB2FC
:103A2000002B01D06F2395E04F4B59F803301B68F2
:103A30001C3307330733DB08DB00ADEB030D6B46AC
:103A40000733DB08DB00FB61494B59F803301A6888
:103A5000464B59F803301B68F86911461A46FFF7C0
:103A6000DFF9424B59F803301B68FA69D1183E4B15
:103A700059F803301A683D4B59F803301B68D31AC4
:103A8000084600211A46FFF785FA374B59F80330EC
:103A90001B68FA691344374A59F802201360354B02
:103AA00059F803301B681846FFF722FF314B59F8CD
:103AB00003301C687B6918462021FFF737FF034657
:103AC00023612D4B59F803301846FFF7CBF8B86146
:103AD000BB69002B0BD0B869284B59F80330194645
:103AE000FFF7C6FC0346002B01D0012300E00023B2
:103AF000234A59F802201360BB681B68214A59F811
:103B0000022013601F4B59F803301B681E4A59F8F6
:103B1000022013601C4B59F803301B687B620CE0D9
:103B20007B6A1B782F2B05D17B6A0133164A59F823
:103B3000022013607B6A01337B627B6A1B78002B57
:103B4000EED1F868B9687A6800F088FA034618463A
:103B5000FEF710FF18462C37BD4690BD340000001C
:103B6000A000000098000000B400000070000000F9
:103B70006C00000094000000380000003C000000D1
:103B80008C000000D0000000AC00000080B584B0C4
:103B900000AF78603960094B59F803301A463B682A
:103BA00013607B681A687B6804331046194600F07E
:103BB00055FAF860F868FEF7DDFE00BFB0000000BF
:103BC00080B400AF03231846BD465DF8047B704700
:103BD00080B582B000AF78607B6804331B68002B2F
:103BE0000BD1104B59F803301B6818460E4B59F88F
:103BF00003301946FDF73AFD0EE07B6804331B687D
:103C00001846FCF7D5FA0346002B05D0074B59F8A8
:103C100003301846FFF7DAF9012318460837BD4686
:103C200080BD00BFB800000040000000440000005C
:103C300080B584B000AF78601B4B59F8033018464C
:103C4000FDF7B4FE194B59F803301846FDF7AEFEE8
:103C5000174B59F803301846FDF7A8FE0023FB6008
:103C600010E0144B59F803301A46FB6852F8232031
:103C7000114B59F8033018461146FDF797FEFB68C3
:103C80000133FB60FFF79CFF0246FB689A42E8DCC9
:103C90000A4B59F803301846FDF788FE01231846F1
:103CA0001037BD4680BD00BF480000004C0000003A
:103CB0005000000084000000540000005800000084
:103CC00080B483B000AF7860002318460C37BD463F
:103CD0005DF8047B704700BFB0B582B000AF054609
:103CE000FCF7CEFA0446002C2DD12846FDF740F90A
:103CF000044623681846FDF73BF903462360251D5B
:103D0000231D1B681846FDF733F903462B6004F1A9
:103D1000080504F108031B681846FDF729F9034656
:103D20002B60236818462146FEF7A0FE0346B3F138
:103D3000FF3F05D1154B59F803301846FFF746F9F8
:103D40000120FEF717FE002C06DA104B59F803305D
:103D50001846FFF73BF913E03B1D204619460222A7
:103D6000FCF7E4F97B6803F07F03002B08D07B6845
:103D7000DBB27F2BF0D07B6803F07F03002BEBD00E
:103D8000012318460837BD46B0BD00BF44000000FF
:103D900080B584B000AF78607B681B68002B01D1D0
:103DA00001232AE00023FB601DE07B681A68154BA5
:103DB00059F803301946FB6851F82330104619466C
:103DC000FFF7D0F90346002B0AD10F4B59F8033007
:103DD0001A46FB6852F823307868984703460CE08F
:103DE000FB680133FB60FFF7EBFE0246FB689A427B
:103DF000DBDC7868FFF770FF034618461037BD46D6
:103E000080BD00BF840000009000000080B584B039
:103E100000AF4023FB600023BB60FB681846FEF741
:103E2000C1FC03467B607B68002B0DD1294B59F800
:103E300003301B681846284B59F803301946FDF724
:103E400015FC0120FEF796FD244B59F803301B6842
:103E50001846FDF77FFB38603B68B3F1FF3F02D1A6
:103E60000020FEF787FD3B680A2B06D1BB687A6805
:103E7000134400221A707B6828E0BB687A681344F8
:103E80003A68D2B21A70BB680133BB60BA68FB688B
:103E90009A421ADBFB684033FB60FB68786819467E
:103EA000FEF7C4FC03467B607B68002B0DD1094BF9
:103EB00059F803301B681846074B59F80330194668
:103EC000FDF7D4FB0120FEF755FDBDE7184610377E
:103ED000BD4680BDB80000005C000000A8000000E6
:103EE00080B588B000AF78602023FB610023BB6100
:103EF000FB699B001846FEF755FC03467B617B6916
:103F0000002B0DD12D4B59F803301B6818462C4B54
:103F100059F803301946FDF7A9FB0120FEF72AFDE9
:103F20007868284B59F803301946FFF7DDFA3861F5
:103F300035E0BB699B007A6913443A691A60BB6932
:103F40000133BB61BA69FB699A4220DBFB6920330C
:103F5000FB617B69FB60FB699B0078691946FEF792
:103F600065FC03467B617B69002B10D1F868FEF786
:103F7000FDFB124B59F803301B681846104B59F8DB
:103F800003301946FDF772FB0120FEF7F3FC002019
:103F90000C4B59F803301946FFF7A6FA38613B6914
:103FA000002BC6D1BB699B007A69134400221A60BA
:103FB0007B6918462037BD4680BD00BFB8000000B1
:103FC0005C0000006000000080B584B000AF0E4BC4
:103FD00059F803301846FDF7E9FCFFF717FFF860C2
:103FE000F868FFF77DFFB860B868FFF7D1FE78602A
:103FF000F868FEF7BBFBB868FEF7B8FB7B68002BE0
:10400000E5D11037BD4680BD64000000B0B58CB06E
:1040100000AF114B59F803303C1D1D460FCD0FC4A6
:104020000FCD0FC495E8030084E803000023FB6272
:104030000CE0FB6A9B0007F13002134453F82C3C60
:104040001846FDF7B3FCFB6A0133FB62FB6A092BE0
:10405000EFD93037BD46B0BD6800000080B582B0F2
:1040600000AF78603960FFF7D1FFFFF7ADFF0023A5
:1040700018460837BD4680BD80B48DB000AF78606B
:104080003960474B59F803307B62464B59F803308F
:104090003B62454B59F80330FB610023FB627B6AAE
:1040A000BB622EE0FB6A9B007A6813441A687B6A45
:1040B0009A4210D3FB6A9B007A6813441A687B6AA1
:1040C000D31ABB61FB6A9B007A6813447968BA69AA
:1040D0000A441A600FE0FB6A9B007A6813441A686E
:1040E000FB69D31ABB61FB6A9B007A681344B96908
:1040F0003A680A441A60BB6A0433BB62FB6A013344
:10410000FB62BA6A3B6A9A42CCD3284B59F8033017
:104110007B61274B59F803303B610023FB627B69CD
:10412000BB6233E0FB6A01339B007A6913441B686E
:10413000172B25D1FB6A9B007A6913441A687B6AA6
:10414000D31ABB617A68BB691344FB60FB681A68C9
:104150007B6A9A420AD3FB681A687B6AD31ABB61EE
:104160007A68BB691A44FB681A6009E0FB681A6840
:10417000FB69D31ABB61BA693B681A44FB681A60D1
:10418000BB6A0833BB62FB6A0233FB623A69BB6AF3
:104190009A42C7D800BF3437BD465DF8047B7047EC
:1041A000D4000000780000007C000000C400000083
:1041B000880000005B756E6B6E6F776E20657272A3
:1041C0006F725D0020202020202020202020202031
:1041D000202020203030303030303030303030301F
:1041E00030303030286E756C6C2900002F62696E9B
:1041F0002F73680050415448000000002F62696E20
:104200003A2F7573722F62696E3A00003A200000EF
:104210000A0000004C445F5052454C4F414400009E
:1042200076616C6772696E64000000006364000070
:1042300068656C700000000065786974000000001B
:104240006C73683A20657870656374656420617288
:1042500067756D656E7420746F20226364220A0096
:104260006C7368004C53480A000000005479706574
:104270002070726F6772616D206E616D6573206171
:104280006E6420617267756D656E74732C20616E4B
:10429000642068697420656E7465722E0A000000DF
:1042A00054686520666F6C6C6F77696E6720617209
:1042B00065206275696C7420696E3A0A000000001E
:1042C000202025730A00000055736520746865205E
:1042D0006D616E20636F6D6D616E6420666F72201C
:1042E000696E666F726D6174696F6E206F6E206F9C
:1042F000746865722070726F6772616D732E0A0048
:104300006C73683A20616C6C6F636174696F6E20C6
:104310006572726F720A000020090D0A0700000022
:104320003E200000205F5F5F5F5F205F5F5F5F5F39
:104330005F2020205F5F5F20205F5F202020205FC4
:104340005F5F5F5F5F5F5F20205F5F5F5F5F5F5FFB
:104350005F5F20205F5F5F5F5F5F5F5F20205F5F69
:104360005F5F5F5F5F5F2020202020200D0A00003C
:104370007C5C2020205F205C20205F2020205C7C53
:104380005C20205C7C5C20205C207C5C2020205F0A
:104390005F20205C7C5C5F5F5F2020205F5F5F5C54
:1043A0005C2020205F5F20205C7C5C2020205F5F01
:1043B0005F5F5C20202020200D0A00005C205C2034
:1043C000205C5C5C5F5F5C205C20205C205C2020CB
:1043D0005C2F20202F7C5C205C20205C7C5C2020DB
:1043E0005C7C5F5F5F205C20205C5F5C205C202049
:1043F0005C7C5C20205C205C20205C5F5F5F7C5FDD
:10440000202020200D0A0000205C205C20205C5C25
:104410007C5F5F7C205C20205C205C2020205F5F34
:104420005F20205C205C2020205F20205F5C20201B
:10443000205C205C20205C205C205C20205C5C5C9C
:1044400020205C205C5F5F5F5F5F20205C2020207D
:104450000D0A000020205C205C20205C2020202011
:104460005C205C20205C205C20205C5C205C2020A8
:104470005C205C20205C5C20205C7C2020205C2078
:104480005C20205C205C205C20205C5C5C20205C4C
:104490007C5F5F5F5F7C5C20205C20200D0A000059
:1044A0002020205C205C5F5F5C202020205C205C62
:1044B0005F5F5C205C5F5F5C5C205C5F5F5C205CDE
:1044C0005F5F5C5C205F5C202020205C205C5F5F85
:1044D0005C205C205C5F5F5F5F5F5F5F5C5F5F5F76
:1044E0005F5C5F5C20205C200D0A00002020202003
:1044F0005C7C5F5F7C20202020205C7C5F5F7C5C9C
:104500007C5F5F7C205C7C5F5F7C5C7C5F5F7C5C55
:104510007C5F5F7C202020205C7C5F5F7C20205CB7
:104520007C5F5F5F5F5F5F5F7C5C5F5F5F5F5F5F64
:104530005F5F5F5C0D0A00002020202020202020EB
:10454000202020202020202020202020202020206B
:10455000202020202020202020202020202020205B
:10456000202020202020202020202020202020204B
:10457000202020205C7C5F5F5F5F5F5F5F5F5F7C10
:104580000D0A00000D0A5368656C6C207665727325
:10459000696F6E3A302E310D0A000000436F6D7066
:1045A0006C69652054696D653A4F6374203136201B
:1045B000323032322032303A33373A31310D0A005C
:1045C000F84F000017000000105000001700000016
:1045D0003050000017000000485000001700000095
:1045E00068500000170000009C4F000017000000FA
:1045F000A04F000017000000A44F000017000000AB
:10460000A84F000017000000AC4F0000170000008A
:10461000B04F000017000000B44F0000170000006A
:10462000B84F000017000000BC4F0000170000004A
:10463000C04F0000170000006C5000001700000081
:1046400070500000170000007450000017000000B8
:1046500078500000170000007C5000001700000098
:0846600080500000170000006B
:104668002F7573722F6C69622F6C642E736F2E31E5
:014678000041
:10467C00000000000000000000000000000000002E
:10468C00000000000000000000000000030001001A
:10469C0000000000C04E00000000000003000700F6
:1046AC000100000000010000000000000000F1FF0C
:1046BC000A010000205C00000000000000000A005D
:1046CC0035010000DC7000000000000000000A0052
:1046DC0052000000DC7000000000000000000A0026
:1046EC0041010000045400000400000011000A0005
:1046FC004B000000C04E000000000000100007003E
:10470C009A000000C04E00000000000010000700DE
:10471C004C010000085400000400000011000A00C5
:10472C005801000068500000040000001100070050
:10473C00B7000000984F00000000000010000700B8
:10474C001400000000000000000000001000010038
:10475C005F010000005300000400000021000A006B
:10476C00650100006C5000000C00000011000700F7
:10477C00310000006846000000000000100001003D
:10478C0071010000D07000000400000011000A004C
:10479C007C010000785000000C00000011000700A4
:1047AC00890100000C5400000400000011000A00F4
:1047BC00ED000000005200000000000010000A0094
:1047CC009A010000105400000400000011000A00BF
:1047DC003D000000C04E000000000000100007006B
:1047EC00A1010000951300000C0000001200010054
:1047FC00B2010000005200000400000021000A0079
:10480C00D000000000080000000000001000F1FFC4
:10481C00C3000000845000000000000010000700DE
:10482C00BA01000030500000040000001100070025
:10483C008D0000001C220000000000001000F1FFA1
:10484C00C0010000145400000400000011000A0014
:10485C00DE010000D87000000400000011000A0006
:10486C00F1010000185400000400000011000A00BF
:10487C00FB000000205400000000000010000A00A3
:10488C00DE00000000040000000000001000F1FF3A
:10489C00FC010000F84F00000400000011000700AC
:1048AC0057000000C04E0000000000001000070080
:1048BC0003020000B44100001000000011000100D0
:1048CC00150200001D150000380000001200010048
:1048DC0023000000C0450000000000001000010093
:1048EC0073000000C04E0000000000001000070024
:1048FC0022020000206000000400000011000A00E9
:10490C0031020000005400000400000011000A00F5
:10491C003E0200001C5400000400000011000A00BC
:10492C0027010000206000000000000010000A00B9
:10493C0017010000205C00000000000010000A00BD
:10494C00A9000000C04E000000000000100007008D
:10495C00005F73797374656D5F737461636B5F7300
:10496C00697A65005F5F746578745F7374617274E3
:10497C005F5F005F5F72656C5F73746172745F5F21
:10498C00005F5F72656C5F656E645F5F005F5F65A3
:10499C00786469785F7374617274005F5F657864C2
:1049AC0069785F656E64005F5F7065726D697373C3
:1049BC00696F6E735F7461626C655F73746172743E
:1049CC005F5F005F5F7065726D697373696F6E73A3
:1049DC005F7461626C655F656E645F5F005F5F72E0
:1049EC00616D5F73697A655F5F005F5F64617461BD
:1049FC005F73746172745F5F005F5F676F745F7386
:104A0C00746172745F5F005F5F676F745F656E6483
:104A1C005F5F005F5F646174615F656E645F5F0020
:104A2C005F5F686561705F73697A655F5F005F5F88
:104A3C00737461636B5F73697A655F5F005F5F625C
:104A4C0073735F73746172745F5F005F5F6865613D
:104A5C00705F73746172745F5F005F5F6865617033
:104A6C005F656E645F5F005F5F737461636B5F7340
:104A7C00746172745F5F005F5F737461636B5F6519
:104A8C006E645F5F005F5F6273735F656E645F5F30
:104A9C00005F5F7464617461707472005F5F746452
:104AAC0061746173697A65007374646F7574006501
:104ABC0072726E6F006275696C74696E5F7374727A
:104ACC00005F5F76616C6772696E64006275696C19
:104ADC0074696E5F66756E63005F5F7463625F6DB1
:104AEC0061696E746872656164005F5F7664736F90
:104AFC00005F5F737464696F5F666C757368616C7B
:104B0C006C00656E7669726F6E00737464696E000A
:104B1C0070726F6772616D5F696E766F63617469D5
:104B2C006F6E5F73686F72745F6E616D65005F5F4F
:104B3C006170705F73746172745F616464725F5FE3
:104B4C00005F5F746D656D73697A6500737464657D
:104B5C007272005F5F7379735F6572725F756E6BF3
:104B6C006E6F776E005F5F737464696F5F6F7574DF
:104B7C0073005F5F737464696F5F617465786974E7
:104B8C00005F5F737464696F5F726F6F7400707233
:104B9C006F6772616D5F696E766F636174696F6E5A
:064BAC005F6E616D650003
:104BB400250000002E0000000E0000001700000079
:104BC4001A000000000000001C00000000000000AB
:104BD4002C00000000000000000000002D00000078
:104BE4001300000008000000000000002000000086
:104BF400280000000D000000260000001F00000037
:104C04000000000000000000000000002700000079
:104C14002B0000001D000000000000000300000045
:104C240000000000160000001B000000110000003E
:104C3400240000001E000000090000000000000025
:104C44002500000019000000100000000000000012
:104C54000000000000000000000000000000000050
:104C64000000000005000000000000000700000034
:104C7400000000000600000000000000000000002A
:104C84000000000000000000000000000000000020
:104C94000B00000000000000000000000A000000FB
:104CA40000000000000000000F00000000000000F1
:104CB40000000000000000000000000004000000EC
:104CC4000000000014000000000000000C000000C0
:104CD4001200000021000000000000001800000085
:104CE4002300000000000000000000001500000088
:104CF4000000000022000000290000000000000065
:044D04002A00000081
:104D0800C04E000017000000C44E0000170000004D
:104D1800C84E000017000000CC4E0000170000002D
:104D2800D04E000017000000D44E0000170000000D
:104D3800D84E000017000000DC4E000017000000ED
:104D4800E04E000017000000E44E000017000000CD
:104D5800E84E000017000000EC4E000017000000AD
:104D6800F04E000017000000F44E0000170000008D
:104D7800F84E000017000000FC4E0000170000006D
:104D8800004F000017000000044F0000170000004B
:104D9800084F0000170000000C4F0000170000002B
:104DA800104F000017000000144F0000170000000B
:104DB800184F0000170000001C4F000017000000EB
:104DC800204F000017000000244F000017000000CB
:104DD800284F0000170000002C4F000017000000AB
:104DE800304F000017000000344F0000170000008B
:104DF800384F0000170000003C4F0000170000006B
:104E0800404F000017000000444F0000170000004A
:104E1800484F0000170000004C4F0000170000002A
:104E2800504F000017000000544F0000170000000A
:104E3800584F0000170000005C4F000017000000EA
:104E4800604F000017000000644F000017000000CA
:104E5800684F0000170000006C4F000017000000AA
:104E6800704F000017000000744F0000170000008A
:104E7800784F0000170000007C4F0000170000006A
:104E8800804F000017000000844F0000170000004A
:104E9800884F0000170000008C4F0000170000002A
:104EA800904F000017000000944F0000170000000A
:084EB800641300000218000061
:104EC00024680000411A0000C4410000E4410000D1
:104ED0002870000048700000C8700000EC4100001D
:104EE000F4410000FC4100000C42000010420000B0
:104EF000CC700000D470000014420000204200007A
:104F00004042000060420000644200006C42000029
:104F1000A0420000C0420000C84200000043000060
:104F200018430000204300009C4F00000454000080
:104F30000854000068500000984F00000000000076
:104F4000005300006C50000068460000D070000064
:104F5000785000000C54000010540000951300001D
:104F6000984F000000520000305000001454000020
:104F7000D870000018540000F84F0000B441000041
:104F80001D150000C0450000206000000054000016
:104F90001C540000C04E000000FF0A002443000023
:104FA00070430000BC43000008440000544400006B
:104FB000A0440000EC440000384500008445000097
:104FC0009C450000020000001001000000000000ED
:104FD00000000000000000000000000000000000D1
:104FE00000000000000000000000000000000000C1
:104FF0000100000000000000C44F0000000000009D
:10500000AC000000000000000000000000080000EC
:10501000246000000000000000000000000000000C
:10502000000000000000000001000000000000007F
:10503000FC4F0000010000002803000000000000F9
:1050400000000000000800002868000000000000C8
:105050000000000000000000000000000000000050
:105060000100000000000000345000002C4200004D
:105070003042000038420000D13B0000313C0000CB
:04508000C13C00002F
:1050840004000000B44B0000050000005C4900006F
:10509400060000007C4600000A00000056020000E2
:1050A4000B000000100000001500000000000000CC
:1050B40011000000084D000012000000B8010000BB
:1050C40013000000080000001600000000000000AB
:1050D400FAFFFF6F3600000000000000000000002F
:1050E40000000000000000000000000000000000BC
:1050F40000000000000000000000000000000000AC
:0C510400845000000000000000000000CB
:0400000300000001F8
:00000001FF
